{
  "contractName": "MedShare",
  "abi": [
    {
      "anonymous": false,
      "inputs": [
        {
          "indexed": false,
          "internalType": "address",
          "name": "previousAdmin",
          "type": "address"
        },
        {
          "indexed": false,
          "internalType": "address",
          "name": "newAdmin",
          "type": "address"
        }
      ],
      "name": "AdminChanged",
      "type": "event"
    },
    {
      "anonymous": false,
      "inputs": [
        {
          "indexed": true,
          "internalType": "address",
          "name": "owner",
          "type": "address"
        },
        {
          "indexed": true,
          "internalType": "address",
          "name": "spender",
          "type": "address"
        },
        {
          "indexed": false,
          "internalType": "uint256",
          "name": "value",
          "type": "uint256"
        }
      ],
      "name": "Approval",
      "type": "event"
    },
    {
      "anonymous": false,
      "inputs": [
        {
          "indexed": true,
          "internalType": "address",
          "name": "operator",
          "type": "address"
        },
        {
          "indexed": true,
          "internalType": "address",
          "name": "tokenHolder",
          "type": "address"
        }
      ],
      "name": "AuthorizedOperator",
      "type": "event"
    },
    {
      "anonymous": false,
      "inputs": [
        {
          "indexed": true,
          "internalType": "address",
          "name": "beacon",
          "type": "address"
        }
      ],
      "name": "BeaconUpgraded",
      "type": "event"
    },
    {
      "anonymous": false,
      "inputs": [
        {
          "indexed": true,
          "internalType": "address",
          "name": "operator",
          "type": "address"
        },
        {
          "indexed": true,
          "internalType": "address",
          "name": "from",
          "type": "address"
        },
        {
          "indexed": false,
          "internalType": "uint256",
          "name": "amount",
          "type": "uint256"
        },
        {
          "indexed": false,
          "internalType": "bytes",
          "name": "data",
          "type": "bytes"
        },
        {
          "indexed": false,
          "internalType": "bytes",
          "name": "operatorData",
          "type": "bytes"
        }
      ],
      "name": "Burned",
      "type": "event"
    },
    {
      "anonymous": false,
      "inputs": [
        {
          "indexed": false,
          "internalType": "address",
          "name": "",
          "type": "address"
        },
        {
          "indexed": false,
          "internalType": "uint256",
          "name": "",
          "type": "uint256"
        }
      ],
      "name": "Fallenback",
      "type": "event"
    },
    {
      "anonymous": false,
      "inputs": [
        {
          "indexed": false,
          "internalType": "address",
          "name": "_from",
          "type": "address"
        },
        {
          "indexed": false,
          "internalType": "address",
          "name": "_familyAddress",
          "type": "address"
        },
        {
          "indexed": false,
          "internalType": "uint256",
          "name": "_amountEth",
          "type": "uint256"
        },
        {
          "indexed": false,
          "internalType": "uint256",
          "name": "_cached",
          "type": "uint256"
        },
        {
          "indexed": false,
          "internalType": "uint256",
          "name": "_shares",
          "type": "uint256"
        }
      ],
      "name": "Invest",
      "type": "event"
    },
    {
      "anonymous": false,
      "inputs": [
        {
          "indexed": false,
          "internalType": "address",
          "name": "_from",
          "type": "address"
        },
        {
          "indexed": false,
          "internalType": "address",
          "name": "_familyAddress",
          "type": "address"
        },
        {
          "indexed": false,
          "internalType": "uint256",
          "name": "_amountEth",
          "type": "uint256"
        },
        {
          "indexed": false,
          "internalType": "uint256",
          "name": "_shares",
          "type": "uint256"
        }
      ],
      "name": "InvestInAFamily",
      "type": "event"
    },
    {
      "anonymous": false,
      "inputs": [
        {
          "indexed": false,
          "internalType": "address",
          "name": "_from",
          "type": "address"
        },
        {
          "indexed": false,
          "internalType": "address",
          "name": "_familyAddress",
          "type": "address"
        },
        {
          "indexed": false,
          "internalType": "uint256",
          "name": "_amountEth",
          "type": "uint256"
        },
        {
          "indexed": false,
          "internalType": "uint256",
          "name": "_shares",
          "type": "uint256"
        }
      ],
      "name": "InvestInAFamilyAddress",
      "type": "event"
    },
    {
      "anonymous": false,
      "inputs": [
        {
          "indexed": true,
          "internalType": "address",
          "name": "operator",
          "type": "address"
        },
        {
          "indexed": true,
          "internalType": "address",
          "name": "to",
          "type": "address"
        },
        {
          "indexed": false,
          "internalType": "uint256",
          "name": "amount",
          "type": "uint256"
        },
        {
          "indexed": false,
          "internalType": "bytes",
          "name": "data",
          "type": "bytes"
        },
        {
          "indexed": false,
          "internalType": "bytes",
          "name": "operatorData",
          "type": "bytes"
        }
      ],
      "name": "Minted",
      "type": "event"
    },
    {
      "anonymous": false,
      "inputs": [
        {
          "indexed": true,
          "internalType": "address",
          "name": "previousOwner",
          "type": "address"
        },
        {
          "indexed": true,
          "internalType": "address",
          "name": "newOwner",
          "type": "address"
        }
      ],
      "name": "OwnershipTransferred",
      "type": "event"
    },
    {
      "anonymous": false,
      "inputs": [
        {
          "indexed": false,
          "internalType": "address",
          "name": "",
          "type": "address"
        },
        {
          "indexed": false,
          "internalType": "uint256",
          "name": "",
          "type": "uint256"
        }
      ],
      "name": "Received",
      "type": "event"
    },
    {
      "anonymous": false,
      "inputs": [
        {
          "indexed": false,
          "internalType": "address",
          "name": "_from",
          "type": "address"
        },
        {
          "indexed": false,
          "internalType": "address",
          "name": "_familyAddress",
          "type": "address"
        },
        {
          "indexed": false,
          "internalType": "string",
          "name": "_familyNameStr",
          "type": "string"
        },
        {
          "indexed": false,
          "internalType": "bytes32",
          "name": "_familyName",
          "type": "bytes32"
        }
      ],
      "name": "Register",
      "type": "event"
    },
    {
      "anonymous": false,
      "inputs": [
        {
          "indexed": false,
          "internalType": "address",
          "name": "_from",
          "type": "address"
        },
        {
          "indexed": false,
          "internalType": "address",
          "name": "_familyAddress",
          "type": "address"
        },
        {
          "indexed": false,
          "internalType": "string",
          "name": "_familyNameStr",
          "type": "string"
        },
        {
          "indexed": false,
          "internalType": "bytes32",
          "name": "_familyNameB32",
          "type": "bytes32"
        }
      ],
      "name": "RegisterMember",
      "type": "event"
    },
    {
      "anonymous": false,
      "inputs": [
        {
          "indexed": true,
          "internalType": "address",
          "name": "operator",
          "type": "address"
        },
        {
          "indexed": true,
          "internalType": "address",
          "name": "tokenHolder",
          "type": "address"
        }
      ],
      "name": "RevokedOperator",
      "type": "event"
    },
    {
      "anonymous": false,
      "inputs": [
        {
          "indexed": true,
          "internalType": "address",
          "name": "operator",
          "type": "address"
        },
        {
          "indexed": true,
          "internalType": "address",
          "name": "from",
          "type": "address"
        },
        {
          "indexed": true,
          "internalType": "address",
          "name": "to",
          "type": "address"
        },
        {
          "indexed": false,
          "internalType": "uint256",
          "name": "amount",
          "type": "uint256"
        },
        {
          "indexed": false,
          "internalType": "bytes",
          "name": "data",
          "type": "bytes"
        },
        {
          "indexed": false,
          "internalType": "bytes",
          "name": "operatorData",
          "type": "bytes"
        }
      ],
      "name": "Sent",
      "type": "event"
    },
    {
      "anonymous": false,
      "inputs": [
        {
          "indexed": true,
          "internalType": "address",
          "name": "from",
          "type": "address"
        },
        {
          "indexed": true,
          "internalType": "address",
          "name": "to",
          "type": "address"
        },
        {
          "indexed": false,
          "internalType": "uint256",
          "name": "value",
          "type": "uint256"
        }
      ],
      "name": "Transfer",
      "type": "event"
    },
    {
      "anonymous": false,
      "inputs": [
        {
          "indexed": true,
          "internalType": "address",
          "name": "implementation",
          "type": "address"
        }
      ],
      "name": "Upgraded",
      "type": "event"
    },
    {
      "stateMutability": "payable",
      "type": "fallback"
    },
    {
      "inputs": [
        {
          "internalType": "address",
          "name": "holder",
          "type": "address"
        },
        {
          "internalType": "address",
          "name": "spender",
          "type": "address"
        }
      ],
      "name": "allowance",
      "outputs": [
        {
          "internalType": "uint256",
          "name": "",
          "type": "uint256"
        }
      ],
      "stateMutability": "view",
      "type": "function"
    },
    {
      "inputs": [
        {
          "internalType": "address",
          "name": "spender",
          "type": "address"
        },
        {
          "internalType": "uint256",
          "name": "value",
          "type": "uint256"
        }
      ],
      "name": "approve",
      "outputs": [
        {
          "internalType": "bool",
          "name": "",
          "type": "bool"
        }
      ],
      "stateMutability": "nonpayable",
      "type": "function"
    },
    {
      "inputs": [
        {
          "internalType": "address",
          "name": "operator",
          "type": "address"
        }
      ],
      "name": "authorizeOperator",
      "outputs": [],
      "stateMutability": "nonpayable",
      "type": "function"
    },
    {
      "inputs": [
        {
          "internalType": "address",
          "name": "tokenHolder",
          "type": "address"
        }
      ],
      "name": "balanceOf",
      "outputs": [
        {
          "internalType": "uint256",
          "name": "",
          "type": "uint256"
        }
      ],
      "stateMutability": "view",
      "type": "function"
    },
    {
      "inputs": [
        {
          "internalType": "uint256",
          "name": "amount",
          "type": "uint256"
        },
        {
          "internalType": "bytes",
          "name": "data",
          "type": "bytes"
        }
      ],
      "name": "burn",
      "outputs": [],
      "stateMutability": "nonpayable",
      "type": "function"
    },
    {
      "inputs": [],
      "name": "decimals",
      "outputs": [
        {
          "internalType": "uint8",
          "name": "",
          "type": "uint8"
        }
      ],
      "stateMutability": "pure",
      "type": "function"
    },
    {
      "inputs": [],
      "name": "defaultOperators",
      "outputs": [
        {
          "internalType": "address[]",
          "name": "",
          "type": "address[]"
        }
      ],
      "stateMutability": "view",
      "type": "function"
    },
    {
      "inputs": [],
      "name": "getEthUsdPrice",
      "outputs": [
        {
          "internalType": "int256",
          "name": "",
          "type": "int256"
        }
      ],
      "stateMutability": "view",
      "type": "function"
    },
    {
      "inputs": [],
      "name": "getEthUsdPriceDecimals",
      "outputs": [
        {
          "internalType": "uint8",
          "name": "",
          "type": "uint8"
        }
      ],
      "stateMutability": "view",
      "type": "function"
    },
    {
      "inputs": [],
      "name": "getXagUsdPrice",
      "outputs": [
        {
          "internalType": "int256",
          "name": "",
          "type": "int256"
        }
      ],
      "stateMutability": "view",
      "type": "function"
    },
    {
      "inputs": [],
      "name": "getXagUsdPriceDecimals",
      "outputs": [
        {
          "internalType": "uint8",
          "name": "",
          "type": "uint8"
        }
      ],
      "stateMutability": "view",
      "type": "function"
    },
    {
      "inputs": [],
      "name": "granularity",
      "outputs": [
        {
          "internalType": "uint256",
          "name": "",
          "type": "uint256"
        }
      ],
      "stateMutability": "view",
      "type": "function"
    },
    {
      "inputs": [
        {
          "internalType": "uint256",
          "name": "amount",
          "type": "uint256"
        }
      ],
      "name": "hTAGxDollars",
      "outputs": [
        {
          "internalType": "uint256",
          "name": "result",
          "type": "uint256"
        }
      ],
      "stateMutability": "view",
      "type": "function"
    },
    {
      "inputs": [
        {
          "internalType": "uint256",
          "name": "initialSupply",
          "type": "uint256"
        },
        {
          "internalType": "address[]",
          "name": "defaultOperators",
          "type": "address[]"
        }
      ],
      "name": "initialize",
      "outputs": [],
      "stateMutability": "nonpayable",
      "type": "function"
    },
    {
      "inputs": [
        {
          "internalType": "address",
          "name": "operator",
          "type": "address"
        },
        {
          "internalType": "address",
          "name": "tokenHolder",
          "type": "address"
        }
      ],
      "name": "isOperatorFor",
      "outputs": [
        {
          "internalType": "bool",
          "name": "",
          "type": "bool"
        }
      ],
      "stateMutability": "view",
      "type": "function"
    },
    {
      "inputs": [],
      "name": "name",
      "outputs": [
        {
          "internalType": "string",
          "name": "",
          "type": "string"
        }
      ],
      "stateMutability": "view",
      "type": "function"
    },
    {
      "inputs": [
        {
          "internalType": "address",
          "name": "account",
          "type": "address"
        },
        {
          "internalType": "uint256",
          "name": "amount",
          "type": "uint256"
        },
        {
          "internalType": "bytes",
          "name": "data",
          "type": "bytes"
        },
        {
          "internalType": "bytes",
          "name": "operatorData",
          "type": "bytes"
        }
      ],
      "name": "operatorBurn",
      "outputs": [],
      "stateMutability": "nonpayable",
      "type": "function"
    },
    {
      "inputs": [
        {
          "internalType": "address",
          "name": "sender",
          "type": "address"
        },
        {
          "internalType": "address",
          "name": "recipient",
          "type": "address"
        },
        {
          "internalType": "uint256",
          "name": "amount",
          "type": "uint256"
        },
        {
          "internalType": "bytes",
          "name": "data",
          "type": "bytes"
        },
        {
          "internalType": "bytes",
          "name": "operatorData",
          "type": "bytes"
        }
      ],
      "name": "operatorSend",
      "outputs": [],
      "stateMutability": "nonpayable",
      "type": "function"
    },
    {
      "inputs": [],
      "name": "owner",
      "outputs": [
        {
          "internalType": "address",
          "name": "",
          "type": "address"
        }
      ],
      "stateMutability": "view",
      "type": "function"
    },
    {
      "inputs": [],
      "name": "renounceOwnership",
      "outputs": [],
      "stateMutability": "nonpayable",
      "type": "function"
    },
    {
      "inputs": [
        {
          "internalType": "address",
          "name": "operator",
          "type": "address"
        }
      ],
      "name": "revokeOperator",
      "outputs": [],
      "stateMutability": "nonpayable",
      "type": "function"
    },
    {
      "inputs": [
        {
          "internalType": "address",
          "name": "recipient",
          "type": "address"
        },
        {
          "internalType": "uint256",
          "name": "amount",
          "type": "uint256"
        },
        {
          "internalType": "bytes",
          "name": "data",
          "type": "bytes"
        }
      ],
      "name": "send",
      "outputs": [],
      "stateMutability": "nonpayable",
      "type": "function"
    },
    {
      "inputs": [],
      "name": "symbol",
      "outputs": [
        {
          "internalType": "string",
          "name": "",
          "type": "string"
        }
      ],
      "stateMutability": "view",
      "type": "function"
    },
    {
      "inputs": [
        {
          "internalType": "uint256",
          "name": "amount",
          "type": "uint256"
        }
      ],
      "name": "testImperialPrinciples",
      "outputs": [
        {
          "internalType": "uint256",
          "name": "result",
          "type": "uint256"
        }
      ],
      "stateMutability": "view",
      "type": "function"
    },
    {
      "inputs": [],
      "name": "totalSupply",
      "outputs": [
        {
          "internalType": "uint256",
          "name": "",
          "type": "uint256"
        }
      ],
      "stateMutability": "view",
      "type": "function"
    },
    {
      "inputs": [
        {
          "internalType": "address",
          "name": "recipient",
          "type": "address"
        },
        {
          "internalType": "uint256",
          "name": "amount",
          "type": "uint256"
        }
      ],
      "name": "transfer",
      "outputs": [
        {
          "internalType": "bool",
          "name": "",
          "type": "bool"
        }
      ],
      "stateMutability": "nonpayable",
      "type": "function"
    },
    {
      "inputs": [
        {
          "internalType": "address",
          "name": "holder",
          "type": "address"
        },
        {
          "internalType": "address",
          "name": "recipient",
          "type": "address"
        },
        {
          "internalType": "uint256",
          "name": "amount",
          "type": "uint256"
        }
      ],
      "name": "transferFrom",
      "outputs": [
        {
          "internalType": "bool",
          "name": "",
          "type": "bool"
        }
      ],
      "stateMutability": "nonpayable",
      "type": "function"
    },
    {
      "inputs": [
        {
          "internalType": "address",
          "name": "newOwner",
          "type": "address"
        }
      ],
      "name": "transferOwnership",
      "outputs": [],
      "stateMutability": "nonpayable",
      "type": "function"
    },
    {
      "inputs": [
        {
          "internalType": "address",
          "name": "newImplementation",
          "type": "address"
        }
      ],
      "name": "upgradeTo",
      "outputs": [],
      "stateMutability": "nonpayable",
      "type": "function"
    },
    {
      "inputs": [
        {
          "internalType": "address",
          "name": "newImplementation",
          "type": "address"
        },
        {
          "internalType": "bytes",
          "name": "data",
          "type": "bytes"
        }
      ],
      "name": "upgradeToAndCall",
      "outputs": [],
      "stateMutability": "payable",
      "type": "function"
    },
    {
      "inputs": [],
      "name": "withdraw",
      "outputs": [],
      "stateMutability": "nonpayable",
      "type": "function"
    },
    {
      "stateMutability": "payable",
      "type": "receive"
    },
    {
      "inputs": [
        {
          "internalType": "uint256",
          "name": "amount",
          "type": "uint256"
        }
      ],
      "name": "testBiblicalPrinciples",
      "outputs": [
        {
          "internalType": "uint256",
          "name": "result",
          "type": "uint256"
        }
      ],
      "stateMutability": "view",
      "type": "function"
    },
    {
      "inputs": [
        {
          "internalType": "address",
          "name": "_storeHouseAddress",
          "type": "address"
        }
      ],
      "name": "setStoreHouseAddress",
      "outputs": [],
      "stateMutability": "nonpayable",
      "type": "function"
    },
    {
      "inputs": [
        {
          "internalType": "string",
          "name": "_familyName",
          "type": "string"
        }
      ],
      "name": "getFamilyAddress",
      "outputs": [
        {
          "internalType": "address",
          "name": "",
          "type": "address"
        }
      ],
      "stateMutability": "pure",
      "type": "function"
    },
    {
      "inputs": [],
      "name": "getCallerFamilyAddress",
      "outputs": [
        {
          "internalType": "address",
          "name": "",
          "type": "address"
        }
      ],
      "stateMutability": "view",
      "type": "function"
    },
    {
      "inputs": [
        {
          "internalType": "address",
          "name": "_familyAddress",
          "type": "address"
        }
      ],
      "name": "getFamilyName",
      "outputs": [
        {
          "internalType": "string",
          "name": "",
          "type": "string"
        }
      ],
      "stateMutability": "view",
      "type": "function"
    },
    {
      "inputs": [
        {
          "internalType": "address",
          "name": "_userAddress",
          "type": "address"
        }
      ],
      "name": "getUserFamilyName",
      "outputs": [
        {
          "internalType": "string",
          "name": "",
          "type": "string"
        }
      ],
      "stateMutability": "view",
      "type": "function"
    },
    {
      "inputs": [],
      "name": "getMyFamilyName",
      "outputs": [
        {
          "internalType": "string",
          "name": "",
          "type": "string"
        }
      ],
      "stateMutability": "view",
      "type": "function"
    },
    {
      "inputs": [
        {
          "internalType": "string",
          "name": "_familyName",
          "type": "string"
        }
      ],
      "name": "getFamilyBalance",
      "outputs": [
        {
          "internalType": "uint256",
          "name": "",
          "type": "uint256"
        }
      ],
      "stateMutability": "view",
      "type": "function"
    },
    {
      "inputs": [],
      "name": "getMyFamilyBalance",
      "outputs": [
        {
          "internalType": "uint256",
          "name": "",
          "type": "uint256"
        }
      ],
      "stateMutability": "view",
      "type": "function"
    },
    {
      "inputs": [
        {
          "internalType": "string",
          "name": "_familyName",
          "type": "string"
        }
      ],
      "name": "register",
      "outputs": [
        {
          "internalType": "address",
          "name": "",
          "type": "address"
        }
      ],
      "stateMutability": "nonpayable",
      "type": "function"
    },
    {
      "inputs": [
        {
          "internalType": "address",
          "name": "_userAddress",
          "type": "address"
        },
        {
          "internalType": "string",
          "name": "_familyName",
          "type": "string"
        }
      ],
      "name": "registerMember",
      "outputs": [
        {
          "internalType": "address",
          "name": "",
          "type": "address"
        }
      ],
      "stateMutability": "nonpayable",
      "type": "function"
    },
    {
      "inputs": [],
      "name": "invest",
      "outputs": [
        {
          "internalType": "address",
          "name": "",
          "type": "address"
        }
      ],
      "stateMutability": "payable",
      "type": "function"
    },
    {
      "inputs": [
        {
          "internalType": "string",
          "name": "_familyName",
          "type": "string"
        }
      ],
      "name": "investInAFamily",
      "outputs": [
        {
          "internalType": "bool",
          "name": "",
          "type": "bool"
        }
      ],
      "stateMutability": "payable",
      "type": "function"
    },
    {
      "inputs": [
        {
          "internalType": "address",
          "name": "_familyAddress",
          "type": "address"
        }
      ],
      "name": "investInAFamilyAddress",
      "outputs": [
        {
          "internalType": "string",
          "name": "",
          "type": "string"
        }
      ],
      "stateMutability": "payable",
      "type": "function"
    },
    {
      "inputs": [],
      "name": "getContractStableDollarsBalance",
      "outputs": [
        {
          "internalType": "uint256",
          "name": "",
          "type": "uint256"
        }
      ],
      "stateMutability": "view",
      "type": "function"
    },
    {
      "inputs": [
        {
          "internalType": "uint256",
          "name": "_amount",
          "type": "uint256"
        }
      ],
      "name": "sendEthToStableDollarsContract",
      "outputs": [],
      "stateMutability": "nonpayable",
      "type": "function"
    },
    {
      "inputs": [
        {
          "internalType": "address",
          "name": "_to",
          "type": "address"
        },
        {
          "internalType": "uint256",
          "name": "_amount",
          "type": "uint256"
        }
      ],
      "name": "sendStableDollars",
      "outputs": [],
      "stateMutability": "nonpayable",
      "type": "function"
    },
    {
      "inputs": [],
      "name": "totalContractBalance",
      "outputs": [
        {
          "internalType": "uint256",
          "name": "",
          "type": "uint256"
        }
      ],
      "stateMutability": "view",
      "type": "function"
    },
    {
      "inputs": [
        {
          "internalType": "uint256",
          "name": "amount",
          "type": "uint256"
        }
      ],
      "name": "withdrawSome",
      "outputs": [],
      "stateMutability": "nonpayable",
      "type": "function"
    },
    {
      "inputs": [],
      "name": "withdrawAll",
      "outputs": [],
      "stateMutability": "nonpayable",
      "type": "function"
    }
  ],
  "bytecode": "0x6080604052604051806080016040528060058152602001600a8152602001600c8152602001630178e4a681525060fd600082015181600001556020820151816001015560408201518160020155606082015181600301555050733d2aec4725b69e4fc5c1d9d75acbfacc1a4de4f561010160006101000a81548173ffffffffffffffffffffffffffffffffffffffff021916908373ffffffffffffffffffffffffffffffffffffffff16021790555061010160009054906101000a900473ffffffffffffffffffffffffffffffffffffffff1661010260006101000a81548173ffffffffffffffffffffffffffffffffffffffff021916908373ffffffffffffffffffffffffffffffffffffffff160217905550737125fc5f7b09330a37d863fab18aebfddf9f538261010460006101000a81548173ffffffffffffffffffffffffffffffffffffffff021916908373ffffffffffffffffffffffffffffffffffffffff1602179055503480156200017657600080fd5b5061850780620001876000396000f3fe6080604052600436106102e85760003560e01c8063959b8c3f11610190578063d95b6371116100dc578063ef731fba11610095578063f2fde38b1161006f578063f2fde38b14610ca4578063fad8b32a14610ccd578063fc673c4f14610cf6578063fe9d930314610d1f5761037f565b8063ef731fba14610c01578063f09eb93c14610c2a578063f2c298be14610c675761037f565b8063d95b637114610ae5578063db95400a14610b22578063dd62ed3e14610b4b578063e1bf83bb14610b88578063e8b5e51f14610bb3578063ecce401714610bd15761037f565b8063aa4d0a3211610149578063bac03cd711610123578063bac03cd714610a39578063bef93bcc14610a64578063c05aad0614610a8f578063c353feed14610aba5761037f565b8063aa4d0a32146109aa578063ae9b051c146109d3578063afbcabbc146109fc5761037f565b8063959b8c3f1461089c57806395d89b41146108c55780639bd9bbc6146108f0578063a0a8045e14610919578063a9059cbb14610944578063a920b78c146109815761037f565b80634f1ef2861161024f5780636f6b33f91161020857806374cb5827116101e257806374cb5827146107f2578063853828b61461081d5780638da5cb5b14610834578063948bd0dd1461085f5761037f565b80636f6b33f91461076e57806370a082311461079e578063715018a6146107db5761037f565b80634f1ef28614610659578063556f0dc71461067557806355d195fa146106a057806362313171146106dd57806362ad1b83146107085780636af1e3c2146107315761037f565b80631d54ce55116102a15780631d54ce551461054957806323b872dd146105865780632841a1c5146105c3578063313ce567146105ee5780633659cfe6146106195780633ccfd60b146106425761037f565b806306e485381461041157806306fdde031461043c578063095ea7b3146104675780630aa5adfc146104a4578063119aa4f8146104e157806318160ddd1461051e5761037f565b3661037f573461010360003373ffffffffffffffffffffffffffffffffffffffff1673ffffffffffffffffffffffffffffffffffffffff168152602001908152602001600020600082825461033d919061760c565b925050819055507f88a5966d370b9919b20f3e2c13ff65706f196a4e32cc2c12bf57088f885258743334604051610375929190616fa6565b60405180910390a1005b3461010360003373ffffffffffffffffffffffffffffffffffffffff1673ffffffffffffffffffffffffffffffffffffffff16815260200190815260200160002060008282546103cf919061760c565b925050819055507fdd0c6dcd8a41c79db8ee6a77fcbc237d2b36d3ae392e7902ed2583cbed684b5c3334604051610407929190616fa6565b60405180910390a1005b34801561041d57600080fd5b50610426610d48565b6040516104339190616fcf565b60405180910390f35b34801561044857600080fd5b50610451610dd6565b60405161045e9190617064565b60405180910390f35b34801561047357600080fd5b5061048e600480360381019061048991906163b9565b610e68565b60405161049b9190616ff1565b60405180910390f35b3480156104b057600080fd5b506104cb60048036038101906104c69190616365565b610e8b565b6040516104d89190616dd8565b60405180910390f35b3480156104ed57600080fd5b50610508600480360381019061050391906165c3565b611164565b6040516105159190617446565b60405180910390f35b34801561052a57600080fd5b506105336111ba565b6040516105409190617446565b60405180910390f35b34801561055557600080fd5b50610570600480360381019061056b919061618d565b6111c4565b60405161057d9190617064565b60405180910390f35b34801561059257600080fd5b506105ad60048036038101906105a8919061621b565b611299565b6040516105ba9190616ff1565b60405180910390f35b3480156105cf57600080fd5b506105d86114f3565b6040516105e59190616dd8565b60405180910390f35b3480156105fa57600080fd5b5061060361155b565b60405161061091906174a6565b60405180910390f35b34801561062557600080fd5b50610640600480360381019061063b919061618d565b611564565b005b34801561064e57600080fd5b5061065761158b565b005b610673600480360381019061066e9190616311565b6116e3565b005b34801561068157600080fd5b5061068a6116fc565b6040516106979190617446565b60405180910390f35b3480156106ac57600080fd5b506106c760048036038101906106c29190616541565b611705565b6040516106d49190617446565b60405180910390f35b3480156106e957600080fd5b506106f2611724565b6040516106ff9190617446565b60405180910390f35b34801561071457600080fd5b5061072f600480360381019061072a919061626a565b611799565b005b34801561073d57600080fd5b50610758600480360381019061075391906165c3565b6117ff565b6040516107659190617446565b60405180910390f35b61078860048036038101906107839190616541565b611895565b6040516107959190616ff1565b60405180910390f35b3480156107aa57600080fd5b506107c560048036038101906107c0919061618d565b611c91565b6040516107d29190617446565b60405180910390f35b3480156107e757600080fd5b506107f0611cda565b005b3480156107fe57600080fd5b50610807611d62565b6040516108149190617446565b60405180910390f35b34801561082957600080fd5b50610832611e15565b005b34801561084057600080fd5b50610849611ee0565b6040516108569190616dd8565b60405180910390f35b34801561086b57600080fd5b50610886600480360381019061088191906165c3565b611f0a565b6040516108939190617446565b60405180910390f35b3480156108a857600080fd5b506108c360048036038101906108be919061618d565b611f9b565b005b3480156108d157600080fd5b506108da6121fc565b6040516108e79190617064565b60405180910390f35b3480156108fc57600080fd5b50610917600480360381019061091291906163f5565b61228e565b005b34801561092557600080fd5b5061092e6122b8565b60405161093b9190617027565b60405180910390f35b34801561095057600080fd5b5061096b600480360381019061096691906163b9565b612376565b6040516109789190616ff1565b60405180910390f35b34801561098d57600080fd5b506109a860048036038101906109a39190616615565b612484565b005b3480156109b657600080fd5b506109d160048036038101906109cc91906165c3565b6126b8565b005b3480156109df57600080fd5b506109fa60048036038101906109f591906165c3565b61284d565b005b348015610a0857600080fd5b50610a236004803603810190610a1e9190616541565b612956565b604051610a309190616dd8565b60405180910390f35b348015610a4557600080fd5b50610a4e61298e565b604051610a5b9190617446565b60405180910390f35b348015610a7057600080fd5b50610a79612996565b604051610a8691906174a6565b60405180910390f35b348015610a9b57600080fd5b50610aa4612a3d565b604051610ab19190617064565b60405180910390f35b348015610ac657600080fd5b50610acf612b76565b604051610adc91906174a6565b60405180910390f35b348015610af157600080fd5b50610b0c6004803603810190610b0791906161df565b612c1d565b604051610b199190616ff1565b60405180910390f35b348015610b2e57600080fd5b50610b496004803603810190610b44919061618d565b612dce565b005b348015610b5757600080fd5b50610b726004803603810190610b6d91906161df565b612ecb565b604051610b7f9190617446565b60405180910390f35b348015610b9457600080fd5b50610b9d612f52565b604051610baa9190617027565b60405180910390f35b610bbb613010565b604051610bc89190616dd8565b60405180910390f35b610beb6004803603810190610be6919061618d565b613473565b604051610bf89190617064565b60405180910390f35b348015610c0d57600080fd5b50610c286004803603810190610c2391906163b9565b6137d2565b005b348015610c3657600080fd5b50610c516004803603810190610c4c919061618d565b6139f1565b604051610c5e9190617064565b60405180910390f35b348015610c7357600080fd5b50610c8e6004803603810190610c899190616541565b613b2c565b604051610c9b9190616dd8565b60405180910390f35b348015610cb057600080fd5b50610ccb6004803603810190610cc6919061618d565b613e04565b005b348015610cd957600080fd5b50610cf46004803603810190610cef919061618d565b613efc565b005b348015610d0257600080fd5b50610d1d6004803603810190610d18919061645c565b61415d565b005b348015610d2b57600080fd5b50610d466004803603810190610d419190616669565b6141bf565b005b60606037805480602002602001604051908101604052809291908181526020018280548015610dcc57602002820191906000526020600020905b8160009054906101000a900473ffffffffffffffffffffffffffffffffffffffff1673ffffffffffffffffffffffffffffffffffffffff1681526020019060010190808311610d82575b5050505050905090565b606060358054610de59061798a565b80601f0160208091040260200160405190810160405280929190818152602001828054610e119061798a565b8015610e5e5780601f10610e3357610100808354040283529160200191610e5e565b820191906000526020600020905b815481529060010190602001808311610e4157829003601f168201915b5050505050905090565b600080610e736141e5565b9050610e808185856141ed565b600191505092915050565b600061010760003373ffffffffffffffffffffffffffffffffffffffff1673ffffffffffffffffffffffffffffffffffffffff16815260200190815260200160002060009054906101000a900460ff1615610f1b576040517f08c379a0000000000000000000000000000000000000000000000000000000008152600401610f12906172a6565b60405180910390fd5b6000610f2683612956565b905060008060001b61010560008473ffffffffffffffffffffffffffffffffffffffff1673ffffffffffffffffffffffffffffffffffffffff1681526020019081526020016000205414156110445773__StringsAndBytes_______________________63cfb51928856040518263ffffffff1660e01b8152600401610fac9190617042565b60206040518083038186803b158015610fc457600080fd5b505af4158015610fd8573d6000803e3d6000fd5b505050506040513d601f19601f82011682018060405250810190610ffc9190616518565b90508061010560008473ffffffffffffffffffffffffffffffffffffffff1673ffffffffffffffffffffffffffffffffffffffff168152602001908152602001600020819055505b8161010660008773ffffffffffffffffffffffffffffffffffffffff1673ffffffffffffffffffffffffffffffffffffffff16815260200190815260200160002060006101000a81548173ffffffffffffffffffffffffffffffffffffffff021916908373ffffffffffffffffffffffffffffffffffffffff160217905550600161010760008773ffffffffffffffffffffffffffffffffffffffff1673ffffffffffffffffffffffffffffffffffffffff16815260200190815260200160002060006101000a81548160ff0219169083151502179055507f87d8ff94adf20d0e82a6b2cf8775bbfa670cf635a81cc8effb62961a8a4881a6858386846040516111519493929190616e62565b60405180910390a1819250505092915050565b60006008611170612996565b61117a9190617662565b600a611186919061771d565b61118e612f52565b60fd6003015461119e919061783b565b836111a9919061783b565b6111b39190617699565b9050919050565b6000603454905090565b606073__StringsAndBytes_______________________639201de5561010560008573ffffffffffffffffffffffffffffffffffffffff1673ffffffffffffffffffffffffffffffffffffffff168152602001908152602001600020546040518263ffffffff1660e01b815260040161123d919061700c565b60006040518083038186803b15801561125557600080fd5b505af4158015611269573d6000803e3d6000fd5b505050506040513d6000823e3d601f19601f820116820180604052508101906112929190616582565b9050919050565b60008073ffffffffffffffffffffffffffffffffffffffff168373ffffffffffffffffffffffffffffffffffffffff16141561130a576040517f08c379a000000000000000000000000000000000000000000000000000000000815260040161130190617346565b60405180910390fd5b600073ffffffffffffffffffffffffffffffffffffffff168473ffffffffffffffffffffffffffffffffffffffff16141561137a576040517f08c379a0000000000000000000000000000000000000000000000000000000008152600401611371906173c6565b60405180910390fd5b60006113846141e5565b90506113b28186868660405180602001604052806000815250604051806020016040528060008152506143b8565b6113de81868686604051806020016040528060008152506040518060200160405280600081525061452e565b6000603b60008773ffffffffffffffffffffffffffffffffffffffff1673ffffffffffffffffffffffffffffffffffffffff16815260200190815260200160002060008373ffffffffffffffffffffffffffffffffffffffff1673ffffffffffffffffffffffffffffffffffffffff168152602001908152602001600020549050838110156114a2576040517f08c379a0000000000000000000000000000000000000000000000000000000008152600401611499906173a6565b60405180910390fd5b6114b8868386846114b39190617895565b6141ed565b6114e6828787876040518060200160405280600081525060405180602001604052806000815250600061474b565b6001925050509392505050565b600061010660003373ffffffffffffffffffffffffffffffffffffffff1673ffffffffffffffffffffffffffffffffffffffff16815260200190815260200160002060009054906101000a900473ffffffffffffffffffffffffffffffffffffffff16905090565b60006012905090565b61156d8161492c565b611588816040518060200160405280600081525060006149ab565b50565b600061010360003373ffffffffffffffffffffffffffffffffffffffff1673ffffffffffffffffffffffffffffffffffffffff168152602001908152602001600020541161160e576040517f08c379a000000000000000000000000000000000000000000000000000000000815260040161160590617206565b60405180910390fd5b600061010360003373ffffffffffffffffffffffffffffffffffffffff1673ffffffffffffffffffffffffffffffffffffffff168152602001908152602001600020549050600061010360003373ffffffffffffffffffffffffffffffffffffffff1673ffffffffffffffffffffffffffffffffffffffff168152602001908152602001600020819055503373ffffffffffffffffffffffffffffffffffffffff166108fc829081150290604051600060405180830381858888f193505050501580156116df573d6000803e3d6000fd5b5050565b6116ec8261492c565b6116f8828260016149ab565b5050565b60006001905090565b60008061171183612956565b905061171c81611c91565b915050919050565b60008061010660003373ffffffffffffffffffffffffffffffffffffffff1673ffffffffffffffffffffffffffffffffffffffff16815260200190815260200160002060009054906101000a900473ffffffffffffffffffffffffffffffffffffffff16905061179381611c91565b91505090565b6117aa6117a46141e5565b86612c1d565b6117e9576040517f08c379a00000000000000000000000000000000000000000000000000000000081526004016117e090617386565b60405180910390fd5b6117f885858585856001614b7c565b5050505050565b60008061271061181784611813919061783b565b61181d9190617699565b9050600060fd60000154846118329190617699565b9050600061271061034186611847919061783b565b6118519190617699565b9050600060fd60010154866118669190617699565b905080828486611876919061760c565b611880919061760c565b61188a919061760c565b945050505050919050565b60008073ffffffffffffffffffffffffffffffffffffffff163373ffffffffffffffffffffffffffffffffffffffff161415611906576040517f08c379a00000000000000000000000000000000000000000000000000000000081526004016118fd906171a6565b60405180910390fd5b6000611910612b76565b600a61191c919061771d565b6119246122b8565b3461192f919061783b565b6119399190617699565b905060006008611947612996565b6119519190617662565b600a61195d919061771d565b611965612f52565b60fd60030154611975919061783b565b61197f9190617699565b8261198a9190617699565b90506000612710611bff8361199f919061783b565b6119a99190617699565b9050600060fd60000154836119be9190617699565b90506000612710610341856119d3919061783b565b6119dd9190617699565b905060006119ea88612956565b905060008060001b61010560008473ffffffffffffffffffffffffffffffffffffffff1673ffffffffffffffffffffffffffffffffffffffff168152602001908152602001600020541415611b085773__StringsAndBytes_______________________63cfb519288a6040518263ffffffff1660e01b8152600401611a709190617042565b60206040518083038186803b158015611a8857600080fd5b505af4158015611a9c573d6000803e3d6000fd5b505050506040513d601f19601f82011682018060405250810190611ac09190616518565b90508061010560008473ffffffffffffffffffffffffffffffffffffffff1673ffffffffffffffffffffffffffffffffffffffff168152602001908152602001600020819055505b611b3282866040518060200160405280600081525060405180602001604052806000815250614c9c565b611b7f61010460009054906101000a900473ffffffffffffffffffffffffffffffffffffffff16856040518060200160405280600081525060405180602001604052806000815250614c9c565b611bb0611b8a611ee0565b846040518060200160405280600081525060405180602001604052806000815250614c9c565b8461010860008473ffffffffffffffffffffffffffffffffffffffff1673ffffffffffffffffffffffffffffffffffffffff16815260200190815260200160002060003373ffffffffffffffffffffffffffffffffffffffff1673ffffffffffffffffffffffffffffffffffffffff1681526020019081526020016000206000828254611c3d919061760c565b925050819055507f839e7d1737459ee6d0fd538104a7a1212acab6ea329c073d73302f62b36663d033833488604051611c799493929190616eae565b60405180910390a16001975050505050505050919050565b6000603360008373ffffffffffffffffffffffffffffffffffffffff1673ffffffffffffffffffffffffffffffffffffffff168152602001908152602001600020549050919050565b611ce26141e5565b73ffffffffffffffffffffffffffffffffffffffff16611d00611ee0565b73ffffffffffffffffffffffffffffffffffffffff1614611d56576040517f08c379a0000000000000000000000000000000000000000000000000000000008152600401611d4d90617306565b60405180910390fd5b611d606000614cb0565b565b600061010260009054906101000a900473ffffffffffffffffffffffffffffffffffffffff1673ffffffffffffffffffffffffffffffffffffffff166370a08231306040518263ffffffff1660e01b8152600401611dc09190616dd8565b60206040518083038186803b158015611dd857600080fd5b505afa158015611dec573d6000803e3d6000fd5b505050506040513d601f19601f82011682018060405250810190611e1091906165ec565b905090565b611e1d6141e5565b73ffffffffffffffffffffffffffffffffffffffff16611e3b611ee0565b73ffffffffffffffffffffffffffffffffffffffff1614611e91576040517f08c379a0000000000000000000000000000000000000000000000000000000008152600401611e8890617306565b60405180910390fd5b60004790503373ffffffffffffffffffffffffffffffffffffffff166108fc829081150290604051600060405180830381858888f19350505050158015611edc573d6000803e3d6000fd5b5050565b6000606560009054906101000a900473ffffffffffffffffffffffffffffffffffffffff16905090565b600080611f15612b76565b600a611f21919061771d565b611f296122b8565b84611f34919061783b565b611f3e9190617699565b905060006008611f4c612996565b611f569190617662565b600a611f62919061771d565b611f6a612f52565b60fd60030154611f7a919061783b565b611f849190617699565b82611f8f9190617699565b90508092505050919050565b8073ffffffffffffffffffffffffffffffffffffffff16611fba6141e5565b73ffffffffffffffffffffffffffffffffffffffff161415612011576040517f08c379a0000000000000000000000000000000000000000000000000000000008152600401612008906171e6565b60405180910390fd5b603860008273ffffffffffffffffffffffffffffffffffffffff1673ffffffffffffffffffffffffffffffffffffffff16815260200190815260200160002060009054906101000a900460ff16156120fb57603a600061206f6141e5565b73ffffffffffffffffffffffffffffffffffffffff1673ffffffffffffffffffffffffffffffffffffffff16815260200190815260200160002060008273ffffffffffffffffffffffffffffffffffffffff1673ffffffffffffffffffffffffffffffffffffffff16815260200190815260200160002060006101000a81549060ff0219169055612198565b6001603960006121096141e5565b73ffffffffffffffffffffffffffffffffffffffff1673ffffffffffffffffffffffffffffffffffffffff16815260200190815260200160002060008373ffffffffffffffffffffffffffffffffffffffff1673ffffffffffffffffffffffffffffffffffffffff16815260200190815260200160002060006101000a81548160ff0219169083151502179055505b6121a06141e5565b73ffffffffffffffffffffffffffffffffffffffff168173ffffffffffffffffffffffffffffffffffffffff167ff4caeb2d6ca8932a215a353d0703c326ec2d81fc68170f320eb2ab49e9df61f960405160405180910390a350565b60606036805461220b9061798a565b80601f01602080910402602001604051908101604052809291908181526020018280546122379061798a565b80156122845780601f1061225957610100808354040283529160200191612284565b820191906000526020600020905b81548152906001019060200180831161226757829003601f168201915b5050505050905090565b6122b36122996141e5565b848484604051806020016040528060008152506001614b7c565b505050565b60008060008060008060fb60009054906101000a900473ffffffffffffffffffffffffffffffffffffffff1673ffffffffffffffffffffffffffffffffffffffff1663feaf968c6040518163ffffffff1660e01b815260040160a06040518083038186803b15801561232957600080fd5b505afa15801561233d573d6000803e3d6000fd5b505050506040513d601f19601f8201168201806040525081019061236191906166bd565b94509450945094509450839550505050505090565b60008073ffffffffffffffffffffffffffffffffffffffff168373ffffffffffffffffffffffffffffffffffffffff1614156123e7576040517f08c379a00000000000000000000000000000000000000000000000000000000081526004016123de90617346565b60405180910390fd5b60006123f16141e5565b905061241f8182868660405180602001604052806000815250604051806020016040528060008152506143b8565b61244b81828686604051806020016040528060008152506040518060200160405280600081525061452e565b612479818286866040518060200160405280600081525060405180602001604052806000815250600061474b565b600191505092915050565b600060019054906101000a900460ff16806124aa575060008054906101000a900460ff16155b6124e9576040517f08c379a00000000000000000000000000000000000000000000000000000000081526004016124e090617286565b60405180910390fd5b60008060019054906101000a900460ff161590508015612539576001600060016101000a81548160ff02191690831515021790555060016000806101000a81548160ff0219169083151502179055505b6125ae6040518060400160405280600e81526020017f4d6564536861726520546f6b656e0000000000000000000000000000000000008152506040518060400160405280600481526020017f4d4453540000000000000000000000000000000000000000000000000000000081525084614d76565b6125b6614e65565b6125be614f4e565b738a753747a1fa494ec906ce90e9f37563a8af630e60fb60006101000a81548173ffffffffffffffffffffffffffffffffffffffff021916908373ffffffffffffffffffffffffffffffffffffffff160217905550739c1946428f4f159db4889aa6b218833f467e1bfd60fc60006101000a81548173ffffffffffffffffffffffffffffffffffffffff021916908373ffffffffffffffffffffffffffffffffffffffff16021790555061269233846040518060200160405280600081525060405180602001604052806000815250614c9c565b80156126b35760008060016101000a81548160ff0219169083151502179055505b505050565b6126c06141e5565b73ffffffffffffffffffffffffffffffffffffffff166126de611ee0565b73ffffffffffffffffffffffffffffffffffffffff1614612734576040517f08c379a000000000000000000000000000000000000000000000000000000000815260040161272b90617306565b60405180910390fd5b80471015612777576040517f08c379a000000000000000000000000000000000000000000000000000000000815260040161276e906170e6565b60405180910390fd5b60008061010260009054906101000a900473ffffffffffffffffffffffffffffffffffffffff1673ffffffffffffffffffffffffffffffffffffffff16836040516127c190616dc3565b60006040518083038185875af1925050503d80600081146127fe576040519150601f19603f3d011682016040523d82523d6000602084013e612803565b606091505b509150915081612848576040517f08c379a000000000000000000000000000000000000000000000000000000000815260040161283f90617226565b60405180910390fd5b505050565b6128556141e5565b73ffffffffffffffffffffffffffffffffffffffff16612873611ee0565b73ffffffffffffffffffffffffffffffffffffffff16146128c9576040517f08c379a00000000000000000000000000000000000000000000000000000000081526004016128c090617306565b60405180910390fd5b8047101561290c576040517f08c379a0000000000000000000000000000000000000000000000000000000008152600401612903906170e6565b60405180910390fd5b3373ffffffffffffffffffffffffffffffffffffffff166108fc829081150290604051600060405180830381858888f19350505050158015612952573d6000803e3d6000fd5b5050565b6000808260405160200161296a9190616dac565b6040516020818303038152906040528051906020012090508060001c915050919050565b600047905090565b600060fc60009054906101000a900473ffffffffffffffffffffffffffffffffffffffff1673ffffffffffffffffffffffffffffffffffffffff1663313ce5676040518163ffffffff1660e01b815260040160206040518083038186803b158015612a0057600080fd5b505afa158015612a14573d6000803e3d6000fd5b505050506040513d601f19601f82011682018060405250810190612a389190616734565b905090565b6060600061010660003373ffffffffffffffffffffffffffffffffffffffff1673ffffffffffffffffffffffffffffffffffffffff16815260200190815260200160002060009054906101000a900473ffffffffffffffffffffffffffffffffffffffff16905073__StringsAndBytes_______________________639201de5561010560008473ffffffffffffffffffffffffffffffffffffffff1673ffffffffffffffffffffffffffffffffffffffff168152602001908152602001600020546040518263ffffffff1660e01b8152600401612b1b919061700c565b60006040518083038186803b158015612b3357600080fd5b505af4158015612b47573d6000803e3d6000fd5b505050506040513d6000823e3d601f19601f82011682018060405250810190612b709190616582565b91505090565b600060fb60009054906101000a900473ffffffffffffffffffffffffffffffffffffffff1673ffffffffffffffffffffffffffffffffffffffff1663313ce5676040518163ffffffff1660e01b815260040160206040518083038186803b158015612be057600080fd5b505afa158015612bf4573d6000803e3d6000fd5b505050506040513d601f19601f82011682018060405250810190612c189190616734565b905090565b60008173ffffffffffffffffffffffffffffffffffffffff168373ffffffffffffffffffffffffffffffffffffffff161480612d355750603860008473ffffffffffffffffffffffffffffffffffffffff1673ffffffffffffffffffffffffffffffffffffffff16815260200190815260200160002060009054906101000a900460ff168015612d345750603a60008373ffffffffffffffffffffffffffffffffffffffff1673ffffffffffffffffffffffffffffffffffffffff16815260200190815260200160002060008473ffffffffffffffffffffffffffffffffffffffff1673ffffffffffffffffffffffffffffffffffffffff16815260200190815260200160002060009054906101000a900460ff16155b5b80612dc65750603960008373ffffffffffffffffffffffffffffffffffffffff1673ffffffffffffffffffffffffffffffffffffffff16815260200190815260200160002060008473ffffffffffffffffffffffffffffffffffffffff1673ffffffffffffffffffffffffffffffffffffffff16815260200190815260200160002060009054906101000a900460ff165b905092915050565b612dd66141e5565b73ffffffffffffffffffffffffffffffffffffffff16612df4611ee0565b73ffffffffffffffffffffffffffffffffffffffff1614612e4a576040517f08c379a0000000000000000000000000000000000000000000000000000000008152600401612e4190617306565b60405180910390fd5b6000612e7861010460009054906101000a900473ffffffffffffffffffffffffffffffffffffffff16611c91565b9050612e848282612376565b508161010460006101000a81548173ffffffffffffffffffffffffffffffffffffffff021916908373ffffffffffffffffffffffffffffffffffffffff1602179055505050565b6000603b60008473ffffffffffffffffffffffffffffffffffffffff1673ffffffffffffffffffffffffffffffffffffffff16815260200190815260200160002060008373ffffffffffffffffffffffffffffffffffffffff1673ffffffffffffffffffffffffffffffffffffffff16815260200190815260200160002054905092915050565b60008060008060008060fc60009054906101000a900473ffffffffffffffffffffffffffffffffffffffff1673ffffffffffffffffffffffffffffffffffffffff1663feaf968c6040518163ffffffff1660e01b815260040160a06040518083038186803b158015612fc357600080fd5b505afa158015612fd7573d6000803e3d6000fd5b505050506040513d601f19601f82011682018060405250810190612ffb91906166bd565b94509450945094509450839550505050505090565b60008073ffffffffffffffffffffffffffffffffffffffff163373ffffffffffffffffffffffffffffffffffffffff161415613081576040517f08c379a0000000000000000000000000000000000000000000000000000000008152600401613078906171a6565b60405180910390fd5b61010760003373ffffffffffffffffffffffffffffffffffffffff1673ffffffffffffffffffffffffffffffffffffffff16815260200190815260200160002060009054906101000a900460ff1661310e576040517f08c379a000000000000000000000000000000000000000000000000000000000815260040161310590617186565b60405180910390fd5b6000613118612b76565b600a613124919061771d565b61312c6122b8565b34613137919061783b565b6131419190617699565b90506000600861314f612996565b6131599190617662565b600a613165919061771d565b61316d612f52565b60fd6003015461317d919061783b565b6131879190617699565b826131929190617699565b90506000612710611817836131a7919061783b565b6131b19190617699565b9050600060fd60000154836131c69190617699565b9050600060fd60010154846131db9190617699565b90506000612710610341866131f0919061783b565b6131fa9190617699565b9050600061010660003373ffffffffffffffffffffffffffffffffffffffff1673ffffffffffffffffffffffffffffffffffffffff16815260200190815260200160002060009054906101000a900473ffffffffffffffffffffffffffffffffffffffff16905061328b33866040518060200160405280600081525060405180602001604052806000815250614c9c565b6132d861010460009054906101000a900473ffffffffffffffffffffffffffffffffffffffff16856040518060200160405280600081525060405180602001604052806000815250614c9c565b61330281846040518060200160405280600081525060405180602001604052806000815250614c9c565b61333361330d611ee0565b836040518060200160405280600081525060405180602001604052806000815250614c9c565b8261010860008373ffffffffffffffffffffffffffffffffffffffff1673ffffffffffffffffffffffffffffffffffffffff16815260200190815260200160002060003373ffffffffffffffffffffffffffffffffffffffff1673ffffffffffffffffffffffffffffffffffffffff16815260200190815260200160002060008282546133c0919061760c565b925050819055507ff29b7b9c9bc4f1c24045a5a10b8bb59a7318d7a1e2e46af68bd5560dfce0e04433823488876040516133fe959493929190616ef3565b60405180910390a161010660003373ffffffffffffffffffffffffffffffffffffffff1673ffffffffffffffffffffffffffffffffffffffff16815260200190815260200160002060009054906101000a900473ffffffffffffffffffffffffffffffffffffffff1697505050505050505090565b6060600073ffffffffffffffffffffffffffffffffffffffff163373ffffffffffffffffffffffffffffffffffffffff1614156134e5576040517f08c379a00000000000000000000000000000000000000000000000000000000081526004016134dc906171a6565b60405180910390fd5b6000801b61010560008473ffffffffffffffffffffffffffffffffffffffff1673ffffffffffffffffffffffffffffffffffffffff16815260200190815260200160002054141561356b576040517f08c379a000000000000000000000000000000000000000000000000000000000815260040161356290617246565b60405180910390fd5b6000613575612b76565b600a613581919061771d565b6135896122b8565b34613594919061783b565b61359e9190617699565b9050600060086135ac612996565b6135b69190617662565b600a6135c2919061771d565b6135ca612f52565b60fd600301546135da919061783b565b6135e49190617699565b826135ef9190617699565b90506000612710611bff83613604919061783b565b61360e9190617699565b9050600060fd60000154836136239190617699565b9050600061271061034185613638919061783b565b6136429190617699565b905061366e87846040518060200160405280600081525060405180602001604052806000815250614c9c565b6136bb61010460009054906101000a900473ffffffffffffffffffffffffffffffffffffffff16836040518060200160405280600081525060405180602001604052806000815250614c9c565b6136ec6136c6611ee0565b826040518060200160405280600081525060405180602001604052806000815250614c9c565b8261010860008973ffffffffffffffffffffffffffffffffffffffff1673ffffffffffffffffffffffffffffffffffffffff16815260200190815260200160002060003373ffffffffffffffffffffffffffffffffffffffff1673ffffffffffffffffffffffffffffffffffffffff1681526020019081526020016000206000828254613779919061760c565b925050819055507f1d4d1e6ab66cf832b8970e346f374bff8cba29ededefaf0b20df4ac80dd2beff338834866040516137b59493929190616eae565b60405180910390a16137c6876111c4565b95505050505050919050565b6137da6141e5565b73ffffffffffffffffffffffffffffffffffffffff166137f8611ee0565b73ffffffffffffffffffffffffffffffffffffffff161461384e576040517f08c379a000000000000000000000000000000000000000000000000000000000815260040161384590617306565b60405180910390fd5b8061010260009054906101000a900473ffffffffffffffffffffffffffffffffffffffff1673ffffffffffffffffffffffffffffffffffffffff166370a08231306040518263ffffffff1660e01b81526004016138ab9190616dd8565b60206040518083038186803b1580156138c357600080fd5b505afa1580156138d7573d6000803e3d6000fd5b505050506040513d601f19601f820116820180604052508101906138fb91906165ec565b101561393c576040517f08c379a000000000000000000000000000000000000000000000000000000000815260040161393390617106565b60405180910390fd5b61010260009054906101000a900473ffffffffffffffffffffffffffffffffffffffff1673ffffffffffffffffffffffffffffffffffffffff1663a9059cbb83836040518363ffffffff1660e01b815260040161399a929190616fa6565b602060405180830381600087803b1580156139b457600080fd5b505af11580156139c8573d6000803e3d6000fd5b505050506040513d601f19601f820116820180604052508101906139ec91906164ef565b505050565b6060600061010660008473ffffffffffffffffffffffffffffffffffffffff1673ffffffffffffffffffffffffffffffffffffffff16815260200190815260200160002060009054906101000a900473ffffffffffffffffffffffffffffffffffffffff16905073__StringsAndBytes_______________________639201de5561010560008473ffffffffffffffffffffffffffffffffffffffff1673ffffffffffffffffffffffffffffffffffffffff168152602001908152602001600020546040518263ffffffff1660e01b8152600401613acf919061700c565b60006040518083038186803b158015613ae757600080fd5b505af4158015613afb573d6000803e3d6000fd5b505050506040513d6000823e3d601f19601f82011682018060405250810190613b249190616582565b915050919050565b600061010760003373ffffffffffffffffffffffffffffffffffffffff1673ffffffffffffffffffffffffffffffffffffffff16815260200190815260200160002060009054906101000a900460ff1615613bbc576040517f08c379a0000000000000000000000000000000000000000000000000000000008152600401613bb390617086565b60405180910390fd5b6000613bc783612956565b905060008060001b61010560008473ffffffffffffffffffffffffffffffffffffffff1673ffffffffffffffffffffffffffffffffffffffff168152602001908152602001600020541415613ce55773__StringsAndBytes_______________________63cfb51928856040518263ffffffff1660e01b8152600401613c4d9190617042565b60206040518083038186803b158015613c6557600080fd5b505af4158015613c79573d6000803e3d6000fd5b505050506040513d601f19601f82011682018060405250810190613c9d9190616518565b90508061010560008473ffffffffffffffffffffffffffffffffffffffff1673ffffffffffffffffffffffffffffffffffffffff168152602001908152602001600020819055505b8161010660003373ffffffffffffffffffffffffffffffffffffffff1673ffffffffffffffffffffffffffffffffffffffff16815260200190815260200160002060006101000a81548173ffffffffffffffffffffffffffffffffffffffff021916908373ffffffffffffffffffffffffffffffffffffffff160217905550600161010760003373ffffffffffffffffffffffffffffffffffffffff1673ffffffffffffffffffffffffffffffffffffffff16815260200190815260200160002060006101000a81548160ff0219169083151502179055507f0490498b073f90aa20e8e39964d9e7d8149e04c602e45169db87508329cf8c6e33838684604051613df29493929190616e62565b60405180910390a18192505050919050565b613e0c6141e5565b73ffffffffffffffffffffffffffffffffffffffff16613e2a611ee0565b73ffffffffffffffffffffffffffffffffffffffff1614613e80576040517f08c379a0000000000000000000000000000000000000000000000000000000008152600401613e7790617306565b60405180910390fd5b600073ffffffffffffffffffffffffffffffffffffffff168173ffffffffffffffffffffffffffffffffffffffff161415613ef0576040517f08c379a0000000000000000000000000000000000000000000000000000000008152600401613ee790617166565b60405180910390fd5b613ef981614cb0565b50565b613f046141e5565b73ffffffffffffffffffffffffffffffffffffffff168173ffffffffffffffffffffffffffffffffffffffff161415613f72576040517f08c379a0000000000000000000000000000000000000000000000000000000008152600401613f6990617266565b60405180910390fd5b603860008273ffffffffffffffffffffffffffffffffffffffff1673ffffffffffffffffffffffffffffffffffffffff16815260200190815260200160002060009054906101000a900460ff1615614065576001603a6000613fd26141e5565b73ffffffffffffffffffffffffffffffffffffffff1673ffffffffffffffffffffffffffffffffffffffff16815260200190815260200160002060008373ffffffffffffffffffffffffffffffffffffffff1673ffffffffffffffffffffffffffffffffffffffff16815260200190815260200160002060006101000a81548160ff0219169083151502179055506140f9565b603960006140716141e5565b73ffffffffffffffffffffffffffffffffffffffff1673ffffffffffffffffffffffffffffffffffffffff16815260200190815260200160002060008273ffffffffffffffffffffffffffffffffffffffff1673ffffffffffffffffffffffffffffffffffffffff16815260200190815260200160002060006101000a81549060ff02191690555b6141016141e5565b73ffffffffffffffffffffffffffffffffffffffff168173ffffffffffffffffffffffffffffffffffffffff167f50546e66e5f44d728365dc3908c63bc5cfeeab470722c1677e3073a6ac294aa160405160405180910390a350565b61416e6141686141e5565b85612c1d565b6141ad576040517f08c379a00000000000000000000000000000000000000000000000000000000081526004016141a490617386565b60405180910390fd5b6141b984848484615037565b50505050565b6141e16141ca6141e5565b838360405180602001604052806000815250615037565b5050565b600033905090565b600073ffffffffffffffffffffffffffffffffffffffff168373ffffffffffffffffffffffffffffffffffffffff16141561425d576040517f08c379a0000000000000000000000000000000000000000000000000000000008152600401614254906170a6565b60405180910390fd5b600073ffffffffffffffffffffffffffffffffffffffff168273ffffffffffffffffffffffffffffffffffffffff1614156142cd576040517f08c379a00000000000000000000000000000000000000000000000000000000081526004016142c490617426565b60405180910390fd5b80603b60008573ffffffffffffffffffffffffffffffffffffffff1673ffffffffffffffffffffffffffffffffffffffff16815260200190815260200160002060008473ffffffffffffffffffffffffffffffffffffffff1673ffffffffffffffffffffffffffffffffffffffff168152602001908152602001600020819055508173ffffffffffffffffffffffffffffffffffffffff168373ffffffffffffffffffffffffffffffffffffffff167f8c5be1e5ebec7d5bd14f71427d1e84f3dd0314c0f7b2291e5b200ac8c7c3b925836040516143ab9190617446565b60405180910390a3505050565b6000731820a4b7618bde71dce8cdc73aab6c95905fad2473ffffffffffffffffffffffffffffffffffffffff1663aabbb8ca877f29ddb589b1fb5fc7cf394961c1adf5f8c6454761adf795e67fe149f658abe8956040518363ffffffff1660e01b8152600401614429929190616f46565b60206040518083038186803b15801561444157600080fd5b505afa158015614455573d6000803e3d6000fd5b505050506040513d601f19601f8201168201806040525081019061447991906161b6565b9050600073ffffffffffffffffffffffffffffffffffffffff168173ffffffffffffffffffffffffffffffffffffffff1614614525578073ffffffffffffffffffffffffffffffffffffffff166375ab97828888888888886040518763ffffffff1660e01b81526004016144f296959493929190616df3565b600060405180830381600087803b15801561450c57600080fd5b505af1158015614520573d6000803e3d6000fd5b505050505b50505050505050565b61453a8686868661528c565b6000603360008773ffffffffffffffffffffffffffffffffffffffff1673ffffffffffffffffffffffffffffffffffffffff168152602001908152602001600020549050838110156145c1576040517f08c379a00000000000000000000000000000000000000000000000000000000081526004016145b890617126565b60405180910390fd5b838103603360008873ffffffffffffffffffffffffffffffffffffffff1673ffffffffffffffffffffffffffffffffffffffff1681526020019081526020016000208190555083603360008773ffffffffffffffffffffffffffffffffffffffff1673ffffffffffffffffffffffffffffffffffffffff1681526020019081526020016000206000828254614656919061760c565b925050819055508473ffffffffffffffffffffffffffffffffffffffff168673ffffffffffffffffffffffffffffffffffffffff168873ffffffffffffffffffffffffffffffffffffffff167f06b541ddaa720db2b10a4d0cdac39b8d360425fc073085fac19bc826146779878787876040516146d593929190617461565b60405180910390a48473ffffffffffffffffffffffffffffffffffffffff168673ffffffffffffffffffffffffffffffffffffffff167fddf252ad1be2c89b69c2b068fc378daa952ba7f163c4a11628f55a4df523b3ef8660405161473a9190617446565b60405180910390a350505050505050565b6000731820a4b7618bde71dce8cdc73aab6c95905fad2473ffffffffffffffffffffffffffffffffffffffff1663aabbb8ca877fb281fc8c12954d22544db45de3159a39272895b169a852b314f9cc762e44c53b6040518363ffffffff1660e01b81526004016147bc929190616f46565b60206040518083038186803b1580156147d457600080fd5b505afa1580156147e8573d6000803e3d6000fd5b505050506040513d601f19601f8201168201806040525081019061480c91906161b6565b9050600073ffffffffffffffffffffffffffffffffffffffff168173ffffffffffffffffffffffffffffffffffffffff16146148bb578073ffffffffffffffffffffffffffffffffffffffff166223de298989898989896040518763ffffffff1660e01b815260040161488496959493929190616df3565b600060405180830381600087803b15801561489e57600080fd5b505af11580156148b2573d6000803e3d6000fd5b50505050614922565b8115614921576148e08673ffffffffffffffffffffffffffffffffffffffff16615292565b15614920576040517f08c379a000000000000000000000000000000000000000000000000000000000815260040161491790617326565b60405180910390fd5b5b5b5050505050505050565b6149346141e5565b73ffffffffffffffffffffffffffffffffffffffff16614952611ee0565b73ffffffffffffffffffffffffffffffffffffffff16146149a8576040517f08c379a000000000000000000000000000000000000000000000000000000000815260040161499f90617306565b60405180910390fd5b50565b60006149b56152a5565b90506149c0846152fc565b6000835111806149cd5750815b156149de576149dc84846153b5565b505b6000614a0c7f4910fdfa16fed3260ed0e7147f7cc6da11a60208b5b9406d12a635614ffd914360001b615499565b90508060000160009054906101000a900460ff16614b755760018160000160006101000a81548160ff021916908315150217905550614ad88583604051602401614a569190616dd8565b6040516020818303038152906040527f3659cfe6000000000000000000000000000000000000000000000000000000007bffffffffffffffffffffffffffffffffffffffffffffffffffffffff19166020820180517bffffffffffffffffffffffffffffffffffffffffffffffffffffffff83818316178352505050506153b5565b5060008160000160006101000a81548160ff021916908315150217905550614afe6152a5565b73ffffffffffffffffffffffffffffffffffffffff168273ffffffffffffffffffffffffffffffffffffffff1614614b6b576040517f08c379a0000000000000000000000000000000000000000000000000000000008152600401614b6290617146565b60405180910390fd5b614b74856154a3565b5b5050505050565b600073ffffffffffffffffffffffffffffffffffffffff168673ffffffffffffffffffffffffffffffffffffffff161415614bec576040517f08c379a0000000000000000000000000000000000000000000000000000000008152600401614be3906170c6565b60405180910390fd5b600073ffffffffffffffffffffffffffffffffffffffff168573ffffffffffffffffffffffffffffffffffffffff161415614c5c576040517f08c379a0000000000000000000000000000000000000000000000000000000008152600401614c5390617406565b60405180910390fd5b6000614c666141e5565b9050614c768188888888886143b8565b614c8481888888888861452e565b614c938188888888888861474b565b50505050505050565b614caa8484848460016154f2565b50505050565b6000606560009054906101000a900473ffffffffffffffffffffffffffffffffffffffff16905081606560006101000a81548173ffffffffffffffffffffffffffffffffffffffff021916908373ffffffffffffffffffffffffffffffffffffffff1602179055508173ffffffffffffffffffffffffffffffffffffffff168173ffffffffffffffffffffffffffffffffffffffff167f8be0079c531659141344cd1fd0a4f28419497f9722a3daafe3b4186f6b6457e060405160405180910390a35050565b600060019054906101000a900460ff1680614d9c575060008054906101000a900460ff16155b614ddb576040517f08c379a0000000000000000000000000000000000000000000000000000000008152600401614dd290617286565b60405180910390fd5b60008060019054906101000a900460ff161590508015614e2b576001600060016101000a81548160ff02191690831515021790555060016000806101000a81548160ff0219169083151502179055505b614e336156d1565b614e3e8484846157aa565b8015614e5f5760008060016101000a81548160ff0219169083151502179055505b50505050565b600060019054906101000a900460ff1680614e8b575060008054906101000a900460ff16155b614eca576040517f08c379a0000000000000000000000000000000000000000000000000000000008152600401614ec190617286565b60405180910390fd5b60008060019054906101000a900460ff161590508015614f1a576001600060016101000a81548160ff02191690831515021790555060016000806101000a81548160ff0219169083151502179055505b614f226156d1565b614f2a615ac9565b8015614f4b5760008060016101000a81548160ff0219169083151502179055505b50565b600060019054906101000a900460ff1680614f74575060008054906101000a900460ff16155b614fb3576040517f08c379a0000000000000000000000000000000000000000000000000000000008152600401614faa90617286565b60405180910390fd5b60008060019054906101000a900460ff161590508015615003576001600060016101000a81548160ff02191690831515021790555060016000806101000a81548160ff0219169083151502179055505b61500b615bb2565b615013615c8b565b80156150345760008060016101000a81548160ff0219169083151502179055505b50565b600073ffffffffffffffffffffffffffffffffffffffff168473ffffffffffffffffffffffffffffffffffffffff1614156150a7576040517f08c379a000000000000000000000000000000000000000000000000000000000815260040161509e906171c6565b60405180910390fd5b60006150b16141e5565b90506150c2818660008787876143b8565b6150cf818660008761528c565b6000603360008773ffffffffffffffffffffffffffffffffffffffff1673ffffffffffffffffffffffffffffffffffffffff16815260200190815260200160002054905084811015615156576040517f08c379a000000000000000000000000000000000000000000000000000000000815260040161514d906173e6565b60405180910390fd5b848103603360008873ffffffffffffffffffffffffffffffffffffffff1673ffffffffffffffffffffffffffffffffffffffff1681526020019081526020016000208190555084603460008282546151ae9190617895565b925050819055508573ffffffffffffffffffffffffffffffffffffffff168273ffffffffffffffffffffffffffffffffffffffff167fa78a9be3a7b862d26933ad85fb11d80ef66b8f972d7cbba06621d583943a409887878760405161521693929190617461565b60405180910390a3600073ffffffffffffffffffffffffffffffffffffffff168673ffffffffffffffffffffffffffffffffffffffff167fddf252ad1be2c89b69c2b068fc378daa952ba7f163c4a11628f55a4df523b3ef8760405161527c9190617446565b60405180910390a3505050505050565b50505050565b600080823b905060008111915050919050565b60006152d37f360894a13ba1a3210667c828492db98dca3e2076cc3735a920a3ca505d382bbc60001b615d64565b60000160009054906101000a900473ffffffffffffffffffffffffffffffffffffffff16905090565b61530581615292565b615344576040517f08c379a000000000000000000000000000000000000000000000000000000000815260040161533b906172e6565b60405180910390fd5b806153717f360894a13ba1a3210667c828492db98dca3e2076cc3735a920a3ca505d382bbc60001b615d64565b60000160006101000a81548173ffffffffffffffffffffffffffffffffffffffff021916908373ffffffffffffffffffffffffffffffffffffffff16021790555050565b60606153c083615292565b6153ff576040517f08c379a00000000000000000000000000000000000000000000000000000000081526004016153f690617366565b60405180910390fd5b6000808473ffffffffffffffffffffffffffffffffffffffff16846040516154279190616d95565b600060405180830381855af49150503d8060008114615462576040519150601f19603f3d011682016040523d82523d6000602084013e615467565b606091505b509150915061548f82826040518060600160405280602781526020016184ab60279139615d6e565b9250505092915050565b6000819050919050565b6154ac816152fc565b8073ffffffffffffffffffffffffffffffffffffffff167fbc7cd75a20ee27fd9adebab32041f755214dbc6bffa90cc0225b39da2e5c2d3b60405160405180910390a250565b600073ffffffffffffffffffffffffffffffffffffffff168573ffffffffffffffffffffffffffffffffffffffff161415615562576040517f08c379a0000000000000000000000000000000000000000000000000000000008152600401615559906172c6565b60405180910390fd5b600061556c6141e5565b905061557b816000888861528c565b846034600082825461558d919061760c565b9250508190555084603360008873ffffffffffffffffffffffffffffffffffffffff1673ffffffffffffffffffffffffffffffffffffffff16815260200190815260200160002060008282546155e3919061760c565b925050819055506155fa816000888888888861474b565b8573ffffffffffffffffffffffffffffffffffffffff168173ffffffffffffffffffffffffffffffffffffffff167f2fe5be0146f74c5bce36c0b80911af6c7d86ff27e89d5cfa61fc681327954e5d87878760405161565b93929190617461565b60405180910390a38573ffffffffffffffffffffffffffffffffffffffff16600073ffffffffffffffffffffffffffffffffffffffff167fddf252ad1be2c89b69c2b068fc378daa952ba7f163c4a11628f55a4df523b3ef876040516156c19190617446565b60405180910390a3505050505050565b600060019054906101000a900460ff16806156f7575060008054906101000a900460ff16155b615736576040517f08c379a000000000000000000000000000000000000000000000000000000000815260040161572d90617286565b60405180910390fd5b60008060019054906101000a900460ff161590508015615786576001600060016101000a81548160ff02191690831515021790555060016000806101000a81548160ff0219169083151502179055505b80156157a75760008060016101000a81548160ff0219169083151502179055505b50565b600060019054906101000a900460ff16806157d0575060008054906101000a900460ff16155b61580f576040517f08c379a000000000000000000000000000000000000000000000000000000000815260040161580690617286565b60405180910390fd5b60008060019054906101000a900460ff16159050801561585f576001600060016101000a81548160ff02191690831515021790555060016000806101000a81548160ff0219169083151502179055505b8360359080519060200190615875929190615dd5565b50826036908051906020019061588c929190615dd5565b5081603790805190602001906158a3929190615e5b565b5060005b825181101561595b576001603860008584815181106158ef577f4e487b7100000000000000000000000000000000000000000000000000000000600052603260045260246000fd5b602002602001015173ffffffffffffffffffffffffffffffffffffffff1673ffffffffffffffffffffffffffffffffffffffff16815260200190815260200160002060006101000a81548160ff0219169083151502179055508080615953906179ed565b9150506158a7565b50731820a4b7618bde71dce8cdc73aab6c95905fad2473ffffffffffffffffffffffffffffffffffffffff166329965a1d307fac7fbab5f54a3ca8194167523c6753bfeb96a445279294b6125b68cce2177054306040518463ffffffff1660e01b81526004016159cd93929190616f6f565b600060405180830381600087803b1580156159e757600080fd5b505af11580156159fb573d6000803e3d6000fd5b50505050731820a4b7618bde71dce8cdc73aab6c95905fad2473ffffffffffffffffffffffffffffffffffffffff166329965a1d307faea199e31a596269b42cdafd93407f14436db6e4cad65417994c2eb37381e05a306040518463ffffffff1660e01b8152600401615a7093929190616f6f565b600060405180830381600087803b158015615a8a57600080fd5b505af1158015615a9e573d6000803e3d6000fd5b505050508015615ac35760008060016101000a81548160ff0219169083151502179055505b50505050565b600060019054906101000a900460ff1680615aef575060008054906101000a900460ff16155b615b2e576040517f08c379a0000000000000000000000000000000000000000000000000000000008152600401615b2590617286565b60405180910390fd5b60008060019054906101000a900460ff161590508015615b7e576001600060016101000a81548160ff02191690831515021790555060016000806101000a81548160ff0219169083151502179055505b615b8e615b896141e5565b614cb0565b8015615baf5760008060016101000a81548160ff0219169083151502179055505b50565b600060019054906101000a900460ff1680615bd8575060008054906101000a900460ff16155b615c17576040517f08c379a0000000000000000000000000000000000000000000000000000000008152600401615c0e90617286565b60405180910390fd5b60008060019054906101000a900460ff161590508015615c67576001600060016101000a81548160ff02191690831515021790555060016000806101000a81548160ff0219169083151502179055505b8015615c885760008060016101000a81548160ff0219169083151502179055505b50565b600060019054906101000a900460ff1680615cb1575060008054906101000a900460ff16155b615cf0576040517f08c379a0000000000000000000000000000000000000000000000000000000008152600401615ce790617286565b60405180910390fd5b60008060019054906101000a900460ff161590508015615d40576001600060016101000a81548160ff02191690831515021790555060016000806101000a81548160ff0219169083151502179055505b8015615d615760008060016101000a81548160ff0219169083151502179055505b50565b6000819050919050565b60608315615d7e57829050615dce565b600083511115615d915782518084602001fd5b816040517f08c379a0000000000000000000000000000000000000000000000000000000008152600401615dc59190617064565b60405180910390fd5b9392505050565b828054615de19061798a565b90600052602060002090601f016020900481019282615e035760008555615e4a565b82601f10615e1c57805160ff1916838001178555615e4a565b82800160010185558215615e4a579182015b82811115615e49578251825591602001919060010190615e2e565b5b509050615e579190615ee5565b5090565b828054828255906000526020600020908101928215615ed4579160200282015b82811115615ed35782518260006101000a81548173ffffffffffffffffffffffffffffffffffffffff021916908373ffffffffffffffffffffffffffffffffffffffff16021790555091602001919060010190615e7b565b5b509050615ee19190615ee5565b5090565b5b80821115615efe576000816000905550600101615ee6565b5090565b6000615f15615f10846174e6565b6174c1565b90508083825260208201905082856020860282011115615f3457600080fd5b60005b85811015615f645781615f4a8882616028565b845260208401935060208301925050600181019050615f37565b5050509392505050565b6000615f81615f7c84617512565b6174c1565b905082815260208101848484011115615f9957600080fd5b615fa4848285617948565b509392505050565b6000615fbf615fba84617543565b6174c1565b905082815260208101848484011115615fd757600080fd5b615fe2848285617948565b509392505050565b6000615ffd615ff884617543565b6174c1565b90508281526020810184848401111561601557600080fd5b616020848285617957565b509392505050565b60008135905061603781618409565b92915050565b60008151905061604c81618409565b92915050565b600082601f83011261606357600080fd5b8135616073848260208601615f02565b91505092915050565b60008151905061608b81618420565b92915050565b6000815190506160a081618437565b92915050565b600082601f8301126160b757600080fd5b81356160c7848260208601615f6e565b91505092915050565b6000815190506160df8161844e565b92915050565b600082601f8301126160f657600080fd5b8135616106848260208601615fac565b91505092915050565b600082601f83011261612057600080fd5b8151616130848260208601615fea565b91505092915050565b60008135905061614881618465565b92915050565b60008151905061615d81618465565b92915050565b60008151905061617281618493565b92915050565b6000815190506161878161847c565b92915050565b60006020828403121561619f57600080fd5b60006161ad84828501616028565b91505092915050565b6000602082840312156161c857600080fd5b60006161d68482850161603d565b91505092915050565b600080604083850312156161f257600080fd5b600061620085828601616028565b925050602061621185828601616028565b9150509250929050565b60008060006060848603121561623057600080fd5b600061623e86828701616028565b935050602061624f86828701616028565b925050604061626086828701616139565b9150509250925092565b600080600080600060a0868803121561628257600080fd5b600061629088828901616028565b95505060206162a188828901616028565b94505060406162b288828901616139565b935050606086013567ffffffffffffffff8111156162cf57600080fd5b6162db888289016160a6565b925050608086013567ffffffffffffffff8111156162f857600080fd5b616304888289016160a6565b9150509295509295909350565b6000806040838503121561632457600080fd5b600061633285828601616028565b925050602083013567ffffffffffffffff81111561634f57600080fd5b61635b858286016160a6565b9150509250929050565b6000806040838503121561637857600080fd5b600061638685828601616028565b925050602083013567ffffffffffffffff8111156163a357600080fd5b6163af858286016160e5565b9150509250929050565b600080604083850312156163cc57600080fd5b60006163da85828601616028565b92505060206163eb85828601616139565b9150509250929050565b60008060006060848603121561640a57600080fd5b600061641886828701616028565b935050602061642986828701616139565b925050604084013567ffffffffffffffff81111561644657600080fd5b616452868287016160a6565b9150509250925092565b6000806000806080858703121561647257600080fd5b600061648087828801616028565b945050602061649187828801616139565b935050604085013567ffffffffffffffff8111156164ae57600080fd5b6164ba878288016160a6565b925050606085013567ffffffffffffffff8111156164d757600080fd5b6164e3878288016160a6565b91505092959194509250565b60006020828403121561650157600080fd5b600061650f8482850161607c565b91505092915050565b60006020828403121561652a57600080fd5b600061653884828501616091565b91505092915050565b60006020828403121561655357600080fd5b600082013567ffffffffffffffff81111561656d57600080fd5b616579848285016160e5565b91505092915050565b60006020828403121561659457600080fd5b600082015167ffffffffffffffff8111156165ae57600080fd5b6165ba8482850161610f565b91505092915050565b6000602082840312156165d557600080fd5b60006165e384828501616139565b91505092915050565b6000602082840312156165fe57600080fd5b600061660c8482850161614e565b91505092915050565b6000806040838503121561662857600080fd5b600061663685828601616139565b925050602083013567ffffffffffffffff81111561665357600080fd5b61665f85828601616052565b9150509250929050565b6000806040838503121561667c57600080fd5b600061668a85828601616139565b925050602083013567ffffffffffffffff8111156166a757600080fd5b6166b3858286016160a6565b9150509250929050565b600080600080600060a086880312156166d557600080fd5b60006166e388828901616163565b95505060206166f4888289016160d0565b94505060406167058882890161614e565b93505060606167168882890161614e565b925050608061672788828901616163565b9150509295509295909350565b60006020828403121561674657600080fd5b600061675484828501616178565b91505092915050565b60006167698383616775565b60208301905092915050565b61677e816178c9565b82525050565b61678d816178c9565b82525050565b600061679e82617584565b6167a881856175b2565b93506167b383617574565b8060005b838110156167e45781516167cb888261675d565b97506167d6836175a5565b9250506001810190506167b7565b5085935050505092915050565b6167fa816178db565b82525050565b616809816178e7565b82525050565b616818816178e7565b82525050565b60006168298261758f565b61683381856175c3565b9350616843818560208601617957565b61684c81617af2565b840191505092915050565b60006168628261758f565b61686c81856175d4565b935061687c818560208601617957565b80840191505092915050565b616891816178f1565b82525050565b60006168a28261759a565b6168ac81856175df565b93506168bc818560208601617957565b6168c581617af2565b840191505092915050565b60006168db8261759a565b6168e581856175f0565b93506168f5818560208601617957565b6168fe81617af2565b840191505092915050565b60006169148261759a565b61691e8185617601565b935061692e818560208601617957565b80840191505092915050565b6000616947602c836175df565b915061695282617b10565b604082019050919050565b600061696a6025836175df565b915061697582617b5f565b604082019050919050565b600061698d6022836175df565b915061699882617bae565b604082019050919050565b60006169b06026836175df565b91506169bb82617bfd565b604082019050919050565b60006169d36036836175df565b91506169de82617c4c565b604082019050919050565b60006169f66027836175df565b9150616a0182617c9b565b604082019050919050565b6000616a19602f836175df565b9150616a2482617cea565b604082019050919050565b6000616a3c6026836175df565b9150616a4782617d39565b604082019050919050565b6000616a5f602c836175df565b9150616a6a82617d88565b604082019050919050565b6000616a82602a836175df565b9150616a8d82617dd7565b604082019050919050565b6000616aa56022836175df565b9150616ab082617e26565b604082019050919050565b6000616ac86024836175df565b9150616ad382617e75565b604082019050919050565b6000616aeb6027836175df565b9150616af682617ec4565b604082019050919050565b6000616b0e6037836175df565b9150616b1982617f13565b604082019050919050565b6000616b316035836175df565b9150616b3c82617f62565b604082019050919050565b6000616b546021836175df565b9150616b5f82617fb1565b604082019050919050565b6000616b77602e836175df565b9150616b8282618000565b604082019050919050565b6000616b9a6034836175df565b9150616ba58261804f565b604082019050919050565b6000616bbd6020836175df565b9150616bc88261809e565b602082019050919050565b6000616be0602d836175df565b9150616beb826180c7565b604082019050919050565b6000616c036020836175df565b9150616c0e82618116565b602082019050919050565b6000616c26604d836175df565b9150616c318261813f565b606082019050919050565b6000616c496024836175df565b9150616c54826181b4565b604082019050919050565b6000616c6c6026836175df565b9150616c7782618203565b604082019050919050565b6000616c8f6000836175d4565b9150616c9a82618252565b600082019050919050565b6000616cb2602c836175df565b9150616cbd82618255565b604082019050919050565b6000616cd56029836175df565b9150616ce0826182a4565b604082019050919050565b6000616cf86026836175df565b9150616d03826182f3565b604082019050919050565b6000616d1b6023836175df565b9150616d2682618342565b604082019050919050565b6000616d3e6020836175df565b9150616d4982618391565b602082019050919050565b6000616d616023836175df565b9150616d6c826183ba565b604082019050919050565b616d808161791b565b82525050565b616d8f81617925565b82525050565b6000616da18284616857565b915081905092915050565b6000616db88284616909565b915081905092915050565b6000616dce82616c82565b9150819050919050565b6000602082019050616ded6000830184616784565b92915050565b600060c082019050616e086000830189616784565b616e156020830188616784565b616e226040830187616784565b616e2f6060830186616d77565b8181036080830152616e41818561681e565b905081810360a0830152616e55818461681e565b9050979650505050505050565b6000608082019050616e776000830187616784565b616e846020830186616784565b8181036040830152616e968185616897565b9050616ea56060830184616800565b95945050505050565b6000608082019050616ec36000830187616784565b616ed06020830186616784565b616edd6040830185616d77565b616eea6060830184616d77565b95945050505050565b600060a082019050616f086000830188616784565b616f156020830187616784565b616f226040830186616d77565b616f2f6060830185616d77565b616f3c6080830184616d77565b9695505050505050565b6000604082019050616f5b6000830185616784565b616f686020830184616800565b9392505050565b6000606082019050616f846000830186616784565b616f916020830185616800565b616f9e6040830184616784565b949350505050565b6000604082019050616fbb6000830185616784565b616fc86020830184616d77565b9392505050565b60006020820190508181036000830152616fe98184616793565b905092915050565b600060208201905061700660008301846167f1565b92915050565b6000602082019050617021600083018461680f565b92915050565b600060208201905061703c6000830184616888565b92915050565b6000602082019050818103600083015261705c81846168d0565b905092915050565b6000602082019050818103600083015261707e8184616897565b905092915050565b6000602082019050818103600083015261709f8161693a565b9050919050565b600060208201905081810360008301526170bf8161695d565b9050919050565b600060208201905081810360008301526170df81616980565b9050919050565b600060208201905081810360008301526170ff816169a3565b9050919050565b6000602082019050818103600083015261711f816169c6565b9050919050565b6000602082019050818103600083015261713f816169e9565b9050919050565b6000602082019050818103600083015261715f81616a0c565b9050919050565b6000602082019050818103600083015261717f81616a2f565b9050919050565b6000602082019050818103600083015261719f81616a52565b9050919050565b600060208201905081810360008301526171bf81616a75565b9050919050565b600060208201905081810360008301526171df81616a98565b9050919050565b600060208201905081810360008301526171ff81616abb565b9050919050565b6000602082019050818103600083015261721f81616ade565b9050919050565b6000602082019050818103600083015261723f81616b01565b9050919050565b6000602082019050818103600083015261725f81616b24565b9050919050565b6000602082019050818103600083015261727f81616b47565b9050919050565b6000602082019050818103600083015261729f81616b6a565b9050919050565b600060208201905081810360008301526172bf81616b8d565b9050919050565b600060208201905081810360008301526172df81616bb0565b9050919050565b600060208201905081810360008301526172ff81616bd3565b9050919050565b6000602082019050818103600083015261731f81616bf6565b9050919050565b6000602082019050818103600083015261733f81616c19565b9050919050565b6000602082019050818103600083015261735f81616c3c565b9050919050565b6000602082019050818103600083015261737f81616c5f565b9050919050565b6000602082019050818103600083015261739f81616ca5565b9050919050565b600060208201905081810360008301526173bf81616cc8565b9050919050565b600060208201905081810360008301526173df81616ceb565b9050919050565b600060208201905081810360008301526173ff81616d0e565b9050919050565b6000602082019050818103600083015261741f81616d31565b9050919050565b6000602082019050818103600083015261743f81616d54565b9050919050565b600060208201905061745b6000830184616d77565b92915050565b60006060820190506174766000830186616d77565b8181036020830152617488818561681e565b9050818103604083015261749c818461681e565b9050949350505050565b60006020820190506174bb6000830184616d86565b92915050565b60006174cb6174dc565b90506174d782826179bc565b919050565b6000604051905090565b600067ffffffffffffffff82111561750157617500617ac3565b5b602082029050602081019050919050565b600067ffffffffffffffff82111561752d5761752c617ac3565b5b61753682617af2565b9050602081019050919050565b600067ffffffffffffffff82111561755e5761755d617ac3565b5b61756782617af2565b9050602081019050919050565b6000819050602082019050919050565b600081519050919050565b600081519050919050565b600081519050919050565b6000602082019050919050565b600082825260208201905092915050565b600082825260208201905092915050565b600081905092915050565b600082825260208201905092915050565b600082825260208201905092915050565b600081905092915050565b60006176178261791b565b91506176228361791b565b9250827fffffffffffffffffffffffffffffffffffffffffffffffffffffffffffffffff0382111561765757617656617a36565b5b828201905092915050565b600061766d82617925565b915061767883617925565b92508260ff0382111561768e5761768d617a36565b5b828201905092915050565b60006176a48261791b565b91506176af8361791b565b9250826176bf576176be617a65565b5b828204905092915050565b6000808291508390505b6001851115617714578086048111156176f0576176ef617a36565b5b60018516156176ff5780820291505b808102905061770d85617b03565b94506176d4565b94509492505050565b60006177288261791b565b915061773383617925565b92506177607fffffffffffffffffffffffffffffffffffffffffffffffffffffffffffffffff8484617768565b905092915050565b6000826177785760019050617834565b816177865760009050617834565b816001811461779c57600281146177a6576177d5565b6001915050617834565b60ff8411156177b8576177b7617a36565b5b8360020a9150848211156177cf576177ce617a36565b5b50617834565b5060208310610133831016604e8410600b841016171561780a5782820a90508381111561780557617804617a36565b5b617834565b61781784848460016176ca565b9250905081840481111561782e5761782d617a36565b5b81810290505b9392505050565b60006178468261791b565b91506178518361791b565b9250817fffffffffffffffffffffffffffffffffffffffffffffffffffffffffffffffff048311821515161561788a57617889617a36565b5b828202905092915050565b60006178a08261791b565b91506178ab8361791b565b9250828210156178be576178bd617a36565b5b828203905092915050565b60006178d4826178fb565b9050919050565b60008115159050919050565b6000819050919050565b6000819050919050565b600073ffffffffffffffffffffffffffffffffffffffff82169050919050565b6000819050919050565b600060ff82169050919050565b600069ffffffffffffffffffff82169050919050565b82818337600083830152505050565b60005b8381101561797557808201518184015260208101905061795a565b83811115617984576000848401525b50505050565b600060028204905060018216806179a257607f821691505b602082108114156179b6576179b5617a94565b5b50919050565b6179c582617af2565b810181811067ffffffffffffffff821117156179e4576179e3617ac3565b5b80604052505050565b60006179f88261791b565b91507fffffffffffffffffffffffffffffffffffffffffffffffffffffffffffffffff821415617a2b57617a2a617a36565b5b600182019050919050565b7f4e487b7100000000000000000000000000000000000000000000000000000000600052601160045260246000fd5b7f4e487b7100000000000000000000000000000000000000000000000000000000600052601260045260246000fd5b7f4e487b7100000000000000000000000000000000000000000000000000000000600052602260045260246000fd5b7f4e487b7100000000000000000000000000000000000000000000000000000000600052604160045260246000fd5b6000601f19601f8301169050919050565b60008160011c9050919050565b7f4d4453543a20596f752061726520616c7265616479207265676973746572656460008201527f20696e20612046616d696c790000000000000000000000000000000000000000602082015250565b7f4552433737373a20617070726f76652066726f6d20746865207a65726f20616460008201527f6472657373000000000000000000000000000000000000000000000000000000602082015250565b7f4552433737373a2073656e642066726f6d20746865207a65726f20616464726560008201527f7373000000000000000000000000000000000000000000000000000000000000602082015250565b7f4d4453543a204e6f2062616c616e636520666f756e6420666f7220746861742060008201527f616d6f756e740000000000000000000000000000000000000000000000000000602082015250565b7f537461626c65446f6c6c6172436f6e74726163743a204e6f2062616c616e636560008201527f20666f756e6420666f72207468617420616d6f756e7400000000000000000000602082015250565b7f4552433737373a207472616e7366657220616d6f756e7420657863656564732060008201527f62616c616e636500000000000000000000000000000000000000000000000000602082015250565b7f45524331393637557067726164653a207570677261646520627265616b73206660008201527f7572746865722075706772616465730000000000000000000000000000000000602082015250565b7f4f776e61626c653a206e6577206f776e657220697320746865207a65726f206160008201527f6464726573730000000000000000000000000000000000000000000000000000602082015250565b7f4d4453543a20596f7520617265206e6f7420796574207265676973746572656460008201527f20696e20612046616d696c790000000000000000000000000000000000000000602082015250565b7f4d4453543a2049742063616e6e6f7420696e7665737420746f20746865207a6560008201527f726f206164647265737300000000000000000000000000000000000000000000602082015250565b7f4552433737373a206275726e2066726f6d20746865207a65726f20616464726560008201527f7373000000000000000000000000000000000000000000000000000000000000602082015250565b7f4552433737373a20617574686f72697a696e672073656c66206173206f70657260008201527f61746f7200000000000000000000000000000000000000000000000000000000602082015250565b7f4d4453543a204e6f2066756e64732070656e64696e6720666f7220746869732060008201527f6164647265737300000000000000000000000000000000000000000000000000602082015250565b7f4d4453543a204661696c656420746f2073656e6420457468657220746f20612060008201527f537461626c6520446f6c6c61727320436f6e7472616374000000000000000000602082015250565b7f4d4453543a204164647265737320646f6573206e6f7420636f72726573706f6e60008201527f6420746f20612066616d696c7920616464726573730000000000000000000000602082015250565b7f4552433737373a207265766f6b696e672073656c66206173206f70657261746f60008201527f7200000000000000000000000000000000000000000000000000000000000000602082015250565b7f496e697469616c697a61626c653a20636f6e747261637420697320616c72656160008201527f647920696e697469616c697a6564000000000000000000000000000000000000602082015250565b7f4d4453543a2054686973206163636f756e7420697320616c726561647920726560008201527f676973746572656420696e20612046616d696c79000000000000000000000000602082015250565b7f4552433737373a206d696e7420746f20746865207a65726f2061646472657373600082015250565b7f455243313936373a206e657720696d706c656d656e746174696f6e206973206e60008201527f6f74206120636f6e747261637400000000000000000000000000000000000000602082015250565b7f4f776e61626c653a2063616c6c6572206973206e6f7420746865206f776e6572600082015250565b7f4552433737373a20746f6b656e20726563697069656e7420636f6e747261637460008201527f20686173206e6f20696d706c656d656e74657220666f7220455243373737546f60208201527f6b656e73526563697069656e7400000000000000000000000000000000000000604082015250565b7f4552433737373a207472616e7366657220746f20746865207a65726f2061646460008201527f7265737300000000000000000000000000000000000000000000000000000000602082015250565b7f416464726573733a2064656c65676174652063616c6c20746f206e6f6e2d636f60008201527f6e74726163740000000000000000000000000000000000000000000000000000602082015250565b50565b7f4552433737373a2063616c6c6572206973206e6f7420616e206f70657261746f60008201527f7220666f7220686f6c6465720000000000000000000000000000000000000000602082015250565b7f4552433737373a207472616e7366657220616d6f756e7420657863656564732060008201527f616c6c6f77616e63650000000000000000000000000000000000000000000000602082015250565b7f4552433737373a207472616e736665722066726f6d20746865207a65726f206160008201527f6464726573730000000000000000000000000000000000000000000000000000602082015250565b7f4552433737373a206275726e20616d6f756e7420657863656564732062616c6160008201527f6e63650000000000000000000000000000000000000000000000000000000000602082015250565b7f4552433737373a2073656e6420746f20746865207a65726f2061646472657373600082015250565b7f4552433737373a20617070726f766520746f20746865207a65726f206164647260008201527f6573730000000000000000000000000000000000000000000000000000000000602082015250565b618412816178c9565b811461841d57600080fd5b50565b618429816178db565b811461843457600080fd5b50565b618440816178e7565b811461844b57600080fd5b50565b618457816178f1565b811461846257600080fd5b50565b61846e8161791b565b811461847957600080fd5b50565b61848581617925565b811461849057600080fd5b50565b61849c81617932565b81146184a757600080fd5b5056fe416464726573733a206c6f772d6c6576656c2064656c65676174652063616c6c206661696c6564a2646970667358221220ddcfb7f5b71ac1ae36996f61c944e2861bd79cfa52bca5b89761566a13125ce464736f6c63430008040033",
  "immutableReferences": {},
  "source": "// SPDX-License-Identifier: MIT\r\n\r\npragma solidity 0.8.4;\r\n\r\nimport \"./MedShareToken.sol\";\r\nimport \"./utils/StringsAndBytes.sol\";\r\n\r\ncontract MedShare is MedShareToken {\r\n\r\n    \r\n    // Biblical Principles\r\n    address storeHouseAddress = 0x7125fc5F7B09330a37D863fAb18aeBFdDf9f5382; // Genesis4149\r\n    \r\n   \r\n    // Maps every family address to its own family name\r\n    mapping(address => bytes32) private _familyNames;\r\n    // Each account should be linked to one family\r\n    mapping(address => address) private _userFamilies;\r\n    // If the user has or not registered himself yet\r\n    mapping(address => bool) private _registeredUsers;\r\n    // Amount that every user has sown into his family (tenth)\r\n    mapping(address => mapping(address => uint256)) private _shares;\r\n\r\n    /**\r\n     * @dev Test the Biblical Principles\r\n     * @param amount can be any positive value\r\n     * @return result that should give the same value of the input\r\n     */\r\n    function testBiblicalPrinciples(uint256 amount) public view returns (uint256 result) {\r\n        uint256 cached = (amount * 6167) / 10000;\r\n        uint256 fifth = amount / principles.fifth;\r\n        uint256 twelfth = (amount * 833) / 10000;\r\n        uint256 tenth = amount / principles.tenth;\r\n\r\n        return cached + fifth + twelfth + tenth;\r\n    }\r\n\r\n    /**\r\n     * @dev Sets another storeHouseAddress\r\n     */\r\n    function setStoreHouseAddress(address _storeHouseAddress) public onlyOwner {\r\n        uint256 amount = balanceOf(storeHouseAddress);\r\n        super.transfer(_storeHouseAddress, amount);\r\n        storeHouseAddress = _storeHouseAddress;\r\n    }\r\n    \r\n    /**\r\n     * @dev Return family address\r\n     */\r\n    function getFamilyAddress(string memory _familyName) public pure returns (address) {\r\n        bytes32 _familyNameB32 = keccak256(abi.encodePacked(_familyName));\r\n        return address(uint160(uint256(_familyNameB32)));\r\n    }\r\n    \r\n    /**\r\n     * @dev Return caller family address\r\n     */\r\n    function getCallerFamilyAddress() public view returns (address) {\r\n        return _userFamilies[msg.sender];\r\n    }\r\n    \r\n    /**\r\n     * @dev Return family name\r\n     */\r\n    function getFamilyName(address _familyAddress) public view returns (string memory) {\r\n        return StringsAndBytes.bytes32ToString(_familyNames[_familyAddress]);\r\n    }\r\n    \r\n    /**\r\n     * @dev Retrieve the family name for a specific person's address.\r\n     * We may increase the security for this search*\r\n     */\r\n    function getUserFamilyName(address _userAddress) public view returns (string memory) {\r\n        address _familyAddress = _userFamilies[_userAddress];\r\n        return StringsAndBytes.bytes32ToString(_familyNames[_familyAddress]);\r\n    }\r\n    \r\n    /**\r\n     * @dev Return user's family name\r\n     */\r\n    function getMyFamilyName() public view returns (string memory) {\r\n        address _familyAddress = _userFamilies[msg.sender];\r\n        return StringsAndBytes.bytes32ToString(_familyNames[_familyAddress]);\r\n    }\r\n    \r\n    /**\r\n     * @dev Return family's balance in MDST\r\n     */\r\n    function getFamilyBalance(string memory _familyName) public view returns (uint256) {\r\n        address _familyAddress = getFamilyAddress(_familyName);\r\n        return balanceOf(_familyAddress);\r\n    }\r\n   \r\n    /**\r\n     * @dev Return my family's balance in MDST\r\n     */\r\n    function getMyFamilyBalance() public view returns (uint256) {\r\n        address _myFamilyAddress = _userFamilies[msg.sender];\r\n        return balanceOf(_myFamilyAddress);\r\n    }\r\n    \r\n    event Register( \r\n        address _from, \r\n        address _familyAddress,\r\n        string _familyNameStr,\r\n        bytes32 _familyName\r\n    );\r\n    \r\n    /**\r\n     * @dev Register the user using his family name.\r\n     */\r\n    function register(string memory _familyName) public returns (address) {\r\n        require(!_registeredUsers[msg.sender], \"MDST: You are already registered in a Family\");\r\n        \r\n        address _familyAddress = getFamilyAddress(_familyName);\r\n        bytes32 _familyNameB32;\r\n        \r\n        if (_familyNames[_familyAddress] == bytes32(0x0)) {\r\n            _familyNameB32 = StringsAndBytes.stringToBytes32(_familyName);\r\n            _familyNames[_familyAddress] = _familyNameB32;\r\n        }\r\n    \r\n        _userFamilies[msg.sender] = _familyAddress;\r\n        _registeredUsers[msg.sender] = true;\r\n        \r\n        emit Register(msg.sender, _familyAddress, _familyName, _familyNameB32);\r\n        return _familyAddress;\r\n    }\r\n    \r\n    event RegisterMember( \r\n        address _from, \r\n        address _familyAddress,\r\n        string _familyNameStr,\r\n        bytes32 _familyNameB32\r\n    );\r\n    \r\n     /**\r\n     * @dev Register a user using a family name.\r\n     */\r\n    function registerMember(address _userAddress, string memory _familyName) public returns (address) {\r\n        require(!_registeredUsers[msg.sender], \"MDST: This account is already registered in a Family\");\r\n        \r\n        address _familyAddress = getFamilyAddress(_familyName);\r\n        bytes32 _familyNameB32;\r\n        \r\n        if (_familyNames[_familyAddress] == bytes32(0x0)) {\r\n            _familyNameB32 = StringsAndBytes.stringToBytes32(_familyName);\r\n            _familyNames[_familyAddress] = _familyNameB32;\r\n        }\r\n        \r\n        _userFamilies[_userAddress] = _familyAddress;\r\n        _registeredUsers[_userAddress] = true;\r\n        \r\n        emit RegisterMember(_userAddress, _familyAddress, _familyName, _familyNameB32);\r\n        \r\n        return _familyAddress;\r\n    }\r\n\r\n    event Invest( \r\n        address _from,\r\n        address _familyAddress,\r\n        uint256 _amountEth,\r\n        uint256 _cached,\r\n        uint256 _shares\r\n    );\r\n\r\n    /**\r\n     * @dev Invest in my Family\r\n     */\r\n    function invest() public payable returns (address) {\r\n        require(msg.sender != address(0x0), \"MDST: It cannot invest to the zero address\");\r\n        require(_registeredUsers[msg.sender], \"MDST: You are not yet registered in a Family\");\r\n\r\n        // Exchanging ETH for USD\r\n        uint256 usd = (msg.value * uint256(getEthUsdPrice())) / 10**getEthUsdPriceDecimals();\r\n        // Getting hTAG from XAG price and Exchanging USD for hTAG (MDST)\r\n        uint256 mdst = usd / ((principles.halfShekel * uint256(getXagUsdPrice())) / 10**(getXagUsdPriceDecimals() + 8));\r\n\r\n        uint256 cached = (mdst * 6167) / 10000;\r\n        uint256 fifth = mdst / principles.fifth;\r\n        uint256 tenth = mdst / principles.tenth;\r\n        uint256 twelfth = (mdst * 833) / 10000;\r\n\r\n        address _familyAddress = _userFamilies[msg.sender];\r\n        \r\n        _mint(msg.sender, cached, \"\", \"\");\r\n        _mint(storeHouseAddress, fifth, \"\", \"\");\r\n        _mint(_familyAddress, tenth, \"\", \"\");\r\n        _mint(owner(), twelfth, \"\", \"\");\r\n\r\n        _shares[_familyAddress][msg.sender] += tenth;\r\n        \r\n        emit Invest(msg.sender, _familyAddress, msg.value, cached, tenth);\r\n        \r\n        return _userFamilies[msg.sender];\r\n    }\r\n    \r\n     event InvestInAFamily( \r\n        address _from,\r\n        address _familyAddress,\r\n        uint256 _amountEth,\r\n        uint256 _shares\r\n    );\r\n    \r\n    /**\r\n     * @dev Invest in a Family not being registered in that family\r\n     */\r\n    function investInAFamily(string memory _familyName) public payable returns (bool) {\r\n        require(msg.sender != address(0), \"MDST: It cannot invest to the zero address\");\r\n        \r\n        // Exchanging ETH for USD\r\n        uint256 usd = (msg.value * uint256(getEthUsdPrice())) / 10**getEthUsdPriceDecimals();\r\n        // Getting hTAG from XAG price and Exchanging USD for hTAG (MDST)\r\n        uint256 mdst = usd / ((principles.halfShekel * uint256(getXagUsdPrice())) / 10**(getXagUsdPriceDecimals() + 8));\r\n\r\n        uint256 investment = (mdst * 7167) / 10000; // tenth plus cached\r\n        uint256 fifth = mdst / principles.fifth;\r\n        uint256 twelfth = (mdst * 833) / 10000;\r\n\r\n        address _familyAddress = getFamilyAddress(_familyName);\r\n        bytes32 _familyNameB32;\r\n        \r\n        if (_familyNames[_familyAddress] == bytes32(0x0)) {\r\n            _familyNameB32 = StringsAndBytes.stringToBytes32(_familyName);\r\n            _familyNames[_familyAddress] = _familyNameB32;\r\n        }\r\n        \r\n        // Larger amount minted to this family\r\n        _mint(_familyAddress, investment, \"\", \"\");\r\n        _mint(storeHouseAddress, fifth, \"\", \"\");\r\n        _mint(owner(), twelfth, \"\", \"\");\r\n\r\n        // This time the shares are bigger to the caller\r\n        _shares[_familyAddress][msg.sender] += investment;\r\n        \r\n        emit InvestInAFamily(msg.sender, _familyAddress, msg.value, investment);\r\n        \r\n        return true;\r\n    }\r\n    \r\n    event InvestInAFamilyAddress( \r\n        address _from,\r\n        address _familyAddress,\r\n        uint256 _amountEth,\r\n        uint256 _shares\r\n    );\r\n    \r\n    /**\r\n     * @dev Invest in a Family not being registered in that family\r\n     */\r\n    function investInAFamilyAddress(address _familyAddress) public payable returns (string memory) {\r\n        require(msg.sender != address(0), \"MDST: It cannot invest to the zero address\");\r\n        require(_familyNames[_familyAddress] != bytes32(0x0), \"MDST: Address does not correspond to a family address\");\r\n        \r\n        // Exchanging ETH for USD\r\n        uint256 usd = (msg.value * uint256(getEthUsdPrice())) / 10**getEthUsdPriceDecimals();\r\n        // Getting hTAG from XAG price and Exchanging USD for hTAG (MDST)\r\n        uint256 mdst = usd / ((principles.halfShekel * uint256(getXagUsdPrice())) / 10**(getXagUsdPriceDecimals() + 8));\r\n\r\n        uint256 investment = (mdst * 7167) / 10000; // tenth plus cached\r\n        uint256 fifth = mdst / principles.fifth;\r\n        uint256 twelfth = (mdst * 833) / 10000;\r\n        \r\n        // Larger amount minted to this family\r\n        _mint(_familyAddress, investment, \"\", \"\");\r\n        _mint(storeHouseAddress, fifth, \"\", \"\");\r\n        _mint(owner(), twelfth, \"\", \"\");\r\n\r\n        // This time the shares are bigger to the caller\r\n        _shares[_familyAddress][msg.sender] += investment;\r\n        \r\n        emit InvestInAFamilyAddress(msg.sender, _familyAddress, msg.value, investment);\r\n        \r\n        return getFamilyName(_familyAddress);\r\n    }\r\n\r\n    /**\r\n     * @dev Function to query this contract's Stable Dollars reserve balance\r\n     */\r\n    function getContractStableDollarsBalance() external view returns (uint256) {\r\n        // transfers stable Dollars that belong to your contract to the specified address\r\n        return sda.balanceOf(address(this));\r\n    }\r\n\r\n    /**\r\n     * @dev Function to Send ETH to Stable Dollars contract\r\n     */\r\n    function sendEthToStableDollarsContract(uint256 _amount) external onlyOwner {\r\n        require(address(this).balance >= _amount, \"MDST: No balance found for that amount\");\r\n        \r\n        // Call returns a boolean value indicating success or failure.\r\n        // This is the current recommended method to use.\r\n        (bool sent, bytes memory data) = address(sda).call{value: _amount}(\"\");\r\n        \r\n        require(sent, \"MDST: Failed to send Ether to a Stable Dollars Contract\");\r\n    }\r\n\r\n    /**\r\n     * @dev Function to Send Stable Dollars to another address using this Contract's Stable Dollars Balance\r\n     * inside Stable Dollars Contract.\r\n     */\r\n    function sendStableDollars(address _to, uint256 _amount) external onlyOwner {\r\n        require(\r\n            sda.balanceOf(address(this)) >= _amount,\r\n            \"StableDollarContract: No balance found for that amount\"\r\n        );\r\n        // transfers Dollars that belong to this contract to the specified address _to\r\n        sda.transfer(_to, _amount);\r\n    }\r\n    \r\n    /**\r\n     * @dev Contract's balance in ETHER.\r\n     */\r\n    function totalContractBalance() external view returns (uint256) {\r\n        return address(this).balance;\r\n    }\r\n\r\n    /**\r\n     * @dev Function to Withdraw certain amount\r\n     * of funds in ETHER. This method is here\r\n     * so the Owner can be able to withdraw funds\r\n     * in case that there is a need\r\n     * of exchanging the amount of ETHER stored\r\n     * in this contract for some other Asset, Fiat or the Like.\r\n     */\r\n    function withdrawSome(uint256 amount) external onlyOwner {\r\n        require(\r\n            address(this).balance >= amount,\r\n            \"MDST: No balance found for that amount\"\r\n        );\r\n        payable(msg.sender).transfer(amount);\r\n    }\r\n\r\n    /**\r\n     * @dev Function to Withdraw all funds in ETHER.\r\n     * This method is here if there is a need\r\n     * of exchanging the amount of ETHER stored\r\n     * in this contract.\r\n     */\r\n    function withdrawAll() external onlyOwner {\r\n        uint256 amount = address(this).balance;\r\n        payable(msg.sender).transfer(amount);\r\n    }\r\n}\r\n",
  "sourcePath": "C:/Users/dimit/Documents/GitHub/ShalomEmpire/medshare/contracts/MedShare.sol",
  "compiler": {
    "name": "solc",
    "version": "0.8.4+commit.c7e474f2.Emscripten.clang"
  },
  "schemaVersion": "3.4.1",
  "updatedAt": "2021-07-26T21:48:28.432Z",
  "networkType": "ethereum",
  "devdoc": {
    "kind": "dev",
    "methods": {
      "allowance(address,address)": {
        "details": "See {IERC20-allowance}. Note that operator and allowance concepts are orthogonal: operators may not have allowance, and accounts with allowance may not be operators themselves."
      },
      "approve(address,uint256)": {
        "details": "See {IERC20-approve}. Note that accounts cannot have allowance issued by their operators."
      },
      "authorizeOperator(address)": {
        "details": "See {IERC777-authorizeOperator}."
      },
      "balanceOf(address)": {
        "details": "Returns the amount of tokens owned by an account (`tokenHolder`)."
      },
      "burn(uint256,bytes)": {
        "details": "See {IERC777-burn}. Also emits a {IERC20-Transfer} event for ERC20 compatibility."
      },
      "decimals()": {
        "details": "See {ERC20-decimals}. Always returns 18, as per the [ERC777 EIP](https://eips.ethereum.org/EIPS/eip-777#backward-compatibility)."
      },
      "defaultOperators()": {
        "details": "See {IERC777-defaultOperators}."
      },
      "getCallerFamilyAddress()": {
        "details": "Return caller family address"
      },
      "getContractStableDollarsBalance()": {
        "details": "Function to query this contract's Stable Dollars reserve balance"
      },
      "getEthUsdPrice()": {
        "details": "Returns The latest ETH/USD price"
      },
      "getEthUsdPriceDecimals()": {
        "details": "Returns ETH/USD price decimals"
      },
      "getFamilyAddress(string)": {
        "details": "Return family address"
      },
      "getFamilyBalance(string)": {
        "details": "Return family's balance in MDST"
      },
      "getFamilyName(address)": {
        "details": "Return family name"
      },
      "getMyFamilyBalance()": {
        "details": "Return my family's balance in MDST"
      },
      "getMyFamilyName()": {
        "details": "Return user's family name"
      },
      "getUserFamilyName(address)": {
        "details": "Retrieve the family name for a specific person's address. We may increase the security for this search*"
      },
      "getXagUsdPrice()": {
        "details": "Returns The latest XAG/USD price"
      },
      "getXagUsdPriceDecimals()": {
        "details": "Returns XAG/USD price decimals"
      },
      "granularity()": {
        "details": "See {IERC777-granularity}. This implementation always returns `1`."
      },
      "hTAGxDollars(uint256)": {
        "details": "hTAG quotation in Dollars",
        "returns": {
          "result": "exchange rate htag/usd"
        }
      },
      "initialize(uint256,address[])": {
        "details": "This is the initialize function that starts this Token. It should be called as soon as possible. Network: Rinkeby Aggregator: ETH/USD Address: 0x8A753747A1Fa494EC906cE90E9f37563A8AF630e Aggregator: XAG/USD Address: 0x9c1946428f4f159dB4889aA6B218833f467e1BfD"
      },
      "invest()": {
        "details": "Invest in my Family"
      },
      "investInAFamily(string)": {
        "details": "Invest in a Family not being registered in that family"
      },
      "investInAFamilyAddress(address)": {
        "details": "Invest in a Family not being registered in that family"
      },
      "isOperatorFor(address,address)": {
        "details": "See {IERC777-isOperatorFor}."
      },
      "name()": {
        "details": "See {IERC777-name}."
      },
      "operatorBurn(address,uint256,bytes,bytes)": {
        "details": "See {IERC777-operatorBurn}. Emits {Burned} and {IERC20-Transfer} events."
      },
      "operatorSend(address,address,uint256,bytes,bytes)": {
        "details": "See {IERC777-operatorSend}. Emits {Sent} and {IERC20-Transfer} events."
      },
      "owner()": {
        "details": "Returns the address of the current owner."
      },
      "register(string)": {
        "details": "Register the user using his family name."
      },
      "registerMember(address,string)": {
        "details": "Register a user using a family name."
      },
      "renounceOwnership()": {
        "details": "Leaves the contract without owner. It will not be possible to call `onlyOwner` functions anymore. Can only be called by the current owner. NOTE: Renouncing ownership will leave the contract without an owner, thereby removing any functionality that is only available to the owner."
      },
      "revokeOperator(address)": {
        "details": "See {IERC777-revokeOperator}."
      },
      "send(address,uint256,bytes)": {
        "details": "See {IERC777-send}. Also emits a {IERC20-Transfer} event for ERC20 compatibility."
      },
      "sendEthToStableDollarsContract(uint256)": {
        "details": "Function to Send ETH to Stable Dollars contract"
      },
      "sendStableDollars(address,uint256)": {
        "details": "Function to Send Stable Dollars to another address using this Contract's Stable Dollars Balance inside Stable Dollars Contract."
      },
      "setStoreHouseAddress(address)": {
        "details": "Sets another storeHouseAddress"
      },
      "symbol()": {
        "details": "See {IERC777-symbol}."
      },
      "testBiblicalPrinciples(uint256)": {
        "details": "Test the Biblical Principles",
        "params": {
          "amount": "can be any positive value"
        },
        "returns": {
          "result": "that should give the same value of the input"
        }
      },
      "testImperialPrinciples(uint256)": {
        "details": "Test the Imperial Principles",
        "params": {
          "amount": "can be any positive value"
        },
        "returns": {
          "result": "that should give the actual amount in half shekels"
        }
      },
      "totalContractBalance()": {
        "details": "Contract's balance in ETHER."
      },
      "totalSupply()": {
        "details": "See {IERC777-totalSupply}."
      },
      "transfer(address,uint256)": {
        "details": "See {IERC20-transfer}. Unlike `send`, `recipient` is _not_ required to implement the {IERC777Recipient} interface if it is a contract. Also emits a {Sent} event."
      },
      "transferFrom(address,address,uint256)": {
        "details": "See {IERC20-transferFrom}. Note that operator and allowance concepts are orthogonal: operators cannot call `transferFrom` (unless they have allowance), and accounts with allowance cannot call `operatorSend` (unless they are operators). Emits {Sent}, {IERC20-Transfer} and {IERC20-Approval} events."
      },
      "transferOwnership(address)": {
        "details": "Transfers ownership of the contract to a new account (`newOwner`). Can only be called by the current owner."
      },
      "upgradeTo(address)": {
        "details": "Upgrade the implementation of the proxy to `newImplementation`. Calls {_authorizeUpgrade}. Emits an {Upgraded} event."
      },
      "upgradeToAndCall(address,bytes)": {
        "details": "Upgrade the implementation of the proxy to `newImplementation`, and subsequently execute the function call encoded in `data`. Calls {_authorizeUpgrade}. Emits an {Upgraded} event."
      },
      "withdraw()": {
        "details": "Function to Withdraw funds that came to this contract without going through the Invest() function."
      },
      "withdrawAll()": {
        "details": "Function to Withdraw all funds in ETHER. This method is here if there is a need of exchanging the amount of ETHER stored in this contract."
      },
      "withdrawSome(uint256)": {
        "details": "Function to Withdraw certain amount of funds in ETHER. This method is here so the Owner can be able to withdraw funds in case that there is a need of exchanging the amount of ETHER stored in this contract for some other Asset, Fiat or the Like."
      }
    },
    "version": 1
  },
  "userdoc": {
    "kind": "user",
    "methods": {},
    "version": 1
  }
}