{
  "contractName": "MedShareToken",
  "abi": [
    {
      "anonymous": false,
      "inputs": [
        {
          "indexed": false,
          "internalType": "address",
          "name": "previousAdmin",
          "type": "address"
        },
        {
          "indexed": false,
          "internalType": "address",
          "name": "newAdmin",
          "type": "address"
        }
      ],
      "name": "AdminChanged",
      "type": "event"
    },
    {
      "anonymous": false,
      "inputs": [
        {
          "indexed": true,
          "internalType": "address",
          "name": "owner",
          "type": "address"
        },
        {
          "indexed": true,
          "internalType": "address",
          "name": "spender",
          "type": "address"
        },
        {
          "indexed": false,
          "internalType": "uint256",
          "name": "value",
          "type": "uint256"
        }
      ],
      "name": "Approval",
      "type": "event"
    },
    {
      "anonymous": false,
      "inputs": [
        {
          "indexed": true,
          "internalType": "address",
          "name": "operator",
          "type": "address"
        },
        {
          "indexed": true,
          "internalType": "address",
          "name": "tokenHolder",
          "type": "address"
        }
      ],
      "name": "AuthorizedOperator",
      "type": "event"
    },
    {
      "anonymous": false,
      "inputs": [
        {
          "indexed": true,
          "internalType": "address",
          "name": "beacon",
          "type": "address"
        }
      ],
      "name": "BeaconUpgraded",
      "type": "event"
    },
    {
      "anonymous": false,
      "inputs": [
        {
          "indexed": true,
          "internalType": "address",
          "name": "operator",
          "type": "address"
        },
        {
          "indexed": true,
          "internalType": "address",
          "name": "from",
          "type": "address"
        },
        {
          "indexed": false,
          "internalType": "uint256",
          "name": "amount",
          "type": "uint256"
        },
        {
          "indexed": false,
          "internalType": "bytes",
          "name": "data",
          "type": "bytes"
        },
        {
          "indexed": false,
          "internalType": "bytes",
          "name": "operatorData",
          "type": "bytes"
        }
      ],
      "name": "Burned",
      "type": "event"
    },
    {
      "anonymous": false,
      "inputs": [
        {
          "indexed": false,
          "internalType": "address",
          "name": "",
          "type": "address"
        },
        {
          "indexed": false,
          "internalType": "uint256",
          "name": "",
          "type": "uint256"
        }
      ],
      "name": "Fallenback",
      "type": "event"
    },
    {
      "anonymous": false,
      "inputs": [
        {
          "indexed": true,
          "internalType": "address",
          "name": "operator",
          "type": "address"
        },
        {
          "indexed": true,
          "internalType": "address",
          "name": "to",
          "type": "address"
        },
        {
          "indexed": false,
          "internalType": "uint256",
          "name": "amount",
          "type": "uint256"
        },
        {
          "indexed": false,
          "internalType": "bytes",
          "name": "data",
          "type": "bytes"
        },
        {
          "indexed": false,
          "internalType": "bytes",
          "name": "operatorData",
          "type": "bytes"
        }
      ],
      "name": "Minted",
      "type": "event"
    },
    {
      "anonymous": false,
      "inputs": [
        {
          "indexed": true,
          "internalType": "address",
          "name": "previousOwner",
          "type": "address"
        },
        {
          "indexed": true,
          "internalType": "address",
          "name": "newOwner",
          "type": "address"
        }
      ],
      "name": "OwnershipTransferred",
      "type": "event"
    },
    {
      "anonymous": false,
      "inputs": [
        {
          "indexed": false,
          "internalType": "address",
          "name": "",
          "type": "address"
        },
        {
          "indexed": false,
          "internalType": "uint256",
          "name": "",
          "type": "uint256"
        }
      ],
      "name": "Received",
      "type": "event"
    },
    {
      "anonymous": false,
      "inputs": [
        {
          "indexed": true,
          "internalType": "address",
          "name": "operator",
          "type": "address"
        },
        {
          "indexed": true,
          "internalType": "address",
          "name": "tokenHolder",
          "type": "address"
        }
      ],
      "name": "RevokedOperator",
      "type": "event"
    },
    {
      "anonymous": false,
      "inputs": [
        {
          "indexed": true,
          "internalType": "address",
          "name": "operator",
          "type": "address"
        },
        {
          "indexed": true,
          "internalType": "address",
          "name": "from",
          "type": "address"
        },
        {
          "indexed": true,
          "internalType": "address",
          "name": "to",
          "type": "address"
        },
        {
          "indexed": false,
          "internalType": "uint256",
          "name": "amount",
          "type": "uint256"
        },
        {
          "indexed": false,
          "internalType": "bytes",
          "name": "data",
          "type": "bytes"
        },
        {
          "indexed": false,
          "internalType": "bytes",
          "name": "operatorData",
          "type": "bytes"
        }
      ],
      "name": "Sent",
      "type": "event"
    },
    {
      "anonymous": false,
      "inputs": [
        {
          "indexed": true,
          "internalType": "address",
          "name": "from",
          "type": "address"
        },
        {
          "indexed": true,
          "internalType": "address",
          "name": "to",
          "type": "address"
        },
        {
          "indexed": false,
          "internalType": "uint256",
          "name": "value",
          "type": "uint256"
        }
      ],
      "name": "Transfer",
      "type": "event"
    },
    {
      "anonymous": false,
      "inputs": [
        {
          "indexed": true,
          "internalType": "address",
          "name": "implementation",
          "type": "address"
        }
      ],
      "name": "Upgraded",
      "type": "event"
    },
    {
      "stateMutability": "payable",
      "type": "fallback",
      "payable": true
    },
    {
      "inputs": [
        {
          "internalType": "address",
          "name": "holder",
          "type": "address"
        },
        {
          "internalType": "address",
          "name": "spender",
          "type": "address"
        }
      ],
      "name": "allowance",
      "outputs": [
        {
          "internalType": "uint256",
          "name": "",
          "type": "uint256"
        }
      ],
      "stateMutability": "view",
      "type": "function",
      "constant": true
    },
    {
      "inputs": [
        {
          "internalType": "address",
          "name": "spender",
          "type": "address"
        },
        {
          "internalType": "uint256",
          "name": "value",
          "type": "uint256"
        }
      ],
      "name": "approve",
      "outputs": [
        {
          "internalType": "bool",
          "name": "",
          "type": "bool"
        }
      ],
      "stateMutability": "nonpayable",
      "type": "function"
    },
    {
      "inputs": [
        {
          "internalType": "address",
          "name": "operator",
          "type": "address"
        }
      ],
      "name": "authorizeOperator",
      "outputs": [],
      "stateMutability": "nonpayable",
      "type": "function"
    },
    {
      "inputs": [
        {
          "internalType": "address",
          "name": "tokenHolder",
          "type": "address"
        }
      ],
      "name": "balanceOf",
      "outputs": [
        {
          "internalType": "uint256",
          "name": "",
          "type": "uint256"
        }
      ],
      "stateMutability": "view",
      "type": "function",
      "constant": true
    },
    {
      "inputs": [
        {
          "internalType": "uint256",
          "name": "amount",
          "type": "uint256"
        },
        {
          "internalType": "bytes",
          "name": "data",
          "type": "bytes"
        }
      ],
      "name": "burn",
      "outputs": [],
      "stateMutability": "nonpayable",
      "type": "function"
    },
    {
      "inputs": [],
      "name": "decimals",
      "outputs": [
        {
          "internalType": "uint8",
          "name": "",
          "type": "uint8"
        }
      ],
      "stateMutability": "pure",
      "type": "function",
      "constant": true
    },
    {
      "inputs": [],
      "name": "defaultOperators",
      "outputs": [
        {
          "internalType": "address[]",
          "name": "",
          "type": "address[]"
        }
      ],
      "stateMutability": "view",
      "type": "function",
      "constant": true
    },
    {
      "inputs": [],
      "name": "granularity",
      "outputs": [
        {
          "internalType": "uint256",
          "name": "",
          "type": "uint256"
        }
      ],
      "stateMutability": "view",
      "type": "function",
      "constant": true
    },
    {
      "inputs": [
        {
          "internalType": "address",
          "name": "operator",
          "type": "address"
        },
        {
          "internalType": "address",
          "name": "tokenHolder",
          "type": "address"
        }
      ],
      "name": "isOperatorFor",
      "outputs": [
        {
          "internalType": "bool",
          "name": "",
          "type": "bool"
        }
      ],
      "stateMutability": "view",
      "type": "function",
      "constant": true
    },
    {
      "inputs": [],
      "name": "name",
      "outputs": [
        {
          "internalType": "string",
          "name": "",
          "type": "string"
        }
      ],
      "stateMutability": "view",
      "type": "function",
      "constant": true
    },
    {
      "inputs": [
        {
          "internalType": "address",
          "name": "account",
          "type": "address"
        },
        {
          "internalType": "uint256",
          "name": "amount",
          "type": "uint256"
        },
        {
          "internalType": "bytes",
          "name": "data",
          "type": "bytes"
        },
        {
          "internalType": "bytes",
          "name": "operatorData",
          "type": "bytes"
        }
      ],
      "name": "operatorBurn",
      "outputs": [],
      "stateMutability": "nonpayable",
      "type": "function"
    },
    {
      "inputs": [
        {
          "internalType": "address",
          "name": "sender",
          "type": "address"
        },
        {
          "internalType": "address",
          "name": "recipient",
          "type": "address"
        },
        {
          "internalType": "uint256",
          "name": "amount",
          "type": "uint256"
        },
        {
          "internalType": "bytes",
          "name": "data",
          "type": "bytes"
        },
        {
          "internalType": "bytes",
          "name": "operatorData",
          "type": "bytes"
        }
      ],
      "name": "operatorSend",
      "outputs": [],
      "stateMutability": "nonpayable",
      "type": "function"
    },
    {
      "inputs": [],
      "name": "owner",
      "outputs": [
        {
          "internalType": "address",
          "name": "",
          "type": "address"
        }
      ],
      "stateMutability": "view",
      "type": "function",
      "constant": true
    },
    {
      "inputs": [],
      "name": "renounceOwnership",
      "outputs": [],
      "stateMutability": "nonpayable",
      "type": "function"
    },
    {
      "inputs": [
        {
          "internalType": "address",
          "name": "operator",
          "type": "address"
        }
      ],
      "name": "revokeOperator",
      "outputs": [],
      "stateMutability": "nonpayable",
      "type": "function"
    },
    {
      "inputs": [
        {
          "internalType": "address",
          "name": "recipient",
          "type": "address"
        },
        {
          "internalType": "uint256",
          "name": "amount",
          "type": "uint256"
        },
        {
          "internalType": "bytes",
          "name": "data",
          "type": "bytes"
        }
      ],
      "name": "send",
      "outputs": [],
      "stateMutability": "nonpayable",
      "type": "function"
    },
    {
      "inputs": [],
      "name": "symbol",
      "outputs": [
        {
          "internalType": "string",
          "name": "",
          "type": "string"
        }
      ],
      "stateMutability": "view",
      "type": "function",
      "constant": true
    },
    {
      "inputs": [],
      "name": "totalSupply",
      "outputs": [
        {
          "internalType": "uint256",
          "name": "",
          "type": "uint256"
        }
      ],
      "stateMutability": "view",
      "type": "function",
      "constant": true
    },
    {
      "inputs": [
        {
          "internalType": "address",
          "name": "recipient",
          "type": "address"
        },
        {
          "internalType": "uint256",
          "name": "amount",
          "type": "uint256"
        }
      ],
      "name": "transfer",
      "outputs": [
        {
          "internalType": "bool",
          "name": "",
          "type": "bool"
        }
      ],
      "stateMutability": "nonpayable",
      "type": "function"
    },
    {
      "inputs": [
        {
          "internalType": "address",
          "name": "holder",
          "type": "address"
        },
        {
          "internalType": "address",
          "name": "recipient",
          "type": "address"
        },
        {
          "internalType": "uint256",
          "name": "amount",
          "type": "uint256"
        }
      ],
      "name": "transferFrom",
      "outputs": [
        {
          "internalType": "bool",
          "name": "",
          "type": "bool"
        }
      ],
      "stateMutability": "nonpayable",
      "type": "function"
    },
    {
      "inputs": [
        {
          "internalType": "address",
          "name": "newOwner",
          "type": "address"
        }
      ],
      "name": "transferOwnership",
      "outputs": [],
      "stateMutability": "nonpayable",
      "type": "function"
    },
    {
      "inputs": [
        {
          "internalType": "address",
          "name": "newImplementation",
          "type": "address"
        }
      ],
      "name": "upgradeTo",
      "outputs": [],
      "stateMutability": "nonpayable",
      "type": "function"
    },
    {
      "inputs": [
        {
          "internalType": "address",
          "name": "newImplementation",
          "type": "address"
        },
        {
          "internalType": "bytes",
          "name": "data",
          "type": "bytes"
        }
      ],
      "name": "upgradeToAndCall",
      "outputs": [],
      "stateMutability": "payable",
      "type": "function",
      "payable": true
    },
    {
      "stateMutability": "payable",
      "type": "receive",
      "payable": true
    },
    {
      "inputs": [
        {
          "internalType": "uint256",
          "name": "initialSupply",
          "type": "uint256"
        },
        {
          "internalType": "address[]",
          "name": "defaultOperators",
          "type": "address[]"
        }
      ],
      "name": "initialize",
      "outputs": [],
      "stateMutability": "nonpayable",
      "type": "function"
    },
    {
      "inputs": [
        {
          "internalType": "uint256",
          "name": "amount",
          "type": "uint256"
        }
      ],
      "name": "hTAGxDollars",
      "outputs": [
        {
          "internalType": "uint256",
          "name": "result",
          "type": "uint256"
        }
      ],
      "stateMutability": "view",
      "type": "function",
      "constant": true
    },
    {
      "inputs": [],
      "name": "getEthUsdPrice",
      "outputs": [
        {
          "internalType": "int256",
          "name": "",
          "type": "int256"
        }
      ],
      "stateMutability": "view",
      "type": "function",
      "constant": true
    },
    {
      "inputs": [],
      "name": "getEthUsdPriceDecimals",
      "outputs": [
        {
          "internalType": "uint8",
          "name": "",
          "type": "uint8"
        }
      ],
      "stateMutability": "view",
      "type": "function",
      "constant": true
    },
    {
      "inputs": [],
      "name": "getXagUsdPrice",
      "outputs": [
        {
          "internalType": "int256",
          "name": "",
          "type": "int256"
        }
      ],
      "stateMutability": "view",
      "type": "function",
      "constant": true
    },
    {
      "inputs": [],
      "name": "getXagUsdPriceDecimals",
      "outputs": [
        {
          "internalType": "uint8",
          "name": "",
          "type": "uint8"
        }
      ],
      "stateMutability": "view",
      "type": "function",
      "constant": true
    },
    {
      "inputs": [
        {
          "internalType": "uint256",
          "name": "amount",
          "type": "uint256"
        }
      ],
      "name": "testImperialPrinciples",
      "outputs": [
        {
          "internalType": "uint256",
          "name": "result",
          "type": "uint256"
        }
      ],
      "stateMutability": "view",
      "type": "function",
      "constant": true
    },
    {
      "inputs": [],
      "name": "withdraw",
      "outputs": [],
      "stateMutability": "nonpayable",
      "type": "function"
    }
  ],
  "bytecode": "0x6080604052604051806080016040528060058152602001600a8152602001600c8152602001630178e4a681525060fd600082015181600001556020820151816001015560408201518160020155606082015181600301555050733d2aec4725b69e4fc5c1d9d75acbfacc1a4de4f561010160006101000a81548173ffffffffffffffffffffffffffffffffffffffff021916908373ffffffffffffffffffffffffffffffffffffffff16021790555061010160009054906101000a900473ffffffffffffffffffffffffffffffffffffffff1661010260006101000a81548173ffffffffffffffffffffffffffffffffffffffff021916908373ffffffffffffffffffffffffffffffffffffffff16021790555034801561011f57600080fd5b5061593c80620001306000396000f3fe6080604052600436106101dc5760003560e01c8063948bd0dd11610102578063c353feed11610095578063f2fde38b11610064578063f2fde38b146107dd578063fad8b32a14610806578063fc673c4f1461082f578063fe9d93031461085857610273565b8063c353feed1461070d578063d95b637114610738578063dd62ed3e14610775578063e1bf83bb146107b257610273565b8063a0a8045e116100d1578063a0a8045e14610651578063a9059cbb1461067c578063a920b78c146106b9578063bef93bcc146106e257610273565b8063948bd0dd14610597578063959b8c3f146105d457806395d89b41146105fd5780639bd9bbc61461062857610273565b80633659cfe61161017a57806362ad1b831161014957806362ad1b83146104ef57806370a0823114610518578063715018a6146105555780638da5cb5b1461056c57610273565b80633659cfe6146104685780633ccfd60b146104915780634f1ef286146104a8578063556f0dc7146104c457610273565b8063119aa4f8116101b6578063119aa4f81461039857806318160ddd146103d557806323b872dd14610400578063313ce5671461043d57610273565b806306e485381461030557806306fdde0314610330578063095ea7b31461035b57610273565b36610273573461010360003373ffffffffffffffffffffffffffffffffffffffff1673ffffffffffffffffffffffffffffffffffffffff16815260200190815260200160002060008282546102319190614cea565b925050819055507f88a5966d370b9919b20f3e2c13ff65706f196a4e32cc2c12bf57088f88525874333460405161026992919061480e565b60405180910390a1005b3461010360003373ffffffffffffffffffffffffffffffffffffffff1673ffffffffffffffffffffffffffffffffffffffff16815260200190815260200160002060008282546102c39190614cea565b925050819055507fdd0c6dcd8a41c79db8ee6a77fcbc237d2b36d3ae392e7902ed2583cbed684b5c33346040516102fb92919061480e565b60405180910390a1005b34801561031157600080fd5b5061031a610881565b6040516103279190614837565b60405180910390f35b34801561033c57600080fd5b5061034561090f565b604051610352919061488f565b60405180910390f35b34801561036757600080fd5b50610382600480360381019061037d9190613fe2565b6109a1565b60405161038f9190614859565b60405180910390f35b3480156103a457600080fd5b506103bf60048036038101906103ba9190614118565b6109c4565b6040516103cc9190614b71565b60405180910390f35b3480156103e157600080fd5b506103ea610a1a565b6040516103f79190614b71565b60405180910390f35b34801561040c57600080fd5b5061042760048036038101906104229190613e98565b610a24565b6040516104349190614859565b60405180910390f35b34801561044957600080fd5b50610452610c7e565b60405161045f9190614bd1565b60405180910390f35b34801561047457600080fd5b5061048f600480360381019061048a9190613e0a565b610c87565b005b34801561049d57600080fd5b506104a6610cae565b005b6104c260048036038101906104bd9190613f8e565b610e06565b005b3480156104d057600080fd5b506104d9610e1f565b6040516104e69190614b71565b60405180910390f35b3480156104fb57600080fd5b5061051660048036038101906105119190613ee7565b610e28565b005b34801561052457600080fd5b5061053f600480360381019061053a9190613e0a565b610e8e565b60405161054c9190614b71565b60405180910390f35b34801561056157600080fd5b5061056a610ed7565b005b34801561057857600080fd5b50610581610f5f565b60405161058e9190614724565b60405180910390f35b3480156105a357600080fd5b506105be60048036038101906105b99190614118565b610f89565b6040516105cb9190614b71565b60405180910390f35b3480156105e057600080fd5b506105fb60048036038101906105f69190613e0a565b61101a565b005b34801561060957600080fd5b5061061261127b565b60405161061f919061488f565b60405180910390f35b34801561063457600080fd5b5061064f600480360381019061064a919061401e565b61130d565b005b34801561065d57600080fd5b50610666611337565b6040516106739190614874565b60405180910390f35b34801561068857600080fd5b506106a3600480360381019061069e9190613fe2565b6113f5565b6040516106b09190614859565b60405180910390f35b3480156106c557600080fd5b506106e060048036038101906106db9190614141565b611503565b005b3480156106ee57600080fd5b506106f7611737565b6040516107049190614bd1565b60405180910390f35b34801561071957600080fd5b506107226117de565b60405161072f9190614bd1565b60405180910390f35b34801561074457600080fd5b5061075f600480360381019061075a9190613e5c565b611885565b60405161076c9190614859565b60405180910390f35b34801561078157600080fd5b5061079c60048036038101906107979190613e5c565b611a36565b6040516107a99190614b71565b60405180910390f35b3480156107be57600080fd5b506107c7611abd565b6040516107d49190614874565b60405180910390f35b3480156107e957600080fd5b5061080460048036038101906107ff9190613e0a565b611b7b565b005b34801561081257600080fd5b5061082d60048036038101906108289190613e0a565b611c73565b005b34801561083b57600080fd5b5061085660048036038101906108519190614085565b611ed4565b005b34801561086457600080fd5b5061087f600480360381019061087a9190614195565b611f36565b005b6060603780548060200260200160405190810160405280929190818152602001828054801561090557602002820191906000526020600020905b8160009054906101000a900473ffffffffffffffffffffffffffffffffffffffff1673ffffffffffffffffffffffffffffffffffffffff16815260200190600101908083116108bb575b5050505050905090565b60606035805461091e90615068565b80601f016020809104026020016040519081016040528092919081815260200182805461094a90615068565b80156109975780601f1061096c57610100808354040283529160200191610997565b820191906000526020600020905b81548152906001019060200180831161097a57829003601f168201915b5050505050905090565b6000806109ac611f5c565b90506109b9818585611f64565b600191505092915050565b600060086109d0611737565b6109da9190614d40565b600a6109e69190614dfb565b6109ee611abd565b60fd600301546109fe9190614f19565b83610a099190614f19565b610a139190614d77565b9050919050565b6000603454905090565b60008073ffffffffffffffffffffffffffffffffffffffff168373ffffffffffffffffffffffffffffffffffffffff161415610a95576040517f08c379a0000000000000000000000000000000000000000000000000000000008152600401610a8c90614a71565b60405180910390fd5b600073ffffffffffffffffffffffffffffffffffffffff168473ffffffffffffffffffffffffffffffffffffffff161415610b05576040517f08c379a0000000000000000000000000000000000000000000000000000000008152600401610afc90614af1565b60405180910390fd5b6000610b0f611f5c565b9050610b3d81868686604051806020016040528060008152506040518060200160405280600081525061212f565b610b698186868660405180602001604052806000815250604051806020016040528060008152506122a5565b6000603b60008773ffffffffffffffffffffffffffffffffffffffff1673ffffffffffffffffffffffffffffffffffffffff16815260200190815260200160002060008373ffffffffffffffffffffffffffffffffffffffff1673ffffffffffffffffffffffffffffffffffffffff16815260200190815260200160002054905083811015610c2d576040517f08c379a0000000000000000000000000000000000000000000000000000000008152600401610c2490614ad1565b60405180910390fd5b610c4386838684610c3e9190614f73565b611f64565b610c7182878787604051806020016040528060008152506040518060200160405280600081525060006124c2565b6001925050509392505050565b60006012905090565b610c90816126a3565b610cab81604051806020016040528060008152506000612722565b50565b600061010360003373ffffffffffffffffffffffffffffffffffffffff1673ffffffffffffffffffffffffffffffffffffffff1681526020019081526020016000205411610d31576040517f08c379a0000000000000000000000000000000000000000000000000000000008152600401610d2890614991565b60405180910390fd5b600061010360003373ffffffffffffffffffffffffffffffffffffffff1673ffffffffffffffffffffffffffffffffffffffff168152602001908152602001600020549050600061010360003373ffffffffffffffffffffffffffffffffffffffff1673ffffffffffffffffffffffffffffffffffffffff168152602001908152602001600020819055503373ffffffffffffffffffffffffffffffffffffffff166108fc829081150290604051600060405180830381858888f19350505050158015610e02573d6000803e3d6000fd5b5050565b610e0f826126a3565b610e1b82826001612722565b5050565b60006001905090565b610e39610e33611f5c565b86611885565b610e78576040517f08c379a0000000000000000000000000000000000000000000000000000000008152600401610e6f90614ab1565b60405180910390fd5b610e87858585858560016128f3565b5050505050565b6000603360008373ffffffffffffffffffffffffffffffffffffffff1673ffffffffffffffffffffffffffffffffffffffff168152602001908152602001600020549050919050565b610edf611f5c565b73ffffffffffffffffffffffffffffffffffffffff16610efd610f5f565b73ffffffffffffffffffffffffffffffffffffffff1614610f53576040517f08c379a0000000000000000000000000000000000000000000000000000000008152600401610f4a90614a31565b60405180910390fd5b610f5d6000612a13565b565b6000606560009054906101000a900473ffffffffffffffffffffffffffffffffffffffff16905090565b600080610f946117de565b600a610fa09190614dfb565b610fa8611337565b84610fb39190614f19565b610fbd9190614d77565b905060006008610fcb611737565b610fd59190614d40565b600a610fe19190614dfb565b610fe9611abd565b60fd60030154610ff99190614f19565b6110039190614d77565b8261100e9190614d77565b90508092505050919050565b8073ffffffffffffffffffffffffffffffffffffffff16611039611f5c565b73ffffffffffffffffffffffffffffffffffffffff161415611090576040517f08c379a000000000000000000000000000000000000000000000000000000000815260040161108790614971565b60405180910390fd5b603860008273ffffffffffffffffffffffffffffffffffffffff1673ffffffffffffffffffffffffffffffffffffffff16815260200190815260200160002060009054906101000a900460ff161561117a57603a60006110ee611f5c565b73ffffffffffffffffffffffffffffffffffffffff1673ffffffffffffffffffffffffffffffffffffffff16815260200190815260200160002060008273ffffffffffffffffffffffffffffffffffffffff1673ffffffffffffffffffffffffffffffffffffffff16815260200190815260200160002060006101000a81549060ff0219169055611217565b600160396000611188611f5c565b73ffffffffffffffffffffffffffffffffffffffff1673ffffffffffffffffffffffffffffffffffffffff16815260200190815260200160002060008373ffffffffffffffffffffffffffffffffffffffff1673ffffffffffffffffffffffffffffffffffffffff16815260200190815260200160002060006101000a81548160ff0219169083151502179055505b61121f611f5c565b73ffffffffffffffffffffffffffffffffffffffff168173ffffffffffffffffffffffffffffffffffffffff167ff4caeb2d6ca8932a215a353d0703c326ec2d81fc68170f320eb2ab49e9df61f960405160405180910390a350565b60606036805461128a90615068565b80601f01602080910402602001604051908101604052809291908181526020018280546112b690615068565b80156113035780601f106112d857610100808354040283529160200191611303565b820191906000526020600020905b8154815290600101906020018083116112e657829003601f168201915b5050505050905090565b611332611318611f5c565b8484846040518060200160405280600081525060016128f3565b505050565b60008060008060008060fb60009054906101000a900473ffffffffffffffffffffffffffffffffffffffff1673ffffffffffffffffffffffffffffffffffffffff1663feaf968c6040518163ffffffff1660e01b815260040160a06040518083038186803b1580156113a857600080fd5b505afa1580156113bc573d6000803e3d6000fd5b505050506040513d601f19601f820116820180604052508101906113e091906141e9565b94509450945094509450839550505050505090565b60008073ffffffffffffffffffffffffffffffffffffffff168373ffffffffffffffffffffffffffffffffffffffff161415611466576040517f08c379a000000000000000000000000000000000000000000000000000000000815260040161145d90614a71565b60405180910390fd5b6000611470611f5c565b905061149e81828686604051806020016040528060008152506040518060200160405280600081525061212f565b6114ca8182868660405180602001604052806000815250604051806020016040528060008152506122a5565b6114f881828686604051806020016040528060008152506040518060200160405280600081525060006124c2565b600191505092915050565b600060019054906101000a900460ff1680611529575060008054906101000a900460ff16155b611568576040517f08c379a000000000000000000000000000000000000000000000000000000000815260040161155f906149d1565b60405180910390fd5b60008060019054906101000a900460ff1615905080156115b8576001600060016101000a81548160ff02191690831515021790555060016000806101000a81548160ff0219169083151502179055505b61162d6040518060400160405280600e81526020017f4d6564536861726520546f6b656e0000000000000000000000000000000000008152506040518060400160405280600481526020017f4d4453540000000000000000000000000000000000000000000000000000000081525084612ad9565b611635612bc8565b61163d612cb1565b738a753747a1fa494ec906ce90e9f37563a8af630e60fb60006101000a81548173ffffffffffffffffffffffffffffffffffffffff021916908373ffffffffffffffffffffffffffffffffffffffff160217905550739c1946428f4f159db4889aa6b218833f467e1bfd60fc60006101000a81548173ffffffffffffffffffffffffffffffffffffffff021916908373ffffffffffffffffffffffffffffffffffffffff16021790555061171133846040518060200160405280600081525060405180602001604052806000815250612d9a565b80156117325760008060016101000a81548160ff0219169083151502179055505b505050565b600060fc60009054906101000a900473ffffffffffffffffffffffffffffffffffffffff1673ffffffffffffffffffffffffffffffffffffffff1663313ce5676040518163ffffffff1660e01b815260040160206040518083038186803b1580156117a157600080fd5b505afa1580156117b5573d6000803e3d6000fd5b505050506040513d601f19601f820116820180604052508101906117d99190614260565b905090565b600060fb60009054906101000a900473ffffffffffffffffffffffffffffffffffffffff1673ffffffffffffffffffffffffffffffffffffffff1663313ce5676040518163ffffffff1660e01b815260040160206040518083038186803b15801561184857600080fd5b505afa15801561185c573d6000803e3d6000fd5b505050506040513d601f19601f820116820180604052508101906118809190614260565b905090565b60008173ffffffffffffffffffffffffffffffffffffffff168373ffffffffffffffffffffffffffffffffffffffff16148061199d5750603860008473ffffffffffffffffffffffffffffffffffffffff1673ffffffffffffffffffffffffffffffffffffffff16815260200190815260200160002060009054906101000a900460ff16801561199c5750603a60008373ffffffffffffffffffffffffffffffffffffffff1673ffffffffffffffffffffffffffffffffffffffff16815260200190815260200160002060008473ffffffffffffffffffffffffffffffffffffffff1673ffffffffffffffffffffffffffffffffffffffff16815260200190815260200160002060009054906101000a900460ff16155b5b80611a2e5750603960008373ffffffffffffffffffffffffffffffffffffffff1673ffffffffffffffffffffffffffffffffffffffff16815260200190815260200160002060008473ffffffffffffffffffffffffffffffffffffffff1673ffffffffffffffffffffffffffffffffffffffff16815260200190815260200160002060009054906101000a900460ff165b905092915050565b6000603b60008473ffffffffffffffffffffffffffffffffffffffff1673ffffffffffffffffffffffffffffffffffffffff16815260200190815260200160002060008373ffffffffffffffffffffffffffffffffffffffff1673ffffffffffffffffffffffffffffffffffffffff16815260200190815260200160002054905092915050565b60008060008060008060fc60009054906101000a900473ffffffffffffffffffffffffffffffffffffffff1673ffffffffffffffffffffffffffffffffffffffff1663feaf968c6040518163ffffffff1660e01b815260040160a06040518083038186803b158015611b2e57600080fd5b505afa158015611b42573d6000803e3d6000fd5b505050506040513d601f19601f82011682018060405250810190611b6691906141e9565b94509450945094509450839550505050505090565b611b83611f5c565b73ffffffffffffffffffffffffffffffffffffffff16611ba1610f5f565b73ffffffffffffffffffffffffffffffffffffffff1614611bf7576040517f08c379a0000000000000000000000000000000000000000000000000000000008152600401611bee90614a31565b60405180910390fd5b600073ffffffffffffffffffffffffffffffffffffffff168173ffffffffffffffffffffffffffffffffffffffff161415611c67576040517f08c379a0000000000000000000000000000000000000000000000000000000008152600401611c5e90614931565b60405180910390fd5b611c7081612a13565b50565b611c7b611f5c565b73ffffffffffffffffffffffffffffffffffffffff168173ffffffffffffffffffffffffffffffffffffffff161415611ce9576040517f08c379a0000000000000000000000000000000000000000000000000000000008152600401611ce0906149b1565b60405180910390fd5b603860008273ffffffffffffffffffffffffffffffffffffffff1673ffffffffffffffffffffffffffffffffffffffff16815260200190815260200160002060009054906101000a900460ff1615611ddc576001603a6000611d49611f5c565b73ffffffffffffffffffffffffffffffffffffffff1673ffffffffffffffffffffffffffffffffffffffff16815260200190815260200160002060008373ffffffffffffffffffffffffffffffffffffffff1673ffffffffffffffffffffffffffffffffffffffff16815260200190815260200160002060006101000a81548160ff021916908315150217905550611e70565b60396000611de8611f5c565b73ffffffffffffffffffffffffffffffffffffffff1673ffffffffffffffffffffffffffffffffffffffff16815260200190815260200160002060008273ffffffffffffffffffffffffffffffffffffffff1673ffffffffffffffffffffffffffffffffffffffff16815260200190815260200160002060006101000a81549060ff02191690555b611e78611f5c565b73ffffffffffffffffffffffffffffffffffffffff168173ffffffffffffffffffffffffffffffffffffffff167f50546e66e5f44d728365dc3908c63bc5cfeeab470722c1677e3073a6ac294aa160405160405180910390a350565b611ee5611edf611f5c565b85611885565b611f24576040517f08c379a0000000000000000000000000000000000000000000000000000000008152600401611f1b90614ab1565b60405180910390fd5b611f3084848484612dae565b50505050565b611f58611f41611f5c565b838360405180602001604052806000815250612dae565b5050565b600033905090565b600073ffffffffffffffffffffffffffffffffffffffff168373ffffffffffffffffffffffffffffffffffffffff161415611fd4576040517f08c379a0000000000000000000000000000000000000000000000000000000008152600401611fcb906148b1565b60405180910390fd5b600073ffffffffffffffffffffffffffffffffffffffff168273ffffffffffffffffffffffffffffffffffffffff161415612044576040517f08c379a000000000000000000000000000000000000000000000000000000000815260040161203b90614b51565b60405180910390fd5b80603b60008573ffffffffffffffffffffffffffffffffffffffff1673ffffffffffffffffffffffffffffffffffffffff16815260200190815260200160002060008473ffffffffffffffffffffffffffffffffffffffff1673ffffffffffffffffffffffffffffffffffffffff168152602001908152602001600020819055508173ffffffffffffffffffffffffffffffffffffffff168373ffffffffffffffffffffffffffffffffffffffff167f8c5be1e5ebec7d5bd14f71427d1e84f3dd0314c0f7b2291e5b200ac8c7c3b925836040516121229190614b71565b60405180910390a3505050565b6000731820a4b7618bde71dce8cdc73aab6c95905fad2473ffffffffffffffffffffffffffffffffffffffff1663aabbb8ca877f29ddb589b1fb5fc7cf394961c1adf5f8c6454761adf795e67fe149f658abe8956040518363ffffffff1660e01b81526004016121a09291906147ae565b60206040518083038186803b1580156121b857600080fd5b505afa1580156121cc573d6000803e3d6000fd5b505050506040513d601f19601f820116820180604052508101906121f09190613e33565b9050600073ffffffffffffffffffffffffffffffffffffffff168173ffffffffffffffffffffffffffffffffffffffff161461229c578073ffffffffffffffffffffffffffffffffffffffff166375ab97828888888888886040518763ffffffff1660e01b81526004016122699695949392919061473f565b600060405180830381600087803b15801561228357600080fd5b505af1158015612297573d6000803e3d6000fd5b505050505b50505050505050565b6122b186868686613003565b6000603360008773ffffffffffffffffffffffffffffffffffffffff1673ffffffffffffffffffffffffffffffffffffffff16815260200190815260200160002054905083811015612338576040517f08c379a000000000000000000000000000000000000000000000000000000000815260040161232f906148f1565b60405180910390fd5b838103603360008873ffffffffffffffffffffffffffffffffffffffff1673ffffffffffffffffffffffffffffffffffffffff1681526020019081526020016000208190555083603360008773ffffffffffffffffffffffffffffffffffffffff1673ffffffffffffffffffffffffffffffffffffffff16815260200190815260200160002060008282546123cd9190614cea565b925050819055508473ffffffffffffffffffffffffffffffffffffffff168673ffffffffffffffffffffffffffffffffffffffff168873ffffffffffffffffffffffffffffffffffffffff167f06b541ddaa720db2b10a4d0cdac39b8d360425fc073085fac19bc8261467798787878760405161244c93929190614b8c565b60405180910390a48473ffffffffffffffffffffffffffffffffffffffff168673ffffffffffffffffffffffffffffffffffffffff167fddf252ad1be2c89b69c2b068fc378daa952ba7f163c4a11628f55a4df523b3ef866040516124b19190614b71565b60405180910390a350505050505050565b6000731820a4b7618bde71dce8cdc73aab6c95905fad2473ffffffffffffffffffffffffffffffffffffffff1663aabbb8ca877fb281fc8c12954d22544db45de3159a39272895b169a852b314f9cc762e44c53b6040518363ffffffff1660e01b81526004016125339291906147ae565b60206040518083038186803b15801561254b57600080fd5b505afa15801561255f573d6000803e3d6000fd5b505050506040513d601f19601f820116820180604052508101906125839190613e33565b9050600073ffffffffffffffffffffffffffffffffffffffff168173ffffffffffffffffffffffffffffffffffffffff1614612632578073ffffffffffffffffffffffffffffffffffffffff166223de298989898989896040518763ffffffff1660e01b81526004016125fb9695949392919061473f565b600060405180830381600087803b15801561261557600080fd5b505af1158015612629573d6000803e3d6000fd5b50505050612699565b8115612698576126578673ffffffffffffffffffffffffffffffffffffffff16613009565b15612697576040517f08c379a000000000000000000000000000000000000000000000000000000000815260040161268e90614a51565b60405180910390fd5b5b5b5050505050505050565b6126ab611f5c565b73ffffffffffffffffffffffffffffffffffffffff166126c9610f5f565b73ffffffffffffffffffffffffffffffffffffffff161461271f576040517f08c379a000000000000000000000000000000000000000000000000000000000815260040161271690614a31565b60405180910390fd5b50565b600061272c61301c565b905061273784613073565b6000835111806127445750815b1561275557612753848461312c565b505b60006127837f4910fdfa16fed3260ed0e7147f7cc6da11a60208b5b9406d12a635614ffd914360001b613210565b90508060000160009054906101000a900460ff166128ec5760018160000160006101000a81548160ff02191690831515021790555061284f85836040516024016127cd9190614724565b6040516020818303038152906040527f3659cfe6000000000000000000000000000000000000000000000000000000007bffffffffffffffffffffffffffffffffffffffffffffffffffffffff19166020820180517bffffffffffffffffffffffffffffffffffffffffffffffffffffffff838183161783525050505061312c565b5060008160000160006101000a81548160ff02191690831515021790555061287561301c565b73ffffffffffffffffffffffffffffffffffffffff168273ffffffffffffffffffffffffffffffffffffffff16146128e2576040517f08c379a00000000000000000000000000000000000000000000000000000000081526004016128d990614911565b60405180910390fd5b6128eb8561321a565b5b5050505050565b600073ffffffffffffffffffffffffffffffffffffffff168673ffffffffffffffffffffffffffffffffffffffff161415612963576040517f08c379a000000000000000000000000000000000000000000000000000000000815260040161295a906148d1565b60405180910390fd5b600073ffffffffffffffffffffffffffffffffffffffff168573ffffffffffffffffffffffffffffffffffffffff1614156129d3576040517f08c379a00000000000000000000000000000000000000000000000000000000081526004016129ca90614b31565b60405180910390fd5b60006129dd611f5c565b90506129ed81888888888861212f565b6129fb8188888888886122a5565b612a0a818888888888886124c2565b50505050505050565b6000606560009054906101000a900473ffffffffffffffffffffffffffffffffffffffff16905081606560006101000a81548173ffffffffffffffffffffffffffffffffffffffff021916908373ffffffffffffffffffffffffffffffffffffffff1602179055508173ffffffffffffffffffffffffffffffffffffffff168173ffffffffffffffffffffffffffffffffffffffff167f8be0079c531659141344cd1fd0a4f28419497f9722a3daafe3b4186f6b6457e060405160405180910390a35050565b600060019054906101000a900460ff1680612aff575060008054906101000a900460ff16155b612b3e576040517f08c379a0000000000000000000000000000000000000000000000000000000008152600401612b35906149d1565b60405180910390fd5b60008060019054906101000a900460ff161590508015612b8e576001600060016101000a81548160ff02191690831515021790555060016000806101000a81548160ff0219169083151502179055505b612b96613269565b612ba1848484613342565b8015612bc25760008060016101000a81548160ff0219169083151502179055505b50505050565b600060019054906101000a900460ff1680612bee575060008054906101000a900460ff16155b612c2d576040517f08c379a0000000000000000000000000000000000000000000000000000000008152600401612c24906149d1565b60405180910390fd5b60008060019054906101000a900460ff161590508015612c7d576001600060016101000a81548160ff02191690831515021790555060016000806101000a81548160ff0219169083151502179055505b612c85613269565b612c8d613661565b8015612cae5760008060016101000a81548160ff0219169083151502179055505b50565b600060019054906101000a900460ff1680612cd7575060008054906101000a900460ff16155b612d16576040517f08c379a0000000000000000000000000000000000000000000000000000000008152600401612d0d906149d1565b60405180910390fd5b60008060019054906101000a900460ff161590508015612d66576001600060016101000a81548160ff02191690831515021790555060016000806101000a81548160ff0219169083151502179055505b612d6e61374a565b612d76613823565b8015612d975760008060016101000a81548160ff0219169083151502179055505b50565b612da88484848460016138fc565b50505050565b600073ffffffffffffffffffffffffffffffffffffffff168473ffffffffffffffffffffffffffffffffffffffff161415612e1e576040517f08c379a0000000000000000000000000000000000000000000000000000000008152600401612e1590614951565b60405180910390fd5b6000612e28611f5c565b9050612e398186600087878761212f565b612e468186600087613003565b6000603360008773ffffffffffffffffffffffffffffffffffffffff1673ffffffffffffffffffffffffffffffffffffffff16815260200190815260200160002054905084811015612ecd576040517f08c379a0000000000000000000000000000000000000000000000000000000008152600401612ec490614b11565b60405180910390fd5b848103603360008873ffffffffffffffffffffffffffffffffffffffff1673ffffffffffffffffffffffffffffffffffffffff168152602001908152602001600020819055508460346000828254612f259190614f73565b925050819055508573ffffffffffffffffffffffffffffffffffffffff168273ffffffffffffffffffffffffffffffffffffffff167fa78a9be3a7b862d26933ad85fb11d80ef66b8f972d7cbba06621d583943a4098878787604051612f8d93929190614b8c565b60405180910390a3600073ffffffffffffffffffffffffffffffffffffffff168673ffffffffffffffffffffffffffffffffffffffff167fddf252ad1be2c89b69c2b068fc378daa952ba7f163c4a11628f55a4df523b3ef87604051612ff39190614b71565b60405180910390a3505050505050565b50505050565b600080823b905060008111915050919050565b600061304a7f360894a13ba1a3210667c828492db98dca3e2076cc3735a920a3ca505d382bbc60001b613adb565b60000160009054906101000a900473ffffffffffffffffffffffffffffffffffffffff16905090565b61307c81613009565b6130bb576040517f08c379a00000000000000000000000000000000000000000000000000000000081526004016130b290614a11565b60405180910390fd5b806130e87f360894a13ba1a3210667c828492db98dca3e2076cc3735a920a3ca505d382bbc60001b613adb565b60000160006101000a81548173ffffffffffffffffffffffffffffffffffffffff021916908373ffffffffffffffffffffffffffffffffffffffff16021790555050565b606061313783613009565b613176576040517f08c379a000000000000000000000000000000000000000000000000000000000815260040161316d90614a91565b60405180910390fd5b6000808473ffffffffffffffffffffffffffffffffffffffff168460405161319e919061470d565b600060405180830381855af49150503d80600081146131d9576040519150601f19603f3d011682016040523d82523d6000602084013e6131de565b606091505b509150915061320682826040518060600160405280602781526020016158e060279139613ae5565b9250505092915050565b6000819050919050565b61322381613073565b8073ffffffffffffffffffffffffffffffffffffffff167fbc7cd75a20ee27fd9adebab32041f755214dbc6bffa90cc0225b39da2e5c2d3b60405160405180910390a250565b600060019054906101000a900460ff168061328f575060008054906101000a900460ff16155b6132ce576040517f08c379a00000000000000000000000000000000000000000000000000000000081526004016132c5906149d1565b60405180910390fd5b60008060019054906101000a900460ff16159050801561331e576001600060016101000a81548160ff02191690831515021790555060016000806101000a81548160ff0219169083151502179055505b801561333f5760008060016101000a81548160ff0219169083151502179055505b50565b600060019054906101000a900460ff1680613368575060008054906101000a900460ff16155b6133a7576040517f08c379a000000000000000000000000000000000000000000000000000000000815260040161339e906149d1565b60405180910390fd5b60008060019054906101000a900460ff1615905080156133f7576001600060016101000a81548160ff02191690831515021790555060016000806101000a81548160ff0219169083151502179055505b836035908051906020019061340d929190613b4c565b508260369080519060200190613424929190613b4c565b50816037908051906020019061343b929190613bd2565b5060005b82518110156134f357600160386000858481518110613487577f4e487b7100000000000000000000000000000000000000000000000000000000600052603260045260246000fd5b602002602001015173ffffffffffffffffffffffffffffffffffffffff1673ffffffffffffffffffffffffffffffffffffffff16815260200190815260200160002060006101000a81548160ff02191690831515021790555080806134eb906150cb565b91505061343f565b50731820a4b7618bde71dce8cdc73aab6c95905fad2473ffffffffffffffffffffffffffffffffffffffff166329965a1d307fac7fbab5f54a3ca8194167523c6753bfeb96a445279294b6125b68cce2177054306040518463ffffffff1660e01b8152600401613565939291906147d7565b600060405180830381600087803b15801561357f57600080fd5b505af1158015613593573d6000803e3d6000fd5b50505050731820a4b7618bde71dce8cdc73aab6c95905fad2473ffffffffffffffffffffffffffffffffffffffff166329965a1d307faea199e31a596269b42cdafd93407f14436db6e4cad65417994c2eb37381e05a306040518463ffffffff1660e01b8152600401613608939291906147d7565b600060405180830381600087803b15801561362257600080fd5b505af1158015613636573d6000803e3d6000fd5b50505050801561365b5760008060016101000a81548160ff0219169083151502179055505b50505050565b600060019054906101000a900460ff1680613687575060008054906101000a900460ff16155b6136c6576040517f08c379a00000000000000000000000000000000000000000000000000000000081526004016136bd906149d1565b60405180910390fd5b60008060019054906101000a900460ff161590508015613716576001600060016101000a81548160ff02191690831515021790555060016000806101000a81548160ff0219169083151502179055505b613726613721611f5c565b612a13565b80156137475760008060016101000a81548160ff0219169083151502179055505b50565b600060019054906101000a900460ff1680613770575060008054906101000a900460ff16155b6137af576040517f08c379a00000000000000000000000000000000000000000000000000000000081526004016137a6906149d1565b60405180910390fd5b60008060019054906101000a900460ff1615905080156137ff576001600060016101000a81548160ff02191690831515021790555060016000806101000a81548160ff0219169083151502179055505b80156138205760008060016101000a81548160ff0219169083151502179055505b50565b600060019054906101000a900460ff1680613849575060008054906101000a900460ff16155b613888576040517f08c379a000000000000000000000000000000000000000000000000000000000815260040161387f906149d1565b60405180910390fd5b60008060019054906101000a900460ff1615905080156138d8576001600060016101000a81548160ff02191690831515021790555060016000806101000a81548160ff0219169083151502179055505b80156138f95760008060016101000a81548160ff0219169083151502179055505b50565b600073ffffffffffffffffffffffffffffffffffffffff168573ffffffffffffffffffffffffffffffffffffffff16141561396c576040517f08c379a0000000000000000000000000000000000000000000000000000000008152600401613963906149f1565b60405180910390fd5b6000613976611f5c565b90506139858160008888613003565b84603460008282546139979190614cea565b9250508190555084603360008873ffffffffffffffffffffffffffffffffffffffff1673ffffffffffffffffffffffffffffffffffffffff16815260200190815260200160002060008282546139ed9190614cea565b92505081905550613a0481600088888888886124c2565b8573ffffffffffffffffffffffffffffffffffffffff168173ffffffffffffffffffffffffffffffffffffffff167f2fe5be0146f74c5bce36c0b80911af6c7d86ff27e89d5cfa61fc681327954e5d878787604051613a6593929190614b8c565b60405180910390a38573ffffffffffffffffffffffffffffffffffffffff16600073ffffffffffffffffffffffffffffffffffffffff167fddf252ad1be2c89b69c2b068fc378daa952ba7f163c4a11628f55a4df523b3ef87604051613acb9190614b71565b60405180910390a3505050505050565b6000819050919050565b60608315613af557829050613b45565b600083511115613b085782518084602001fd5b816040517f08c379a0000000000000000000000000000000000000000000000000000000008152600401613b3c919061488f565b60405180910390fd5b9392505050565b828054613b5890615068565b90600052602060002090601f016020900481019282613b7a5760008555613bc1565b82601f10613b9357805160ff1916838001178555613bc1565b82800160010185558215613bc1579182015b82811115613bc0578251825591602001919060010190613ba5565b5b509050613bce9190613c5c565b5090565b828054828255906000526020600020908101928215613c4b579160200282015b82811115613c4a5782518260006101000a81548173ffffffffffffffffffffffffffffffffffffffff021916908373ffffffffffffffffffffffffffffffffffffffff16021790555091602001919060010190613bf2565b5b509050613c589190613c5c565b5090565b5b80821115613c75576000816000905550600101613c5d565b5090565b6000613c8c613c8784614c11565b614bec565b90508083825260208201905082856020860282011115613cab57600080fd5b60005b85811015613cdb5781613cc18882613d23565b845260208401935060208301925050600181019050613cae565b5050509392505050565b6000613cf8613cf384614c3d565b614bec565b905082815260208101848484011115613d1057600080fd5b613d1b848285615026565b509392505050565b600081359050613d328161586c565b92915050565b600081519050613d478161586c565b92915050565b600082601f830112613d5e57600080fd5b8135613d6e848260208601613c79565b91505092915050565b600082601f830112613d8857600080fd5b8135613d98848260208601613ce5565b91505092915050565b600081519050613db081615883565b92915050565b600081359050613dc58161589a565b92915050565b600081519050613dda8161589a565b92915050565b600081519050613def816158c8565b92915050565b600081519050613e04816158b1565b92915050565b600060208284031215613e1c57600080fd5b6000613e2a84828501613d23565b91505092915050565b600060208284031215613e4557600080fd5b6000613e5384828501613d38565b91505092915050565b60008060408385031215613e6f57600080fd5b6000613e7d85828601613d23565b9250506020613e8e85828601613d23565b9150509250929050565b600080600060608486031215613ead57600080fd5b6000613ebb86828701613d23565b9350506020613ecc86828701613d23565b9250506040613edd86828701613db6565b9150509250925092565b600080600080600060a08688031215613eff57600080fd5b6000613f0d88828901613d23565b9550506020613f1e88828901613d23565b9450506040613f2f88828901613db6565b935050606086013567ffffffffffffffff811115613f4c57600080fd5b613f5888828901613d77565b925050608086013567ffffffffffffffff811115613f7557600080fd5b613f8188828901613d77565b9150509295509295909350565b60008060408385031215613fa157600080fd5b6000613faf85828601613d23565b925050602083013567ffffffffffffffff811115613fcc57600080fd5b613fd885828601613d77565b9150509250929050565b60008060408385031215613ff557600080fd5b600061400385828601613d23565b925050602061401485828601613db6565b9150509250929050565b60008060006060848603121561403357600080fd5b600061404186828701613d23565b935050602061405286828701613db6565b925050604084013567ffffffffffffffff81111561406f57600080fd5b61407b86828701613d77565b9150509250925092565b6000806000806080858703121561409b57600080fd5b60006140a987828801613d23565b94505060206140ba87828801613db6565b935050604085013567ffffffffffffffff8111156140d757600080fd5b6140e387828801613d77565b925050606085013567ffffffffffffffff81111561410057600080fd5b61410c87828801613d77565b91505092959194509250565b60006020828403121561412a57600080fd5b600061413884828501613db6565b91505092915050565b6000806040838503121561415457600080fd5b600061416285828601613db6565b925050602083013567ffffffffffffffff81111561417f57600080fd5b61418b85828601613d4d565b9150509250929050565b600080604083850312156141a857600080fd5b60006141b685828601613db6565b925050602083013567ffffffffffffffff8111156141d357600080fd5b6141df85828601613d77565b9150509250929050565b600080600080600060a0868803121561420157600080fd5b600061420f88828901613de0565b955050602061422088828901613da1565b945050604061423188828901613dcb565b935050606061424288828901613dcb565b925050608061425388828901613de0565b9150509295509295909350565b60006020828403121561427257600080fd5b600061428084828501613df5565b91505092915050565b600061429583836142a1565b60208301905092915050565b6142aa81614fa7565b82525050565b6142b981614fa7565b82525050565b60006142ca82614c7e565b6142d48185614cac565b93506142df83614c6e565b8060005b838110156143105781516142f78882614289565b975061430283614c9f565b9250506001810190506142e3565b5085935050505092915050565b61432681614fb9565b82525050565b61433581614fc5565b82525050565b600061434682614c89565b6143508185614cbd565b9350614360818560208601615035565b614369816151d0565b840191505092915050565b600061437f82614c89565b6143898185614cce565b9350614399818560208601615035565b80840191505092915050565b6143ae81614fcf565b82525050565b60006143bf82614c94565b6143c98185614cd9565b93506143d9818560208601615035565b6143e2816151d0565b840191505092915050565b60006143fa602583614cd9565b9150614405826151ee565b604082019050919050565b600061441d602283614cd9565b91506144288261523d565b604082019050919050565b6000614440602783614cd9565b915061444b8261528c565b604082019050919050565b6000614463602f83614cd9565b915061446e826152db565b604082019050919050565b6000614486602683614cd9565b91506144918261532a565b604082019050919050565b60006144a9602283614cd9565b91506144b482615379565b604082019050919050565b60006144cc602483614cd9565b91506144d7826153c8565b604082019050919050565b60006144ef602783614cd9565b91506144fa82615417565b604082019050919050565b6000614512602183614cd9565b915061451d82615466565b604082019050919050565b6000614535602e83614cd9565b9150614540826154b5565b604082019050919050565b6000614558602083614cd9565b915061456382615504565b602082019050919050565b600061457b602d83614cd9565b91506145868261552d565b604082019050919050565b600061459e602083614cd9565b91506145a98261557c565b602082019050919050565b60006145c1604d83614cd9565b91506145cc826155a5565b606082019050919050565b60006145e4602483614cd9565b91506145ef8261561a565b604082019050919050565b6000614607602683614cd9565b915061461282615669565b604082019050919050565b600061462a602c83614cd9565b9150614635826156b8565b604082019050919050565b600061464d602983614cd9565b915061465882615707565b604082019050919050565b6000614670602683614cd9565b915061467b82615756565b604082019050919050565b6000614693602383614cd9565b915061469e826157a5565b604082019050919050565b60006146b6602083614cd9565b91506146c1826157f4565b602082019050919050565b60006146d9602383614cd9565b91506146e48261581d565b604082019050919050565b6146f881614ff9565b82525050565b61470781615003565b82525050565b60006147198284614374565b915081905092915050565b600060208201905061473960008301846142b0565b92915050565b600060c08201905061475460008301896142b0565b61476160208301886142b0565b61476e60408301876142b0565b61477b60608301866146ef565b818103608083015261478d818561433b565b905081810360a08301526147a1818461433b565b9050979650505050505050565b60006040820190506147c360008301856142b0565b6147d0602083018461432c565b9392505050565b60006060820190506147ec60008301866142b0565b6147f9602083018561432c565b61480660408301846142b0565b949350505050565b600060408201905061482360008301856142b0565b61483060208301846146ef565b9392505050565b6000602082019050818103600083015261485181846142bf565b905092915050565b600060208201905061486e600083018461431d565b92915050565b600060208201905061488960008301846143a5565b92915050565b600060208201905081810360008301526148a981846143b4565b905092915050565b600060208201905081810360008301526148ca816143ed565b9050919050565b600060208201905081810360008301526148ea81614410565b9050919050565b6000602082019050818103600083015261490a81614433565b9050919050565b6000602082019050818103600083015261492a81614456565b9050919050565b6000602082019050818103600083015261494a81614479565b9050919050565b6000602082019050818103600083015261496a8161449c565b9050919050565b6000602082019050818103600083015261498a816144bf565b9050919050565b600060208201905081810360008301526149aa816144e2565b9050919050565b600060208201905081810360008301526149ca81614505565b9050919050565b600060208201905081810360008301526149ea81614528565b9050919050565b60006020820190508181036000830152614a0a8161454b565b9050919050565b60006020820190508181036000830152614a2a8161456e565b9050919050565b60006020820190508181036000830152614a4a81614591565b9050919050565b60006020820190508181036000830152614a6a816145b4565b9050919050565b60006020820190508181036000830152614a8a816145d7565b9050919050565b60006020820190508181036000830152614aaa816145fa565b9050919050565b60006020820190508181036000830152614aca8161461d565b9050919050565b60006020820190508181036000830152614aea81614640565b9050919050565b60006020820190508181036000830152614b0a81614663565b9050919050565b60006020820190508181036000830152614b2a81614686565b9050919050565b60006020820190508181036000830152614b4a816146a9565b9050919050565b60006020820190508181036000830152614b6a816146cc565b9050919050565b6000602082019050614b8660008301846146ef565b92915050565b6000606082019050614ba160008301866146ef565b8181036020830152614bb3818561433b565b90508181036040830152614bc7818461433b565b9050949350505050565b6000602082019050614be660008301846146fe565b92915050565b6000614bf6614c07565b9050614c02828261509a565b919050565b6000604051905090565b600067ffffffffffffffff821115614c2c57614c2b6151a1565b5b602082029050602081019050919050565b600067ffffffffffffffff821115614c5857614c576151a1565b5b614c61826151d0565b9050602081019050919050565b6000819050602082019050919050565b600081519050919050565b600081519050919050565b600081519050919050565b6000602082019050919050565b600082825260208201905092915050565b600082825260208201905092915050565b600081905092915050565b600082825260208201905092915050565b6000614cf582614ff9565b9150614d0083614ff9565b9250827fffffffffffffffffffffffffffffffffffffffffffffffffffffffffffffffff03821115614d3557614d34615114565b5b828201905092915050565b6000614d4b82615003565b9150614d5683615003565b92508260ff03821115614d6c57614d6b615114565b5b828201905092915050565b6000614d8282614ff9565b9150614d8d83614ff9565b925082614d9d57614d9c615143565b5b828204905092915050565b6000808291508390505b6001851115614df257808604811115614dce57614dcd615114565b5b6001851615614ddd5780820291505b8081029050614deb856151e1565b9450614db2565b94509492505050565b6000614e0682614ff9565b9150614e1183615003565b9250614e3e7fffffffffffffffffffffffffffffffffffffffffffffffffffffffffffffffff8484614e46565b905092915050565b600082614e565760019050614f12565b81614e645760009050614f12565b8160018114614e7a5760028114614e8457614eb3565b6001915050614f12565b60ff841115614e9657614e95615114565b5b8360020a915084821115614ead57614eac615114565b5b50614f12565b5060208310610133831016604e8410600b8410161715614ee85782820a905083811115614ee357614ee2615114565b5b614f12565b614ef58484846001614da8565b92509050818404811115614f0c57614f0b615114565b5b81810290505b9392505050565b6000614f2482614ff9565b9150614f2f83614ff9565b9250817fffffffffffffffffffffffffffffffffffffffffffffffffffffffffffffffff0483118215151615614f6857614f67615114565b5b828202905092915050565b6000614f7e82614ff9565b9150614f8983614ff9565b925082821015614f9c57614f9b615114565b5b828203905092915050565b6000614fb282614fd9565b9050919050565b60008115159050919050565b6000819050919050565b6000819050919050565b600073ffffffffffffffffffffffffffffffffffffffff82169050919050565b6000819050919050565b600060ff82169050919050565b600069ffffffffffffffffffff82169050919050565b82818337600083830152505050565b60005b83811015615053578082015181840152602081019050615038565b83811115615062576000848401525b50505050565b6000600282049050600182168061508057607f821691505b6020821081141561509457615093615172565b5b50919050565b6150a3826151d0565b810181811067ffffffffffffffff821117156150c2576150c16151a1565b5b80604052505050565b60006150d682614ff9565b91507fffffffffffffffffffffffffffffffffffffffffffffffffffffffffffffffff82141561510957615108615114565b5b600182019050919050565b7f4e487b7100000000000000000000000000000000000000000000000000000000600052601160045260246000fd5b7f4e487b7100000000000000000000000000000000000000000000000000000000600052601260045260246000fd5b7f4e487b7100000000000000000000000000000000000000000000000000000000600052602260045260246000fd5b7f4e487b7100000000000000000000000000000000000000000000000000000000600052604160045260246000fd5b6000601f19601f8301169050919050565b60008160011c9050919050565b7f4552433737373a20617070726f76652066726f6d20746865207a65726f20616460008201527f6472657373000000000000000000000000000000000000000000000000000000602082015250565b7f4552433737373a2073656e642066726f6d20746865207a65726f20616464726560008201527f7373000000000000000000000000000000000000000000000000000000000000602082015250565b7f4552433737373a207472616e7366657220616d6f756e7420657863656564732060008201527f62616c616e636500000000000000000000000000000000000000000000000000602082015250565b7f45524331393637557067726164653a207570677261646520627265616b73206660008201527f7572746865722075706772616465730000000000000000000000000000000000602082015250565b7f4f776e61626c653a206e6577206f776e657220697320746865207a65726f206160008201527f6464726573730000000000000000000000000000000000000000000000000000602082015250565b7f4552433737373a206275726e2066726f6d20746865207a65726f20616464726560008201527f7373000000000000000000000000000000000000000000000000000000000000602082015250565b7f4552433737373a20617574686f72697a696e672073656c66206173206f70657260008201527f61746f7200000000000000000000000000000000000000000000000000000000602082015250565b7f4d4453543a204e6f2066756e64732070656e64696e6720666f7220746869732060008201527f6164647265737300000000000000000000000000000000000000000000000000602082015250565b7f4552433737373a207265766f6b696e672073656c66206173206f70657261746f60008201527f7200000000000000000000000000000000000000000000000000000000000000602082015250565b7f496e697469616c697a61626c653a20636f6e747261637420697320616c72656160008201527f647920696e697469616c697a6564000000000000000000000000000000000000602082015250565b7f4552433737373a206d696e7420746f20746865207a65726f2061646472657373600082015250565b7f455243313936373a206e657720696d706c656d656e746174696f6e206973206e60008201527f6f74206120636f6e747261637400000000000000000000000000000000000000602082015250565b7f4f776e61626c653a2063616c6c6572206973206e6f7420746865206f776e6572600082015250565b7f4552433737373a20746f6b656e20726563697069656e7420636f6e747261637460008201527f20686173206e6f20696d706c656d656e74657220666f7220455243373737546f60208201527f6b656e73526563697069656e7400000000000000000000000000000000000000604082015250565b7f4552433737373a207472616e7366657220746f20746865207a65726f2061646460008201527f7265737300000000000000000000000000000000000000000000000000000000602082015250565b7f416464726573733a2064656c65676174652063616c6c20746f206e6f6e2d636f60008201527f6e74726163740000000000000000000000000000000000000000000000000000602082015250565b7f4552433737373a2063616c6c6572206973206e6f7420616e206f70657261746f60008201527f7220666f7220686f6c6465720000000000000000000000000000000000000000602082015250565b7f4552433737373a207472616e7366657220616d6f756e7420657863656564732060008201527f616c6c6f77616e63650000000000000000000000000000000000000000000000602082015250565b7f4552433737373a207472616e736665722066726f6d20746865207a65726f206160008201527f6464726573730000000000000000000000000000000000000000000000000000602082015250565b7f4552433737373a206275726e20616d6f756e7420657863656564732062616c6160008201527f6e63650000000000000000000000000000000000000000000000000000000000602082015250565b7f4552433737373a2073656e6420746f20746865207a65726f2061646472657373600082015250565b7f4552433737373a20617070726f766520746f20746865207a65726f206164647260008201527f6573730000000000000000000000000000000000000000000000000000000000602082015250565b61587581614fa7565b811461588057600080fd5b50565b61588c81614fcf565b811461589757600080fd5b50565b6158a381614ff9565b81146158ae57600080fd5b50565b6158ba81615003565b81146158c557600080fd5b50565b6158d181615010565b81146158dc57600080fd5b5056fe416464726573733a206c6f772d6c6576656c2064656c65676174652063616c6c206661696c6564a26469706673582212209d4b20647e6bdf55cfff0fe5873a22fcbe4e69f70816d784911a9066befa422564736f6c63430008040033",
  "immutableReferences": {},
  "source": "// SPDX-License-Identifier: MIT\r\n\r\npragma solidity 0.8.4;\r\n\r\nimport \"@openzeppelin/contracts-upgradeable/token/ERC777/ERC777Upgradeable.sol\";\r\nimport \"@openzeppelin/contracts-upgradeable/access/OwnableUpgradeable.sol\";\r\nimport \"@openzeppelin/contracts-upgradeable/proxy/utils/Initializable.sol\";\r\nimport \"@openzeppelin/contracts-upgradeable/proxy/utils/UUPSUpgradeable.sol\";\r\nimport \"@chainlink/contracts/src/v0.8/interfaces/AggregatorV3Interface.sol\";\r\n\r\n//import \"./@openzeppelin/contracts-upgradeable/token/ERC777/extensions/ERC777SnapshotUpgradeable.sol\";\r\n//import \"./@openzeppelin/contracts-upgradeable/token/ERC777/extensions/ERC777VotesUpgradeable.sol\";\r\n//import \"./@openzeppelin/contracts-upgradeable/token/ERC777/extensions/draft-ERC777PermitUpgradeable.sol\";\r\n\r\ncontract MedShareToken is Initializable, ERC777Upgradeable, OwnableUpgradeable, UUPSUpgradeable {\r\n    \r\n    AggregatorV3Interface internal priceETHUSDFeed;\r\n    AggregatorV3Interface internal priceXAGUSDFeed;\r\n\r\n    struct BiblicalPrinciples {\r\n        uint256 fifth; // The fifth (Genesis4149)\r\n        uint256 tenth; // The tenth (Genesis1420)\r\n        uint256 twelfth; // The twelfth\r\n        uint256 halfShekel; // Half Shekel\r\n    }\r\n\r\n    // This is the Imperial constant price for the Half Shekel: IhS (g/Oz) = 7 / 28.34\r\n    uint256 constant IhS = 24700070;\r\n\r\n    BiblicalPrinciples principles = BiblicalPrinciples(5, 10, 12, IhS);\r\n\r\n    /**\r\n     * @dev This is the initialize function that starts this Token.\r\n     * It should be called as soon as possible.\r\n     * Network: Rinkeby\r\n     * Aggregator: ETH/USD\r\n     * Address: 0x8A753747A1Fa494EC906cE90E9f37563A8AF630e\r\n     * Aggregator: XAG/USD\r\n     * Address: 0x9c1946428f4f159dB4889aA6B218833f467e1BfD\r\n     */\r\n    function initialize(\r\n        uint256 initialSupply,\r\n        address[] memory defaultOperators\r\n    ) public initializer {\r\n        __ERC777_init(\"MedShare Token\", \"MDST\", defaultOperators);\r\n        __Ownable_init();\r\n        __UUPSUpgradeable_init();\r\n        // __ERC777Permit_init(\"MedShareToken\");\r\n        // __ERC777Snapshot_init();\r\n\r\n        // Price Feed for Rinkeby\r\n        priceETHUSDFeed = AggregatorV3Interface(\r\n            0x8A753747A1Fa494EC906cE90E9f37563A8AF630e\r\n        );\r\n        priceXAGUSDFeed = AggregatorV3Interface(\r\n            0x9c1946428f4f159dB4889aA6B218833f467e1BfD\r\n        );\r\n        _mint(msg.sender, initialSupply, \"\", \"\");\r\n    }\r\n\r\n    // This is the a Stable Dollar contract address\r\n    address stableDollarAddress = 0x3d2AeC4725b69e4fc5C1D9D75AcBfaCc1a4De4f5;\r\n    IERC20Upgradeable sda = IERC20Upgradeable(address(stableDollarAddress));\r\n\r\n    // If the user sends ETH to this Contract he will be able to refund back\r\n    mapping(address => uint256) private _pendingWithdrawals;\r\n\r\n    /**\r\n     * @dev hTAG quotation in Dollars\r\n     * @return result exchange rate htag/usd\r\n     */\r\n    function hTAGxDollars(uint256 amount) public view returns (uint256 result) {\r\n        // Getting hTAG from XAG price and Exchanging USD for hTAG (MDST)\r\n        return\r\n            (amount * (principles.halfShekel * uint256(getXagUsdPrice()))) /\r\n            10**(getXagUsdPriceDecimals() + 8);\r\n    }\r\n\r\n    /**\r\n     * @dev Returns The latest ETH/USD price\r\n     */\r\n    function getEthUsdPrice() public view returns (int256) {\r\n        (\r\n            uint80 roundID,\r\n            int256 price,\r\n            uint256 startedAt,\r\n            uint256 updatedAt,\r\n            uint80 answeredInRound\r\n        ) = priceETHUSDFeed.latestRoundData();\r\n        return price;\r\n    }\r\n\r\n    /**\r\n     * @dev Returns ETH/USD price decimals\r\n     */\r\n    function getEthUsdPriceDecimals() public view returns (uint8) {\r\n        return priceETHUSDFeed.decimals();\r\n    }\r\n\r\n    /**\r\n     * @dev Returns The latest XAG/USD price\r\n     */\r\n    function getXagUsdPrice() public view returns (int256) {\r\n        (\r\n            uint80 roundID,\r\n            int256 price,\r\n            uint256 startedAt,\r\n            uint256 updatedAt,\r\n            uint80 answeredInRound\r\n        ) = priceXAGUSDFeed.latestRoundData();\r\n        return price;\r\n    }\r\n\r\n    /**\r\n     * @dev Returns XAG/USD price decimals\r\n     */\r\n    function getXagUsdPriceDecimals() public view returns (uint8) {\r\n        return priceXAGUSDFeed.decimals();\r\n    }\r\n\r\n    /**\r\n     * @dev Test the Imperial Principles\r\n     * @param amount can be any positive value\r\n     * @return result that should give the actual amount in half shekels\r\n     */\r\n    function testImperialPrinciples(uint256 amount)\r\n        public\r\n        view\r\n        returns (uint256 result)\r\n    {\r\n        // Exchanging Amount of ETH for USD\r\n        uint256 usd = (amount * uint256(getEthUsdPrice())) /\r\n            10**getEthUsdPriceDecimals();\r\n        // Getting hTAG from XAG price and Exchanging USD for hTAG (MDST)\r\n        uint256 mdst = usd /\r\n            ((principles.halfShekel * uint256(getXagUsdPrice())) /\r\n                10**(getXagUsdPriceDecimals() + 8));\r\n        return mdst;\r\n    }\r\n\r\n    /* function snapshot() public onlyOwner {\r\n        _snapshot();\r\n    } */\r\n\r\n    function _authorizeUpgrade(address newImplementation) internal override onlyOwner {}\r\n\r\n    /*  function _beforeTokenTransfer(address from, address to, uint256 amount)\r\n        internal\r\n        override(ERC777Upgradeable, ERC777SnapshotUpgradeable)\r\n    {\r\n        super._beforeTokenTransfer(from, to, amount);\r\n    } */\r\n\r\n    /* function _afterTokenTransfer(address from, address to, uint256 amount)\r\n        internal\r\n        override(ERC777Upgradeable, ERC777VotesUpgradeable)\r\n    {\r\n        super._afterTokenTransfer(from, to, amount);\r\n    } */\r\n\r\n    /*  function _mint(address to, uint256 amount)\r\n        internal\r\n        override(ERC777Upgradeable, ERC777VotesUpgradeable)\r\n    {\r\n        super._mint(to, amount);\r\n    } */\r\n\r\n    /* function _burn(address account, uint256 amount)\r\n        internal\r\n        override(ERC777Upgradeable, ERC777VotesUpgradeable)\r\n    {\r\n        super._burn(account, amount);\r\n    } */\r\n\r\n    /**\r\n     * @dev Function to Withdraw funds that came to this contract without going\r\n     * through the Invest() function.\r\n     */\r\n    function withdraw() external {\r\n        require(\r\n            _pendingWithdrawals[msg.sender] > 0,\r\n            \"MDST: No funds pending for this address\"\r\n        );\r\n\r\n        uint256 amount = _pendingWithdrawals[msg.sender];\r\n        // Remember to zero the pending refund before\r\n        // sending to prevent re-entrancy attacks\r\n        _pendingWithdrawals[msg.sender] = 0;\r\n        payable(msg.sender).transfer(amount);\r\n    }\r\n\r\n    event Received(address, uint256);\r\n\r\n    /**\r\n     * @dev Function to receive Ether. msg.data must be empty\r\n     * when someone sends Ether not passing through the Invest() function.\r\n     */\r\n    receive() external payable {\r\n        _pendingWithdrawals[msg.sender] += msg.value;\r\n        emit Received(msg.sender, msg.value);\r\n    }\r\n\r\n    event Fallenback(address, uint256);\r\n\r\n    /**\r\n     * @dev Function Fallback: It is called when msg.data is\r\n     * not empty to receive Ether. (msg.data must be empty)\r\n     * This happens when someone sends Ether not passing through\r\n     * the Invest() function.\r\n     */\r\n    fallback() external payable {\r\n        _pendingWithdrawals[msg.sender] += msg.value;\r\n        emit Fallenback(msg.sender, msg.value);\r\n    }\r\n}\r\n",
  "sourcePath": "C:/Users/dimit/Documents/GitHub/ShalomEmpire/medshare/contracts/MedShareToken.sol",
  "compiler": {
    "name": "solc",
    "version": "0.8.4+commit.c7e474f2.Emscripten.clang"
  },
  "schemaVersion": "3.4.1",
  "updatedAt": "2021-07-26T21:48:28.202Z",
  "networkType": "ethereum",
  "devdoc": {
    "kind": "dev",
    "methods": {
      "allowance(address,address)": {
        "details": "See {IERC20-allowance}. Note that operator and allowance concepts are orthogonal: operators may not have allowance, and accounts with allowance may not be operators themselves."
      },
      "approve(address,uint256)": {
        "details": "See {IERC20-approve}. Note that accounts cannot have allowance issued by their operators."
      },
      "authorizeOperator(address)": {
        "details": "See {IERC777-authorizeOperator}."
      },
      "balanceOf(address)": {
        "details": "Returns the amount of tokens owned by an account (`tokenHolder`)."
      },
      "burn(uint256,bytes)": {
        "details": "See {IERC777-burn}. Also emits a {IERC20-Transfer} event for ERC20 compatibility."
      },
      "decimals()": {
        "details": "See {ERC20-decimals}. Always returns 18, as per the [ERC777 EIP](https://eips.ethereum.org/EIPS/eip-777#backward-compatibility)."
      },
      "defaultOperators()": {
        "details": "See {IERC777-defaultOperators}."
      },
      "getEthUsdPrice()": {
        "details": "Returns The latest ETH/USD price"
      },
      "getEthUsdPriceDecimals()": {
        "details": "Returns ETH/USD price decimals"
      },
      "getXagUsdPrice()": {
        "details": "Returns The latest XAG/USD price"
      },
      "getXagUsdPriceDecimals()": {
        "details": "Returns XAG/USD price decimals"
      },
      "granularity()": {
        "details": "See {IERC777-granularity}. This implementation always returns `1`."
      },
      "hTAGxDollars(uint256)": {
        "details": "hTAG quotation in Dollars",
        "returns": {
          "result": "exchange rate htag/usd"
        }
      },
      "initialize(uint256,address[])": {
        "details": "This is the initialize function that starts this Token. It should be called as soon as possible. Network: Rinkeby Aggregator: ETH/USD Address: 0x8A753747A1Fa494EC906cE90E9f37563A8AF630e Aggregator: XAG/USD Address: 0x9c1946428f4f159dB4889aA6B218833f467e1BfD"
      },
      "isOperatorFor(address,address)": {
        "details": "See {IERC777-isOperatorFor}."
      },
      "name()": {
        "details": "See {IERC777-name}."
      },
      "operatorBurn(address,uint256,bytes,bytes)": {
        "details": "See {IERC777-operatorBurn}. Emits {Burned} and {IERC20-Transfer} events."
      },
      "operatorSend(address,address,uint256,bytes,bytes)": {
        "details": "See {IERC777-operatorSend}. Emits {Sent} and {IERC20-Transfer} events."
      },
      "owner()": {
        "details": "Returns the address of the current owner."
      },
      "renounceOwnership()": {
        "details": "Leaves the contract without owner. It will not be possible to call `onlyOwner` functions anymore. Can only be called by the current owner. NOTE: Renouncing ownership will leave the contract without an owner, thereby removing any functionality that is only available to the owner."
      },
      "revokeOperator(address)": {
        "details": "See {IERC777-revokeOperator}."
      },
      "send(address,uint256,bytes)": {
        "details": "See {IERC777-send}. Also emits a {IERC20-Transfer} event for ERC20 compatibility."
      },
      "symbol()": {
        "details": "See {IERC777-symbol}."
      },
      "testImperialPrinciples(uint256)": {
        "details": "Test the Imperial Principles",
        "params": {
          "amount": "can be any positive value"
        },
        "returns": {
          "result": "that should give the actual amount in half shekels"
        }
      },
      "totalSupply()": {
        "details": "See {IERC777-totalSupply}."
      },
      "transfer(address,uint256)": {
        "details": "See {IERC20-transfer}. Unlike `send`, `recipient` is _not_ required to implement the {IERC777Recipient} interface if it is a contract. Also emits a {Sent} event."
      },
      "transferFrom(address,address,uint256)": {
        "details": "See {IERC20-transferFrom}. Note that operator and allowance concepts are orthogonal: operators cannot call `transferFrom` (unless they have allowance), and accounts with allowance cannot call `operatorSend` (unless they are operators). Emits {Sent}, {IERC20-Transfer} and {IERC20-Approval} events."
      },
      "transferOwnership(address)": {
        "details": "Transfers ownership of the contract to a new account (`newOwner`). Can only be called by the current owner."
      },
      "upgradeTo(address)": {
        "details": "Upgrade the implementation of the proxy to `newImplementation`. Calls {_authorizeUpgrade}. Emits an {Upgraded} event."
      },
      "upgradeToAndCall(address,bytes)": {
        "details": "Upgrade the implementation of the proxy to `newImplementation`, and subsequently execute the function call encoded in `data`. Calls {_authorizeUpgrade}. Emits an {Upgraded} event."
      },
      "withdraw()": {
        "details": "Function to Withdraw funds that came to this contract without going through the Invest() function."
      }
    },
    "version": 1
  },
  "userdoc": {
    "kind": "user",
    "methods": {},
    "version": 1
  }
}