{
  "contractName": "StringsAndBytes",
  "abi": [
    {
      "inputs": [
        {
          "internalType": "string",
          "name": "_source",
          "type": "string"
        }
      ],
      "name": "stringToBytes32",
      "outputs": [
        {
          "internalType": "bytes32",
          "name": "result",
          "type": "bytes32"
        }
      ],
      "stateMutability": "pure",
      "type": "function",
      "constant": true
    },
    {
      "inputs": [
        {
          "internalType": "bytes32",
          "name": "_bytes32",
          "type": "bytes32"
        }
      ],
      "name": "bytes32ToBytes",
      "outputs": [
        {
          "internalType": "bytes",
          "name": "",
          "type": "bytes"
        }
      ],
      "stateMutability": "pure",
      "type": "function",
      "constant": true
    },
    {
      "inputs": [
        {
          "internalType": "bytes32",
          "name": "_bytes32",
          "type": "bytes32"
        }
      ],
      "name": "bytes32ToString",
      "outputs": [
        {
          "internalType": "string",
          "name": "",
          "type": "string"
        }
      ],
      "stateMutability": "pure",
      "type": "function",
      "constant": true
    }
  ],
  "bytecode": "0x61062f610053600b82828239805160001a607314610046577f4e487b7100000000000000000000000000000000000000000000000000000000600052600060045260246000fd5b30600052607381538281f3fe730000000000000000000000000000000000000000301460806040526004361061004b5760003560e01c80634c0999c7146100505780639201de5514610080578063cfb51928146100b0575b600080fd5b61006a600480360381019061006591906102cb565b6100e0565b60405161007791906103d1565b60405180910390f35b61009a600480360381019061009591906102cb565b610228565b6040516100a791906103f3565b60405180910390f35b6100ca60048036038101906100c591906102f4565b610240565b6040516100d791906103b6565b60405180910390f35b60606000602067ffffffffffffffff811115610125577f4e487b7100000000000000000000000000000000000000000000000000000000600052604160045260246000fd5b6040519080825280601f01601f1916602001820160405280156101575781602001600182028036833780820191505090505b50905060005b602081101561021e5783816020811061019f577f4e487b7100000000000000000000000000000000000000000000000000000000600052603260045260246000fd5b1a60f81b8282815181106101dc577f4e487b7100000000000000000000000000000000000000000000000000000000600052603260045260246000fd5b60200101907effffffffffffffffffffffffffffffffffffffffffffffffffffffffffffff1916908160001a90535080806102169061052a565b91505061015d565b5080915050919050565b60606000610235836100e0565b905080915050919050565b600060208201519050919050565b600061026161025c8461043a565b610415565b90508281526020810184848401111561027957600080fd5b6102848482856104b7565b509392505050565b60008135905061029b816105e2565b92915050565b600082601f8301126102b257600080fd5b81356102c284826020860161024e565b91505092915050565b6000602082840312156102dd57600080fd5b60006102eb8482850161028c565b91505092915050565b60006020828403121561030657600080fd5b600082013567ffffffffffffffff81111561032057600080fd5b61032c848285016102a1565b91505092915050565b61033e816104a3565b82525050565b600061034f8261046b565b6103598185610481565b93506103698185602086016104c6565b610372816105d1565b840191505092915050565b600061038882610476565b6103928185610492565b93506103a28185602086016104c6565b6103ab816105d1565b840191505092915050565b60006020820190506103cb6000830184610335565b92915050565b600060208201905081810360008301526103eb8184610344565b905092915050565b6000602082019050818103600083015261040d818461037d565b905092915050565b600061041f610430565b905061042b82826104f9565b919050565b6000604051905090565b600067ffffffffffffffff821115610455576104546105a2565b5b61045e826105d1565b9050602081019050919050565b600081519050919050565b600081519050919050565b600082825260208201905092915050565b600082825260208201905092915050565b6000819050919050565b6000819050919050565b82818337600083830152505050565b60005b838110156104e45780820151818401526020810190506104c9565b838111156104f3576000848401525b50505050565b610502826105d1565b810181811067ffffffffffffffff82111715610521576105206105a2565b5b80604052505050565b6000610535826104ad565b91507fffffffffffffffffffffffffffffffffffffffffffffffffffffffffffffffff82141561056857610567610573565b5b600182019050919050565b7f4e487b7100000000000000000000000000000000000000000000000000000000600052601160045260246000fd5b7f4e487b7100000000000000000000000000000000000000000000000000000000600052604160045260246000fd5b6000601f19601f8301169050919050565b6105eb816104a3565b81146105f657600080fd5b5056fea2646970667358221220684d11cd1564a798154f5cd2381c2fa7a4646335f90b3ce7ffa4f038d6ca674864736f6c63430008040033",
  "immutableReferences": {},
  "source": "// Library: StringsAndBytes\r\n// SPDX-License-Identifier: MIT\r\n\r\npragma solidity ^0.8.4;\r\n\r\n/**\r\n * @title StringsAndBytes Converts Strings to Bytes and Bytes32 and Vice-versa\r\n * @dev Converting Bytes and Strings into one another\r\n */\r\nlibrary StringsAndBytes {\r\n  \r\n  function stringToBytes32(string memory _source) public pure returns (bytes32 result) {\r\n    // String have to be max 32 chars\r\n    // https://ethereum.stackexchange.com/questions/9603/understanding-mload-assembly-function\r\n    // http://solidity.readthedocs.io/en/latest/assembly.html\r\n    assembly {\r\n      result := mload(add(_source, 0x20))\r\n    }\r\n  }\r\n\r\n  function bytes32ToBytes(bytes32 _bytes32) public pure returns (bytes memory) {\r\n    // bytes32 (fixed-size array) to bytes (dynamically-sized array)\r\n    // string memory str = string(_bytes32);\r\n    // TypeError: Explicit type conversion not allowed from \"bytes32\" to \"string storage pointer\"    \r\n    bytes memory bytesArray = new bytes(32);\r\n    for (uint256 i; i < 32; i++) {\r\n      bytesArray[i] = _bytes32[i];\r\n    }\r\n    return bytesArray;\r\n  }\r\n\r\n  function bytes32ToString(bytes32 _bytes32) public pure returns (string memory) {\r\n    // https://ethereum.stackexchange.com/questions/2519/how-to-convert-a-bytes32-to-string\r\n    // https://ethereum.stackexchange.com/questions/1081/how-to-concatenate-a-bytes32-array-to-a-string\r\n    bytes memory bytesArray = bytes32ToBytes(_bytes32);\r\n    return string(bytesArray);\r\n  }\r\n}\r\n\r\n",
  "sourcePath": "C:/Users/dimit/Documents/GitHub/ShalomEmpire/medshare/contracts/utils/StringsAndBytes.sol",
  "compiler": {
    "name": "solc",
    "version": "0.8.4+commit.c7e474f2.Emscripten.clang"
  },
  "schemaVersion": "3.4.1",
  "updatedAt": "2021-07-26T21:48:28.114Z",
  "networkType": "ethereum",
  "devdoc": {
    "details": "Converting Bytes and Strings into one another",
    "kind": "dev",
    "methods": {},
    "title": "StringsAndBytes Converts Strings to Bytes and Bytes32 and Vice-versa",
    "version": 1
  },
  "userdoc": {
    "kind": "user",
    "methods": {},
    "version": 1
  }
}